{"abi":[{"type":"constructor","inputs":[{"name":"_prover","type":"address","internalType":"address"}],"stateMutability":"nonpayable"},{"type":"function","name":"_setTestVerifier","inputs":[{"name":"newVerifier","type":"address","internalType":"contract IProofVerifier"}],"outputs":[],"stateMutability":"nonpayable"},{"type":"function","name":"actionVerificationCounts","inputs":[{"name":"","type":"uint256","internalType":"uint256"}],"outputs":[{"name":"","type":"uint256","internalType":"uint256"}],"stateMutability":"view"},{"type":"function","name":"deactivateUser","inputs":[{"name":"user","type":"address","internalType":"address"}],"outputs":[],"stateMutability":"nonpayable"},{"type":"function","name":"getActionVerificationCount","inputs":[{"name":"actionId","type":"uint256","internalType":"uint256"}],"outputs":[{"name":"","type":"uint256","internalType":"uint256"}],"stateMutability":"view"},{"type":"function","name":"getAllVerifiedUsers","inputs":[],"outputs":[{"name":"","type":"address[]","internalType":"address[]"}],"stateMutability":"view"},{"type":"function","name":"getRecentActivity","inputs":[{"name":"limit","type":"uint256","internalType":"uint256"}],"outputs":[{"name":"users","type":"address[]","internalType":"address[]"},{"name":"timestamps","type":"uint256[]","internalType":"uint256[]"},{"name":"actionCounts","type":"uint256[]","internalType":"uint256[]"}],"stateMutability":"view"},{"type":"function","name":"getUserActionHistory","inputs":[{"name":"user","type":"address","internalType":"address"},{"name":"actionId","type":"uint256","internalType":"uint256"}],"outputs":[{"name":"","type":"tuple[]","internalType":"struct DynamicTwitterVerifier.ActionRecord[]","components":[{"name":"actionId","type":"uint256","internalType":"uint256"},{"name":"actionName","type":"string","internalType":"string"},{"name":"targetValue","type":"string","internalType":"string"},{"name":"verified","type":"bool","internalType":"bool"},{"name":"timestamp","type":"uint256","internalType":"uint256"},{"name":"actualValue","type":"string","internalType":"string"}]}],"stateMutability":"view"},{"type":"function","name":"getUserActionStatus","inputs":[{"name":"user","type":"address","internalType":"address"},{"name":"actionId","type":"uint256","internalType":"uint256"}],"outputs":[{"name":"","type":"bool","internalType":"bool"}],"stateMutability":"view"},{"type":"function","name":"getUserActionSummary","inputs":[{"name":"user","type":"address","internalType":"address"}],"outputs":[{"name":"username","type":"string","internalType":"string"},{"name":"totalActions","type":"uint256","internalType":"uint256"},{"name":"lastVerification","type":"uint256","internalType":"uint256"},{"name":"actionStatuses","type":"bool[]","internalType":"bool[]"}],"stateMutability":"view"},{"type":"function","name":"getUserByUsername","inputs":[{"name":"username","type":"string","internalType":"string"}],"outputs":[{"name":"","type":"address","internalType":"address"}],"stateMutability":"view"},{"type":"function","name":"getUserData","inputs":[{"name":"user","type":"address","internalType":"address"}],"outputs":[{"name":"","type":"tuple","internalType":"struct DynamicTwitterVerifier.UserData","components":[{"name":"username","type":"string","internalType":"string"},{"name":"userAddress","type":"address","internalType":"address"},{"name":"totalActionsVerified","type":"uint256","internalType":"uint256"},{"name":"lastVerificationTimestamp","type":"uint256","internalType":"uint256"},{"name":"isActive","type":"bool","internalType":"bool"}]}],"stateMutability":"view"},{"type":"function","name":"getUsersWithAction","inputs":[{"name":"actionId","type":"uint256","internalType":"uint256"}],"outputs":[{"name":"","type":"address[]","internalType":"address[]"}],"stateMutability":"view"},{"type":"function","name":"getVerifiedUsersCount","inputs":[],"outputs":[{"name":"","type":"uint256","internalType":"uint256"}],"stateMutability":"view"},{"type":"function","name":"prover","inputs":[],"outputs":[{"name":"","type":"address","internalType":"address"}],"stateMutability":"view"},{"type":"function","name":"reactivateUser","inputs":[{"name":"user","type":"address","internalType":"address"}],"outputs":[],"stateMutability":"nonpayable"},{"type":"function","name":"userActionHistory","inputs":[{"name":"","type":"address","internalType":"address"},{"name":"","type":"uint256","internalType":"uint256"},{"name":"","type":"uint256","internalType":"uint256"}],"outputs":[{"name":"actionId","type":"uint256","internalType":"uint256"},{"name":"actionName","type":"string","internalType":"string"},{"name":"targetValue","type":"string","internalType":"string"},{"name":"verified","type":"bool","internalType":"bool"},{"name":"timestamp","type":"uint256","internalType":"uint256"},{"name":"actualValue","type":"string","internalType":"string"}],"stateMutability":"view"},{"type":"function","name":"userActionStatus","inputs":[{"name":"","type":"address","internalType":"address"},{"name":"","type":"uint256","internalType":"uint256"}],"outputs":[{"name":"","type":"bool","internalType":"bool"}],"stateMutability":"view"},{"type":"function","name":"userData","inputs":[{"name":"","type":"address","internalType":"address"}],"outputs":[{"name":"username","type":"string","internalType":"string"},{"name":"userAddress","type":"address","internalType":"address"},{"name":"totalActionsVerified","type":"uint256","internalType":"uint256"},{"name":"lastVerificationTimestamp","type":"uint256","internalType":"uint256"},{"name":"isActive","type":"bool","internalType":"bool"}],"stateMutability":"view"},{"type":"function","name":"usernameToAddress","inputs":[{"name":"","type":"string","internalType":"string"}],"outputs":[{"name":"","type":"address","internalType":"address"}],"stateMutability":"view"},{"type":"function","name":"verifiedUsers","inputs":[{"name":"","type":"uint256","internalType":"uint256"}],"outputs":[{"name":"","type":"address","internalType":"address"}],"stateMutability":"view"},{"type":"function","name":"verifier","inputs":[],"outputs":[{"name":"","type":"address","internalType":"contract IProofVerifier"}],"stateMutability":"view"},{"type":"function","name":"verifyMultipleActions","inputs":[{"name":"","type":"tuple","internalType":"struct Proof","components":[{"name":"seal","type":"tuple","internalType":"struct Seal","components":[{"name":"verifierSelector","type":"bytes4","internalType":"bytes4"},{"name":"seal","type":"bytes32[8]","internalType":"bytes32[8]"},{"name":"mode","type":"uint8","internalType":"enum ProofMode"}]},{"name":"callGuestId","type":"bytes32","internalType":"bytes32"},{"name":"length","type":"uint256","internalType":"uint256"},{"name":"callAssumptions","type":"tuple","internalType":"struct CallAssumptions","components":[{"name":"proverContractAddress","type":"address","internalType":"address"},{"name":"functionSelector","type":"bytes4","internalType":"bytes4"},{"name":"settleChainId","type":"uint256","internalType":"uint256"},{"name":"settleBlockNumber","type":"uint256","internalType":"uint256"},{"name":"settleBlockHash","type":"bytes32","internalType":"bytes32"}]}]},{"name":"results","type":"bool[]","internalType":"bool[]"},{"name":"actualValues","type":"string[]","internalType":"string[]"},{"name":"account","type":"address","internalType":"address"},{"name":"actionIds","type":"uint256[]","internalType":"uint256[]"},{"name":"username","type":"string","internalType":"string"},{"name":"targetValues","type":"string[]","internalType":"string[]"}],"outputs":[],"stateMutability":"nonpayable"},{"type":"function","name":"verifySingleAction","inputs":[{"name":"","type":"tuple","internalType":"struct Proof","components":[{"name":"seal","type":"tuple","internalType":"struct Seal","components":[{"name":"verifierSelector","type":"bytes4","internalType":"bytes4"},{"name":"seal","type":"bytes32[8]","internalType":"bytes32[8]"},{"name":"mode","type":"uint8","internalType":"enum ProofMode"}]},{"name":"callGuestId","type":"bytes32","internalType":"bytes32"},{"name":"length","type":"uint256","internalType":"uint256"},{"name":"callAssumptions","type":"tuple","internalType":"struct CallAssumptions","components":[{"name":"proverContractAddress","type":"address","internalType":"address"},{"name":"functionSelector","type":"bytes4","internalType":"bytes4"},{"name":"settleChainId","type":"uint256","internalType":"uint256"},{"name":"settleBlockNumber","type":"uint256","internalType":"uint256"},{"name":"settleBlockHash","type":"bytes32","internalType":"bytes32"}]}]},{"name":"actionVerified","type":"bool","internalType":"bool"},{"name":"actualValue","type":"string","internalType":"string"},{"name":"account","type":"address","internalType":"address"},{"name":"actionId","type":"uint256","internalType":"uint256"},{"name":"username","type":"string","internalType":"string"},{"name":"targetValue","type":"string","internalType":"string"}],"outputs":[],"stateMutability":"nonpayable"},{"type":"event","name":"ActionVerified","inputs":[{"name":"user","type":"address","indexed":true,"internalType":"address"},{"name":"actionId","type":"uint256","indexed":true,"internalType":"uint256"},{"name":"targetValue","type":"string","indexed":false,"internalType":"string"},{"name":"success","type":"bool","indexed":false,"internalType":"bool"}],"anonymous":false},{"type":"event","name":"MultipleActionsVerified","inputs":[{"name":"user","type":"address","indexed":true,"internalType":"address"},{"name":"actionIds","type":"uint256[]","indexed":false,"internalType":"uint256[]"},{"name":"results","type":"bool[]","indexed":false,"internalType":"bool[]"}],"anonymous":false},{"type":"event","name":"UserDataUpdated","inputs":[{"name":"user","type":"address","indexed":true,"internalType":"address"},{"name":"username","type":"string","indexed":false,"internalType":"string"}],"anonymous":false},{"type":"event","name":"UserVerified","inputs":[{"name":"user","type":"address","indexed":true,"internalType":"address"},{"name":"username","type":"string","indexed":false,"internalType":"string"}],"anonymous":false},{"type":"error","name":"InvalidChainId","inputs":[]}],"bytecode":{"object":"0x60a0806040523462000085576020816200543180380380916200002382856200008a565b8339810103126200008557516001600160a01b038082169182900362000085576200004d620000c4565b1660018060a01b0319908160005416176000553360805260015416176001556040516129a99081620004898239608051816106f10152f35b600080fd5b601f909101601f19168101906001600160401b03821190821017620000ae57604052565b634e487b7160e01b600052604160045260246000fd5b6000617a6946148015620003c1575b8015620003b0575b156200022a57604080516001600160401b0392906113d1808201908582118383101762000216578491839162002e32833930815230602082015203019082f09283156200020a576001600160a01b0393841690813b15620002065783516384cf84e160e01b81527fdcb00648ecc90d8bfe92aa8d51061beb0bcb110d274fc4a517e526574233d36b6004820152838160248183875af18015620001fc57620001d3575b5083519161122e80840192831184841017620001bf57918391602093620042038439815203019082f0918215620001b55750501690565b51903d90823e3d90fd5b634e487b7160e01b85526041600452602485fd5b818194929411620001e857845291386200017e565b634e487b7160e01b82526041600452602482fd5b85513d86823e3d90fd5b8280fd5b509051903d90823e3d90fd5b634e487b7160e01b84526041600452602484fd5b50600146148015620003a5575b80156200039a575b80156200038e575b801562000382575b801562000376575b80156200036a575b80156200035e575b801562000352575b156200028d57735553cf6ce25e3f80fad2866f6230346159ecd89c90565b62aa36a74614801562000346575b80156200033a575b80156200032e575b801562000321575b801562000314575b801562000307575b8015620002fa575b620002e257604051633d23e4d160e11b8152600490fd5b738972b6ff413ac04e61e19f07d7f3bd980d0cc32190565b5062aa37dc4614620002cb565b5062066eee4614620002c3565b5062014a344614620002bb565b50620138824614620002b3565b5061e7054614620002ab565b506112c14614620002a3565b5061012c46146200029b565b5061e70846146200026f565b5061a4ba461462000267565b5061a4b146146200025f565b50612105461462000257565b506101e046146200024f565b50610144461462000247565b50608946146200023f565b50600a461462000237565b50620003bb620003ce565b620000db565b50620499194614620000d3565b60008080808073f4e4fdca9d5d55e64525e314391996a15f7ec61e5afa3d156200047f573d906001600160401b0382116200046b57604051916200041d601f8201601f1916602001846200008a565b82523d83602084013e5b15801562000461575b6200045d5760208180518101031262000459576020015190811515820362000456575090565b80fd5b5080fd5b5090565b5080511562000430565b634e487b7160e01b83526041600452602483fd5b6060906200042756fe6080604052600436101561001257600080fd5b60003560e01c806307763ec3146117945780631a47767b1461175757806326bbe08f146116485780632b093f40146115a95780632b7ac3f31461161f57806332a8f30f146115f65780633799c6b3146115a95780633cd03cd11461026c57806344b9fe8b1461151157806369839b66146114f35780637ea8797e146113fb57806381a29457146113bb57806389d66be314610fc35780638a5a2dc01461096c5780639b8b30c8146106c55780639f42af6314610204578063a4f424681461058b578063b36b8a99146103f7578063c46ccefb1461031f578063c891091314610298578063f458d91f1461026c578063f825f143146102045763ffc9896b1461011957600080fd5b346101ff576020806003193601126101ff5760a090610136611823565b60006080604051610146816118f3565b6060815282858201528260408201528260608201520152600180841b038091166000526002825260406000209160405192610180846118f3565b61018981611bff565b84528260018201541692828501938452600282015490604086019182526101df60ff600460038601549560608a0196875201541694608088019515158652604051988998828a52519189015260c0880190611b4e565b945116604086015251606085015251608084015251151560a08301520390f35b600080fd5b346101ff5760203660031901126101ff576004356001600160401b0381116101ff576102366020913690600401611a4e565b8161024a6040519283815193849201611b2b565b600590820190815281900382019020546040516001600160a01b039091168152f35b346101ff5760203660031901126101ff5760043560005260076020526020604060002054604051908152f35b346101ff5760203660031901126101ff576103046001600160a01b03806102bd611823565b16600052600260205260406000206102d481611bff565b916001820154169060028101549060ff60046003830154920154169160405195869560a0875260a0870190611b4e565b93602086015260408501526060840152151560808301520390f35b346101ff5760603660031901126101ff57610338611823565b6044359060018060a01b03166000526003602052604060002060243560005260205260406000209081548110156101ff5761037291611ba9565b5080546103f361038460018401611bff565b9261039160028201611bff565b60ff600383015416916103d96103ae600560048401549301611bff565b926103cb604051988998895260c060208a015260c0890190611b4e565b908782036040890152611b4e565b9215156060860152608085015283820360a0850152611b4e565b0390f35b346101ff5760403660031901126101ff576001600160a01b03610418611823565b166000526003602060038152604060002060243560005281526040600020805461044181611a95565b9361044f60405195866119aa565b81855260009283528383208486019391845b84841061051857604080518881528951818a01819052600092600582901b83018101918a918c9085015b8287106104985785850386f35b909192938280610508600193603f198a820301865288516104df6104cd60c08351855286840151908088870152850190611b4e565b60408301518482036040860152611b4e565b916060808301511515908201526080808301519082015260a08092015191818403910152611b4e565b960192019601959291909261048b565b60068760019260409a999a5161052d816118d8565b8654815261053c858801611bff565b8382015261054c60028801611bff565b604082015260ff8688015416151560608201526004870154608082015261057560058801611bff565b60a0820152815201930193019291969596610461565b346101ff576020806003193601126101ff576001600160a01b03806105ae611823565b1680600052600283526040600020906040516105c9816118f3565b6105d283611bff565b815260019360018401541685820152600283015493604082019485526003840154926060830193845260ff60048196015416151560808401526040519461016086018681106001600160401b038211176106af57604052600a91600a8752610140368a89013760005b83811061067d57610667896103f38c8b8b8b519451905190604051968796608088526080880190611b4e565b9386015260408501528382036060850152611b73565b84908260005260048b526040600020816000528b5283604060002054166106a4828b611ce6565b90151590520161063b565b634e487b7160e01b600052604160045260246000fd5b346101ff576020806003193601126101ff576004356001600160a01b0381811692918390036101ff57807f000000000000000000000000000000000000000000000000000000000000000016330361091d57617a6946148015610911575b8015610903575b801561087c575b1561081157604051631feb379160e11b81528281600481875afa908115610805576000916107cf575b50161561077a57506001600160601b0360a01b6000541617600055600080f35b6084906040519062461bcd60e51b82526004820152602860248201527f56657269666965722773207265706f7369746f72792061646472657373206973604482015267081b9bdd081cd95d60c21b6064820152fd5b90508281813d83116107fe575b6107e681836119aa565b810103126101ff575181811681036101ff578461075a565b503d6107dc565b6040513d6000823e3d90fd5b60405162461bcd60e51b815260048101839052603760248201527f4368616e67696e6720766572696669657273206973206f6e6c7920616c6c6f7760448201527f6564206f6e206465766e6574206f7220746573746e65740000000000000000006064820152608490fd5b5062aa36a7461480156108f8575b80156108ed575b80156108e2575b80156108d6575b80156108ca575b80156108be575b80610731575062aa37dc4614610731565b5062066eee46146108ad565b5062014a3446146108a6565b5062013882461461089f565b5061e7054614610898565b506112c14614610891565b5061012c461461088a565b5061090c6128e6565b61072a565b50620499194614610723565b60405162461bcd60e51b815260048101839052602160248201527f4f6e6c79206465706c6f7965722063616e206368616e676520766572696669656044820152603960f91b6064820152608490fd5b346101ff576102e03660031901126101ff576102203660031901126101ff57610224356001600160401b0381116101ff57366023820112156101ff5780600401356109b681611a95565b916109c460405193846119aa565b8183526024602084019260051b820101903682116101ff57602401915b818310610faa5783610244356001600160401b0381116101ff57610a09903690600401611aac565b610a11611839565b6001600160401b0361028435116101ff57366023610284350112156101ff57610a406102843560040135611a95565b610a4d60405191826119aa565b6102843560040135815260208101366024610284356004013560051b610284350101116101ff5760246102843501905b6024610284356004013560051b6102843501018210610f9a5750506102a4356001600160401b0381116101ff57610ab8903690600401611a4e565b916102c4356001600160401b0381116101ff57610ad9903690600401611aac565b9260018060a01b036001541690610aee612845565b50366004116101ff57604051610b038161190e565b6101403660031901126101ff57604051610b1c81611929565b610b246128b7565b815236604312156101ff57604051610b3b81611957565b8036610124116101ff576024905b6101248210610f8a575050602082015260026101243510156101ff57610124356040820152815261014435602082015261016435604082015260a0610183193601126101ff57604051610b9b816118f3565b610ba3611850565b8152610bad6128ce565b60208201526101c43560408201526101e43560608201526102043560808201526060820152610bdf6040820151611cd6565b609f198101908111610f6557610bf490612138565b36610224116101ff57610c06366119e6565b81610224116101ff573682116101ff57610cbf600091610c2e60209436906102231901611a14565b610c36612845565b50610cae85610c43612845565b9260405190610c558383018096612148565b6102208252610c6382611973565b604051948592610c8f85610c808187019a8b815193849201611b2b565b85019151809387840190611b2b565b01610ca282518093868085019101611b2b565b010380845201826119aa565b604051928392839251928391611b2b565b8101039060025afa15610805576000519260018060a01b036000541690813b156101ff57600092610d0a9261028492604051978895869463c4fa74e560e01b86526004860190612148565b61022484015261024483015263914332fd60e01b6102648301525afa91821561080557610d7892610f7b575b50610d4b6001600160a01b0384161515611d09565b610d5884518851146120f4565b610d6584518651146120f4565b610d7284518751146120f4565b82612292565b60009260005b8351811015610ec457610e27610d948286611ce6565b51610da8610da28488611ce6565b51612757565b610db28486611ce6565b51610dbd858c611ce6565b51151590610dcb868c611ce6565b519260405194610dda866118d8565b855260208501526040840152606083015242608083015260a082015260018060a01b03851660005260036020526040600020610e168488611ce6565b516000526020526040600020611d55565b610e74610e348289611ce6565b51151560018060a01b03851660005260046020526040600020610e578488611ce6565b5160005260205260406000209060ff801983541691151516179055565b610e7e8188611ce6565b51610e8c575b600101610d7e565b93610e98600191611cfa565b94610ea38186611ce6565b5160005260076020526040600020610ebb8154611cfa565b90559050610e84565b5050925060018060a01b038316600052600260205260026040600020018054928301809311610f65577f839af8c5b044a7fb10a2e0208d082eec379416368c06e6a07d55026f207a5bf993610f4793610f60925560018060a01b0381166000526002602052426003604060002001556040519384936040855260408501906118a4565b83810360208501526001600160a01b0390911695611b73565b0390a2005b634e487b7160e01b600052601160045260246000fd5b610f8490611944565b87610d36565b8135815260209182019101610b49565b8135815260209182019101610a7d565b823580151581036101ff578152602092830192016109e1565b346101ff5736600319016102e081126101ff576102208082126101ff5761022435151561022435036101ff57610244906001600160401b0382358181116101ff57611012903690600401611a4e565b9161101b611839565b93610284956102a4358481116101ff57611039903690600401611a4e565b936102c4359081116101ff57611053903690600401611a4e565b9260018060a01b036001541690611068612845565b50366004116101ff57610140604051936110818561190e565b126101ff5760405161109281611929565b61109a6128b7565b815236604312156101ff576040516110b181611957565b80610124913683116101ff576024905b8382106113ab57505060208301523560028110156101ff57604082015283526101443560208401526040830161016435815260a0610183193601126101ff5761114d90604051611110816118f3565b611118611850565b81526111226128ce565b60208201526101c43560408201526101e4356060820152610204356080820152606086015251611cd6565b80609f19810111610f655761116590609f1901612138565b9036610224116101ff57611178366119e6565b9180610224116101ff573681116101ff57602092600092610cae856111a66111d59536906102231901611a14565b926111af612845565b506111b8612845565b93604051916111ca8484018097612148565b8252610c6382611973565b8101039060025afa15610805576000519260018060a01b036000541692833b156101ff5760009361121e938b93604051978896879563c4fa74e560e01b87526004870190612148565b610224850152830152637a17303760e11b6102648301525afa9384156108055761128c61134c946112e9937f5b04d8a5d2694bae6df2d1945d8b161395ed37377afcd5a34a36e48f876be77d9761139c575b506001600160a01b03881697611287891515611d09565b612292565b6112968735612757565b90604051916112a4836118d8565b883583526020830152836040830152610224351515606083015242608083015260a0820152856000526003602052604060002087356000526020526040600020611d55565b8360005260046020526040600020853560005260205261131c6102243560406000209060ff801983541691151516179055565b6102243561135f575b83600052600260205242600360406000200155604051918291604083526040830190611b4e565b94610224351515602083015235940390a3005b836000526002602052600260406000200161137a8154611cfa565b90558435600052600760205260406000206113958154611cfa565b9055611325565b6113a590611944565b89611270565b81358152602091820191016110c1565b346101ff5760203660031901126101ff576001600160a01b036113dc611823565b166000908152600260205260409020600401805460ff19166001179055005b346101ff576020806003193601126101ff576004359060065461141d81611ca4565b9260009260005b83811061147f57858561143681611ca4565b9160005b82811061145757604051602080825281906103f390820187611867565b6001906001600160a01b0361146c8285611ce6565b51166114788287611ce6565b520161143a565b611488816117d6565b60018060a01b03809254600392831b1c1660005260048452604060002085600052845260ff604060002054166114c3575b5050600101611424565b956114eb9183976114d56001956117d6565b9054911b1c166114e5828a611ce6565b52611cfa565b9490876114b9565b346101ff5760003660031901126101ff576020600654604051908152f35b346101ff5760003660031901126101ff57604051806006549182815260208091019260066000527ff652222313e28459528d920b65115c16c04f3efc82aaedc97be59f3f377c0d3f916000905b828210611589576103f385611575818903826119aa565b604051918291602083526020830190611867565b83546001600160a01b03168652948501946001938401939091019061155e565b346101ff5760403660031901126101ff576001600160a01b036115ca611823565b1660005260046020526040600020602435600052602052602060ff604060002054166040519015158152f35b346101ff5760003660031901126101ff576001546040516001600160a01b039091168152602090f35b346101ff5760003660031901126101ff576000546040516001600160a01b039091168152602090f35b346101ff576020806003193601126101ff57600654600435818111156117515750805b61167482611ca4565b9161167e81611ca4565b9361168882611ca4565b926000198082019180831160005b8681106116d9576116bd896103f38a6116cb8e604051958695606087526060870190611867565b9085820360208701526118a4565b9083820360408501526118a4565b81610f6557838184030190858211610f6557611715818b6116fb6001956117d6565b93905493600394878060a01b0391861b1c16928392611ce6565b52806000528c61173284600294858d526040600020015492611ce6565b526000528088526040600020015461174a828b611ce6565b5201611696565b9061166b565b346101ff5760203660031901126101ff576001600160a01b03611778611823565b166000908152600260205260409020600401805460ff19169055005b346101ff5760203660031901126101ff576004356006548110156101ff576117bd6020916117d6565b905460405160039290921b1c6001600160a01b03168152f35b60065481101561180d5760066000527ff652222313e28459528d920b65115c16c04f3efc82aaedc97be59f3f377c0d3f0190600090565b634e487b7160e01b600052603260045260246000fd5b600435906001600160a01b03821682036101ff57565b61026435906001600160a01b03821682036101ff57565b61018435906001600160a01b03821682036101ff57565b90815180825260208080930193019160005b828110611887575050505090565b83516001600160a01b031685529381019392810192600101611879565b90815180825260208080930193019160005b8281106118c4575050505090565b8351855293810193928101926001016118b6565b60c081019081106001600160401b038211176106af57604052565b60a081019081106001600160401b038211176106af57604052565b608081019081106001600160401b038211176106af57604052565b606081019081106001600160401b038211176106af57604052565b6001600160401b0381116106af57604052565b61010081019081106001600160401b038211176106af57604052565b61024081019081106001600160401b038211176106af57604052565b604081019081106001600160401b038211176106af57604052565b90601f801991011681019081106001600160401b038211176106af57604052565b6001600160401b0381116106af57601f01601f191660200190565b906040516119f3816118d8565b809260a08252610224116101ff5760c08160a0610184602060009501370152565b9190611a1f836119cb565b90611a2d60405192836119aa565b819380835261022491818301116101ff578281602093846000960137010152565b81601f820112156101ff57803590611a65826119cb565b92611a7360405194856119aa565b828452602083830101116101ff57816000926020809301838601378301015290565b6001600160401b0381116106af5760051b60200190565b81601f820112156101ff57803591602091611ac684611a95565b93611ad460405195866119aa565b808552838086019160051b830101928084116101ff57848301915b848310611aff5750505050505090565b82356001600160401b0381116101ff578691611b2084848094890101611a4e565b815201920191611aef565b60005b838110611b3e5750506000910152565b8181015183820152602001611b2e565b90602091611b6781518092818552858086019101611b2b565b601f01601f1916010190565b90815180825260208080930193019160005b828110611b93575050505090565b8351151585529381019392810192600101611b85565b805482101561180d576000526006602060002091020190600090565b90600182811c92168015611bf5575b6020831014611bdf57565b634e487b7160e01b600052602260045260246000fd5b91607f1691611bd4565b90604051918260008254611c1281611bc5565b90818452602094600191600181169081600014611c825750600114611c43575b505050611c41925003836119aa565b565b600090815285812095935091905b818310611c6a575050611c419350820101388080611c32565b85548884018501529485019487945091830191611c51565b92505050611c4194925060ff191682840152151560051b820101388080611c32565b90611cae82611a95565b611cbb60405191826119aa565b8281528092611ccc601f1991611a95565b0190602036910137565b61021f19810191908211610f6557565b805182101561180d5760209160051b010190565b6000198114610f655760010190565b15611d1057565b60405162461bcd60e51b815260206004820152601760248201527f496e76616c6964206163636f756e7420616464726573730000000000000000006044820152606490fd5b8054600160401b8110156106af57611d74906001928382018155611ba9565b6120de578251815581810190602080850151918251936001600160401b03948581116106af5780611da58354611bc5565b95601f9687811161208a575b5085908783116001146120275760009261201c575b5050600019600383901b1c191690871b1790555b6002810160408701518051908682116106af57611df78354611bc5565b868111611fd6575b508490868311600114611f685791806005949260a09694600092611f5d575b5050600019600383901b1c191690891b1790555b611e5160608901511515600383019060ff801983541691151516179055565b60808801516004820155019501519081519384116106af57611e738654611bc5565b838111611f17575b5080928411600114611eb45750928293918392600094611ea9575b50501b916000199060031b1c1916179055565b015192503880611e96565b919083601f1981168760005284600020946000905b88838310611efd5750505010611ee4575b505050811b019055565b015160001960f88460031b161c19169055388080611eda565b858701518855909601959485019487935090810190611ec9565b86600052816000208480870160051c820192848810611f54575b0160051c019086905b828110611f48575050611e7b565b60008155018690611f3a565b92508192611f31565b015190503880611e1e565b889291601f1983169185600052876000209260005b89828210611fc05750509160a09795939185600598969410611fa7575b505050811b019055611e32565b015160001960f88460031b161c19169055388080611f9a565b8385015186558d97909501949384019301611f7d565b83600052856000208780850160051c820192888610612013575b0160051c019089905b828110612007575050611dff565b60008155018990611ff9565b92508192611ff0565b015190503880611dc6565b90899350601f1983169185600052876000209260005b89828210612074575050841161205b575b505050811b019055611dda565b015160001960f88460031b161c1916905538808061204e565b8385015186558d9790950194938401930161203d565b909150600084600052866000208880860160051c8201938987106120d5575b918c9187969594930160051c01925b8381106120c757505050611db1565b8281558695508c91016120b8565b935081936120a9565b634e487b7160e01b600052600060045260246000fd5b156120fb57565b60405162461bcd60e51b8152602060048201526015602482015274082e4e4c2f240d8cadccee8d040dad2e6dac2e8c6d605b1b6044820152606490fd5b90610224918201809211610f6557565b80519063ffffffff60e01b9182815116845260209081810151828601836000915b600883106121f75750505050604001519260028410156121e15760606080936102009561012088015283810151610140880152604081015161016088015201519160018060a01b03835116610180870152820151166101a085015260408101516101c085015260608101516101e08501520151910152565b634e487b7160e01b600052602160045260246000fd5b908060019285518152019301910190918490612169565b60009291815461221d81611bc5565b92600191808316908115612277575060011461223a575b50505050565b9091929394506000526020906020600020906000915b8583106122665750505050019038808080612234565b805485840152918301918101612250565b60ff1916845250505081151590910201915038808080612234565b9060018060a01b03809216916000908382526020916002835260409182822060ff6004820154161560001461252057508251916122ce836118f3565b85835284830192878452848101908282526060810142815260808201906001938483528b865260028a5288862093518051906001600160401b03821161250c578b6123198754611bc5565b601f81116124c4575b50508b90601f831160011461244a57918061239697969492600496948b9261243f575b5050600019600383901b1c191690881b1785555b888786019a5116996001600160601b0360a01b9a8b82541617905551600285015551600384015551151591019060ff801983541691151516179055565b60065491600160401b83101561242b5750916123df827fb9a56ef3335a4b13b2aa51519b56125ab2316b50d587ad80edfce74fe9a4b7d3989796946124269694016006556117d6565b819291549060031b918a831b921b1916179055868251858188516124068183858d01611b2b565b810160058152030190209182541617905551928284938452830190611b4e565b0390a2565b634e487b7160e01b81526041600452602490fd5b015190503880612345565b8792918d91601f198416898c52838c20938c905b8282106124a357505091600497959391856123969b9a9896941061248a575b505050811b018555612359565b015160001960f88460031b161c1916905538808061247d565b91929395968291958786015181550195019301908f918b969594939261245e565b878a52818a2090601f850160051c8201928510612502575b601f0160051c019088905b8281106124f757508d9150612322565b8a81550188906124e7565b90915081906124dc565b634e487b7160e01b88526041600452602488fd5b91905082519182612534868201809361220e565b0392612548601f19948581018352826119aa565b5190208351908582018751926125758882818c019661256881878a611b2b565b81010380845201826119aa565b51902003612587575b50505050505050565b86825260028552866125d0866125a58188872089519283809261220e565b6005815203019020936001600160601b0360a01b948581541690558751809381928c51928391611b2b565b810160058152030190209182541617905585815260028452828120918551916001600160401b03831161242b576126078454611bc5565b601f8111612714575b508591601f841160011461268e5750918061267494927fc7857cb441635f0ed48b7f63af55142a15005f6b29e24414c3b4a20b2859b08f9897969491612683575b508160011b916000199060031b1c19161790555b51928284938452830190611b4e565b0390a23880808080808061257e565b905086015138612651565b8392919216848352868320925b8181106126fd5750926126749492600192827fc7857cb441635f0ed48b7f63af55142a15005f6b29e24414c3b4a20b2859b08f9a999896106126e4575b5050811b019055612665565b88015160001960f88460031b161c1916905538806126d8565b91928760018192868c01518155019401920161269b565b848252868220601f850160051c81019188861061274d575b601f0160051c01905b8181106127425750612610565b828155600101612735565b909150819061272c565b801561281457600181146127ec57600281146127c65760031461279e576040516127808161198f565b600e81526d2ab735b737bbb71020b1ba34b7b760911b602082015290565b6040516127aa8161198f565b600c81526b14995d1dd9595d08141bdcdd60a21b602082015290565b506040516127d38161198f565b6009815268131a5ad948141bdcdd60ba1b602082015290565b506040516127f98161198f565b600b81526a2337b63637bb902ab9b2b960a91b602082015290565b506040516128218161198f565b6014815273283937b334b632902b32b934b334b1b0ba34b7b760611b602082015290565b6040908151916128548361190e565b606083825161286281611929565b600090818152845161287381611957565b61010036823760208201528185820152825280602083015280848301528084519461289d866118f3565b818652816020870152850152808385015260808401520152565b600435906001600160e01b0319821682036101ff57565b6101a435906001600160e01b0319821682036101ff57565b60008080808073f4e4fdca9d5d55e64525e314391996a15f7ec61e5afa3d1561296b573d90612914826119cb565b9161292260405193846119aa565b82523d83602084013e5b158015612962575b61295e5760208180518101031261295a5760200151908115158203612957575090565b80fd5b5080fd5b5090565b50805115612934565b60609061292c56fea2646970667358221220f97f115c761988bd52d251f8065b8f31dfb5bae10bcb5eb410352fca62004c9e64736f6c634300081700336080346200012957601f620013d138819003918201601f19168301916001600160401b038311848410176200012e57808492604094855283398101031262000129576200005a6020620000528362000144565b920162000144565b90620000668162000159565b620000e3575b506200007881620001d9565b6200008e575b6040516110999081620002f88239f35b600080516020620013b18339815191526000526001602052620000db906001600160a01b03167fe05121899e4c04c40b7e0a2a39dcba2d093af16d5fdca78c38e106d157d2aad36200026a565b50386200007e565b60008052600160205262000121906001600160a01b03167fa6eef7e35abe7026729641147f7915573c7e97b47efa546f5f6e3230263bcb496200026a565b50386200006c565b600080fd5b634e487b7160e01b600052604160045260246000fd5b51906001600160a01b03821682036200012957565b6001600160a01b031660008181527fad3228b676f7d3cd4284a5443f17f1962b36e491b30a40b2405849e597ba5fb5602052604081205490919060ff16620001d557818052816020526040822081835260205260408220600160ff198254161790553391600080516020620013918339815191528180a4600190565b5090565b6001600160a01b031660008181527fd329ff8a035c3ce5df2b0dae604d660c0d8783bf7e64be00c1d10db96c0b87b46020526040812054909190600080516020620013b18339815191529060ff166200026557808352826020526040832082845260205260408320600160ff1982541617905560008051602062001391833981519152339380a4600190565b505090565b91906001830160009082825280602052604082205415600014620002f15784549468010000000000000000861015620002dd5760018601808255861015620002c957836040949596828552602085200155549382526020522055600190565b634e487b7160e01b83526032600452602483fd5b634e487b7160e01b83526041600452602483fd5b5092505056fe608060408181526004908136101561001657600080fd5b600092833560e01c90816301ffc9a714610894575080631af6c43114610867578063248a9ca31461083d5780632505a3bd146108105780632ad82eea146107905780632f2ff15d1461072557806336568abe146106de578063755e936f1461065f57806381e4c9a31461063157806384cf84e11461057c578063853b5d19146104f95780639010d07c146104b857806391d1485414610472578063a217fddf14610457578063ada8f919146103cc578063c5df91b51461030f578063ca0d53581461028d578063ca15c87314610265578063d547741f14610228578063e58378bb146101fb5763f2fde38b1461010b57600080fd5b346101f757602091826003193601126101f3576101266109b0565b916000805160206110448339815191529182865260018552818620908154156101e05750855283852054828652858552818620600101546001600160a01b03939184169061017390610afd565b61017c81610d8d565b6101c6575b5080865285855261019760018388200154610afd565b6101a084610bea565b6101a8578580f35b6101bc946001918752528420911690610ec9565b5038808080808580f35b6101d99082885260018752838820610f53565b5038610181565b634e487b7160e01b875260329052602486fd5b8380fd5b8280fd5b838234610224578160031936011261022457602090516000805160206110448339815191528152f35b5080fd5b50346101f757806003193601126101f757610261913561025c600161024b61099a565b938387528660205286200154610afd565b610b23565b5080f35b5090346101f75760203660031901126101f75760209282913581526001845220549051908152f35b50346101f7577f69c40cdda8ad6e074bf320a4a76804a6652eb5231bda91b690dcb98010b27079906102be36610902565b926102c7610a95565b83516020850120808652816020526102e460ff8488205416610a49565b855260205280842060ff19815416905551602081528061030933946020830190610a09565b0390a280f35b50346101f75760203660031901126101f75781359161032c610a95565b828452600360205260ff8285205416156103805750816020917f4072861add20da436ef0a8274b90d102aea17b603f972cc8196d51f1a5d561799385526003835280852060ff19815416905551908152a180f35b6020608492519162461bcd60e51b8352820152602160248201527f43616e6e6f74207265766f6b6520756e737570706f7274656420496d616765496044820152601160fa1b6064820152fd5b838234610224576020366003190112610224576103e76109b0565b828052826020526103fd60018385200154610afd565b61040681610b5e565b610432575b5061041533610d03565b61041d575080f35b61026190828052600160205233908320610f53565b8280526001602052818320610450916001600160a01b031690610ec9565b508261040b565b83823461022457816003193601126102245751908152602090f35b5090346101f757816003193601126101f7578160209360ff9261049361099a565b903582528186528282206001600160a01b039091168252855220549151911615158152f35b5090346101f757816003193601126101f7576020926104e39135815260018452826024359120610e9b565b905491519160018060a01b039160031b1c168152f35b838234610224577f0a249d4766726d36cb6d6ac22cf998dc9fc02bb4ff9fda73ec1e3061c8a1db0961052a36610902565b91610533610a95565b82516020840120808552600260205261055260ff8387205416156109c6565b84526002602052808420600160ff1982541617905551602081528061030933946020830190610a09565b50346101f75760203660031901126101f757813591610599610a95565b828452600360205260ff82852054166105ef5750816020917f010120d82c0c66b257c0ea628d405b1d3c2d37bb8dd9141f6c5c12cb0375c57293855260038352808520600160ff1982541617905551908152a180f35b6020606492519162461bcd60e51b8352820152601c60248201527f496d616765494420697320616c726561647920737570706f72746564000000006044820152fd5b8382346102245760ff8160209361064736610902565b85815191012081526002855220541690519015158152f35b838234610224577f66e43f8252a3257fe010a4fd6ae50f57624762cc64a6eceadb04b18cfdefac7d61069036610902565b91610699610a95565b8251602084012080855260026020526106b760ff8387205416610a49565b8452600260205280842060ff19815416905551602081528061030933946020830190610a09565b508290346102245780600319360112610224576106f961099a565b90336001600160a01b038316036107165750610261919235610b23565b5163334bd91960e11b81528390fd5b5090346101f757816003193601126101f757359061074161099a565b908284528360205261075860018286200154610afd565b6107628284610c8a565b61076a578380f35b9183526001602052908220610788916001600160a01b031690610ec9565b503880808380f35b50346101f7577fcbfa55581c230aeb174d969838d927cdd297755dfb967a33134312f1377ee71d906107c136610902565b926107ca610a95565b83516020850120808652816020526107e860ff8488205416156109c6565b8552602052808420600160ff1982541617905551602081528061030933946020830190610a09565b5090346101f7578160209360ff9261082736610902565b8681519101208252855220541690519015158152f35b5090346101f75760203660031901126101f757816020936001923581528085522001549051908152f35b5090346101f75760203660031901126101f7578160209360ff923581526003855220541690519015158152f35b849084346101f75760203660031901126101f7573563ffffffff60e01b81168091036101f75760209250635a05180f60e01b81149081156108d7575b5015158152f35b637965db0b60e01b8114915081156108f1575b50836108d0565b6301ffc9a760e01b149050836108ea565b602060031982011261097f5767ffffffffffffffff9060043582811161097f578160238201121561097f578060040135918383116109845760405193601f8401601f19908116603f0116850190811185821017610984576040528284526024838301011161097f5781600092602460209301838601378301015290565b600080fd5b634e487b7160e01b600052604160045260246000fd5b602435906001600160a01b038216820361097f57565b600435906001600160a01b038216820361097f57565b156109cd57565b60405162461bcd60e51b815260206004820152601460248201527312d95e481a5cc8185b1c9958591e481d985b1a5960621b6044820152606490fd5b919082519283825260005b848110610a35575050826000602080949584010152601f8019910116010190565b602081830181015184830182015201610a14565b15610a5057565b60405162461bcd60e51b815260206004820152601960248201527f43616e6e6f74207265766f6b6520696e76616c6964206b6579000000000000006044820152606490fd5b3360009081527fd329ff8a035c3ce5df2b0dae604d660c0d8783bf7e64be00c1d10db96c0b87b460205260409020546000805160206110448339815191529060ff1615610adf5750565b6044906040519063e2517d3f60e01b82523360048301526024820152fd5b80600052600060205260406000203360005260205260ff6040600020541615610adf5750565b610b2d8282610e26565b9182610b3857505090565b600091825260016020526040909120610b5a916001600160a01b031690610f53565b5090565b6001600160a01b031660008181527fad3228b676f7d3cd4284a5443f17f1962b36e491b30a40b2405849e597ba5fb5602052604081205490919060ff16610b5a57818052816020526040822081835260205260408220600160ff1982541617905533917f2f8788117e7eff1d82e926ec794901d17c78024a50270940304540a733656f0d8180a4600190565b6001600160a01b031660008181527fd329ff8a035c3ce5df2b0dae604d660c0d8783bf7e64be00c1d10db96c0b87b460205260408120549091906000805160206110448339815191529060ff16610c8557808352826020526040832082845260205260408320600160ff198254161790557f2f8788117e7eff1d82e926ec794901d17c78024a50270940304540a733656f0d339380a4600190565b505090565b9060009180835282602052604083209160018060a01b03169182845260205260ff60408420541615600014610c8557808352826020526040832082845260205260408320600160ff198254161790557f2f8788117e7eff1d82e926ec794901d17c78024a50270940304540a733656f0d339380a4600190565b6001600160a01b031660008181527fad3228b676f7d3cd4284a5443f17f1962b36e491b30a40b2405849e597ba5fb5602052604081205490919060ff1615610b5a5781805281602052604082208183526020526040822060ff19815416905533917ff6391f5c32d9c69d2a47ea670b442974b53935d1edc7fd64eb21e047a839171b8180a4600190565b6001600160a01b031660008181527fd329ff8a035c3ce5df2b0dae604d660c0d8783bf7e64be00c1d10db96c0b87b460205260408120549091906000805160206110448339815191529060ff1615610c855780835282602052604083208284526020526040832060ff1981541690557ff6391f5c32d9c69d2a47ea670b442974b53935d1edc7fd64eb21e047a839171b339380a4600190565b9060009180835282602052604083209160018060a01b03169182845260205260ff604084205416600014610c855780835282602052604083208284526020526040832060ff1981541690557ff6391f5c32d9c69d2a47ea670b442974b53935d1edc7fd64eb21e047a839171b339380a4600190565b8054821015610eb35760005260206000200190600090565b634e487b7160e01b600052603260045260246000fd5b91906001830160009082825280602052604082205415600014610f4d5784549468010000000000000000861015610f395783610f29610f12886001604098999a01855584610e9b565b819391549060031b91821b91600019901b19161790565b9055549382526020522055600190565b634e487b7160e01b83526041600452602483fd5b50925050565b9060018201906000928184528260205260408420549081151560001461103c57600019918083018181116110285782549084820191821161101457818103610fdf575b50505080548015610fcb57820191610fae8383610e9b565b909182549160031b1b191690555582526020526040812055600190565b634e487b7160e01b86526031600452602486fd5b610fff610fef610f129386610e9b565b90549060031b1c92839286610e9b565b90558652846020526040862055388080610f96565b634e487b7160e01b88526011600452602488fd5b634e487b7160e01b87526011600452602487fd5b505050509056feb19546dff01e856fb3f010c267a7b1c60363cf8a4664e21cc89c26224620214ea2646970667358221220b9674104f4e1847dcdd187e42b32ed18bf3a44ce0a552ea7bfd2e75be02a9b2564736f6c634300081700332f8788117e7eff1d82e926ec794901d17c78024a50270940304540a733656f0db19546dff01e856fb3f010c267a7b1c60363cf8a4664e21cc89c26224620214e60e03461019d576001600160401b0390601f61122e38819003918201601f19168301918483118484101761011f5780849260209460405283398101031261019d57516001600160a01b039190828116810361019d5760c052600146148015610193575b8015610189575b801561017e575b8015610173575b8015610168575b801561015d575b8015610152575b8015610147575b610135576040519061076a8083019182118383101761011f576020918391610ac4833963deafbeef60e01b81520301906000f08015610113571660a052600160805260405161092190816101a3823960805181818160c901526105d5015260a0518181816101bb0152610633015260c05181818161017f01526106780152f35b6040513d6000823e3d90fd5b634e487b7160e01b600052604160045260246000fd5b604051633d23e4d160e11b8152600490fd5b5061e7084614610093565b5061a4ba461461008c565b5061a4b14614610085565b50612105461461007e565b506101e04614610077565b506101444614610070565b5060894614610069565b50600a4614610062565b600080fdfe6080604081815260048036101561001557600080fd5b600091823560e01c93846308c84e701461061f575083633fd66f221461005d5783639a44ea84146105c1578363c4fa74e5146100625750505063f4cbae941461005d57600080fd5b610662565b346105bd57366003190161028081126105b95761022081126105b9576001600160a01b0361024435818116949192908590036105b5576001600160e01b031961026435818116969087900361030357856100bb366106fb565b51015160028110156105a2577f000000000000000000000000000000000000000000000000000000000000000090600282101561058f570361055757610100366106fb565b9060608201908682515116036105235760209783898351015116036104ed57868151015146036104b75760608151015143111561046457606081510151610100810180911161045157431161040257516060608082015191015140036103ca5786015193855194631af6c43160e01b86528486015260249487818781857f0000000000000000000000000000000000000000000000000000000000000000165afa9081156103c057899161035d575b501561031b57610140907f00000000000000000000000000000000000000000000000000000000000000001692126102ff578451906101ed826106ac565b8335908116810361030357815236604312156102ff57845161020e816106de565b8061012491368311610317578887915b8483106103075750905083015235906002821015610303576102439186820152610825565b813b156102ff57948691855196879263ab750e7560e01b8452606086850152815191826064860152855b8381106102e5575050506084838286838395840101526101443589830152610224356044830152601f801991011681010301915afa80156102db576102b0578480f35b67ffffffffffffffff84116102ca57505052818080808480f35b634e487b7160e01b85526041905283fd5b83513d87823e3d90fd5b8181018301518b8201608401528b96508a9550820161026d565b8680fd5b8780fd5b82358152918101918a910161021e565b8980fd5b855162461bcd60e51b81528085018890526017818701527f556e737570706f727465642043616c6c477565737449640000000000000000006044820152606490fd5b9050873d89116103b9575b601f8101601f1916820167ffffffffffffffff8111838210176103a757899183918a52810103126103a3575180151581036103a357896101af565b8880fd5b634e487b7160e01b8b5260418752878bfd5b503d610368565b87513d8b823e3d90fd5b855162461bcd60e51b81528085018890526012602482015271092dcecc2d8d2c840c4d8dec6d640d0c2e6d60731b6044820152606490fd5b865162461bcd60e51b8152808601899052602360248201527f496e76616c696420626c6f636b206e756d6265723a20626c6f636b20746f6f206044820152621bdb1960ea1b6064820152608490fd5b634e487b7160e01b8a526011865260248afd5b865162461bcd60e51b8152808601899052602760248201527f496e76616c696420626c6f636b206e756d6265723a20626c6f636b2066726f6d6044820152662066757475726560c81b6064820152608490fd5b865162461bcd60e51b8152808601899052601060248201526f125b9d985b1a590818da185a5b881a5960821b6044820152606490fd5b865162461bcd60e51b8152808601899052601060248201526f24b73b30b634b21039b2b632b1ba37b960811b6044820152606490fd5b865162461bcd60e51b8152602081870152600e60248201526d24b73b30b634b210383937bb32b960911b6044820152606490fd5b855162461bcd60e51b81526020818601526012602482015271496e76616c69642070726f6f66206d6f646560701b6044820152606490fd5b634e487b7160e01b8a526021865260248afd5b634e487b7160e01b895260218552602489fd5b8580fd5b8380fd5b8280fd5b82903461061b578160031936011261061b577f0000000000000000000000000000000000000000000000000000000000000000905191600282101561060857602083838152f35b634e487b7160e01b815260218452602490fd5b5080fd5b83903461061b578160031936011261061b577f00000000000000000000000000000000000000000000000000000000000000006001600160a01b03168152602090f35b346106a75760003660031901126106a7576040517f00000000000000000000000000000000000000000000000000000000000000006001600160a01b03168152602090f35b600080fd5b6060810190811067ffffffffffffffff8211176106c857604052565b634e487b7160e01b600052604160045260246000fd5b610100810190811067ffffffffffffffff8211176106c857604052565b6003198101919061022083126106a7576040805167ffffffffffffffff929160808201848111838210176106c8578082526101408397126106a75761073f816106ac565b6001600160e01b03199360043585811681036106a757825280604312156106a757825161076b816106de565b80610124918383116106a7576024905b83821061081557505060a0860152359160028310156106a75760a09260c0860152845261014435602085015261016435838501526101831901126106a75780519360a08501908111858210176106c8578152610184356001600160a01b03811681036106a75784526101a43592831683036106a75760609260208501526101c435908401526101e435828401526102043560808401520152565b813581526020918201910161077b565b604081015160028110156108d557600190810361086e57506020810151519063ffffffff60e01b9051169060405191602083015260248201526024815261086b816106ac565b90565b81516020928301516040516001600160e01b03199092168285015290926000602485015b600882106108c25750505050506101048152610140810181811067ffffffffffffffff8211176106c85760405290565b8351815292820192908401908201610892565b634e487b7160e01b600052602160045260246000fdfea26469706673582212206ca5e6238303ba00ba76cd1947d473e8fcbd579863dec5707d952fe9c9fc864464736f6c6343000817003360a03461007957601f61076a38819003918201601f19168301916001600160401b0383118484101761007e5780849260209460405283398101031261007957516001600160e01b031981168103610079576080526040516106d5908161009582396080518181816101be015281816102c401526103440152f35b600080fd5b634e487b7160e01b600052604160045260246000fdfe60808060405260048036101561001457600080fd5b600091823560e01c908163053c238d146101aa575080631599ead51461013a5780633a115bb11461011a57806366cf0e4b146100cf5763ab750e751461005957600080fd5b346100cb5760603660031901126100cb57803567ffffffffffffffff918282116100c757366023830112156100c7578101359182116100c35736602483830101116100c3576100c09160246100b96100b4604435833561044a565b61057f565b920161032d565b80f35b8280fd5b8380fd5b5080fd5b509034610117576040366003190112610117576101136101076101026100b4856100f761029c565b50602435903561044a565b6102b6565b60405191829182610211565b0390f35b80fd5b5090346101175760203660031901126101175761011361010783356102b6565b50346100cb576003196020368201126100c35781359167ffffffffffffffff918284116101a6576040843603918201126101a6578184013590602219018112156101a6578301908101359182116100c7576024019080360382136100c75760246100c09301359161032d565b8480fd5b8390346100cb57816003193601126100cb577f00000000000000000000000000000000000000000000000000000000000000006001600160e01b0319168152602090f35b60005b8381106102015750506000910152565b81810151838201526020016101f1565b60809160208252602081519160408285015261023b835180948160608801528488880191016101ee565b01516040830152601f01601f1916010190565b6040810190811067ffffffffffffffff82111761026a57604052565b634e487b7160e01b600052604160045260246000fd5b60a0810190811067ffffffffffffffff82111761026a57604052565b604051906102a98261024e565b6000602083606081520152565b6102be61029c565b506040517f00000000000000000000000000000000000000000000000000000000000000006001600160e01b03191660208201526024808201839052815260608101919067ffffffffffffffff83118184101761026a57608090836040526103258461024e565b808452015290565b91906004928184116103fe576001600160e01b03197f000000000000000000000000000000000000000000000000000000000000000081169082351680820361042d575050600319820167ffffffffffffffff918282116104185760405192601b8501601f19908116603f011684019081118482101761040357604052818352602083019336818301116103fe5760009287601c93018637830101525190209060405160208101918252602081526103e48161024e565b519020036103ef5750565b60405163439cc0cd60e01b8152fd5b600080fd5b604187634e487b7160e01b6000525260246000fd5b604186634e487b7160e01b6000525260246000fd5b604491869160405192632e2ce35360e21b84528301526024820152fd5b90604080519161045983610280565b600091828452826080602095828782015283516104758161024e565b83815283888201528482015282606082015201528051916104958361024e565b83835283858401528151906104a98261024e565b81528481018481528585600c85516b1c9a5cd8cc0b93dd5d1c1d5d60a21b815260025afa156105755761051886928692835191519051865191868301938452878301526060820152600160f91b60808201526062815261050881610280565b85519283928392519283916101ee565b8101039060025afa1561056a577fa3acc27117418996340b84e5a90f3ef4c49d22c79e44aad822ec9c313e1eb8e283519482519661055588610280565b87528601528401526060830152608082015290565b51913d9150823e3d90fd5b82513d86823e3d90fd5b601290604090602082517172697363302e52656365697074436c61696d60701b8152600094859160025afa15610694578251906060810151908051602082015191856080820151910192835151936003851015610680576020905101519287519560208701978852888701526060860152608085015260a084015260ff60f81b809260f81b1660c084015260f81b1660c4820152600160fa1b60c882015260aa815260e081019181831067ffffffffffffffff84111761066c579184918161065060209582885283519283916101ee565b8101039060025afa1561066257505190565b51903d90823e3d90fd5b634e487b7160e01b85526041600452602485fd5b634e487b7160e01b89526021600452602489fd5b5051903d90823e3d90fdfea26469706673582212205020395fc08ab57721c2d6f7c0911db64c7206e1ccb04de883fdd0e41b3e968064736f6c63430008170033","linkReferences":{}},"methodIdentifiers":{"_setTestVerifier(address)":"9b8b30c8","actionVerificationCounts(uint256)":"3cd03cd1","deactivateUser(address)":"1a47767b","getActionVerificationCount(uint256)":"f458d91f","getAllVerifiedUsers()":"44b9fe8b","getRecentActivity(uint256)":"26bbe08f","getUserActionHistory(address,uint256)":"b36b8a99","getUserActionStatus(address,uint256)":"2b093f40","getUserActionSummary(address)":"a4f42468","getUserByUsername(string)":"9f42af63","getUserData(address)":"ffc9896b","getUsersWithAction(uint256)":"7ea8797e","getVerifiedUsersCount()":"69839b66","prover()":"32a8f30f","reactivateUser(address)":"81a29457","userActionHistory(address,uint256,uint256)":"c46ccefb","userActionStatus(address,uint256)":"3799c6b3","userData(address)":"c8910913","usernameToAddress(string)":"f825f143","verifiedUsers(uint256)":"07763ec3","verifier()":"2b7ac3f3","verifyMultipleActions(((bytes4,bytes32[8],uint8),bytes32,uint256,(address,bytes4,uint256,uint256,bytes32)),bool[],string[],address,uint256[],string,string[])":"8a5a2dc0","verifySingleAction(((bytes4,bytes32[8],uint8),bytes32,uint256,(address,bytes4,uint256,uint256,bytes32)),bool,string,address,uint256,string,string)":"89d66be3"},"id":66}