{"abi":[{"type":"constructor","inputs":[],"stateMutability":"nonpayable"},{"type":"function","name":"actionConfigCount","inputs":[],"outputs":[{"name":"","type":"uint256","internalType":"uint256"}],"stateMutability":"view"},{"type":"function","name":"actionConfigs","inputs":[{"name":"","type":"uint256","internalType":"uint256"}],"outputs":[{"name":"actionType","type":"uint8","internalType":"enum DynamicTwitterProver.ActionType"},{"name":"baseUrl","type":"string","internalType":"string"},{"name":"jsonPath","type":"string","internalType":"string"},{"name":"expectedValue","type":"string","internalType":"string"},{"name":"expectedValueIsBool","type":"bool","internalType":"bool"},{"name":"isActive","type":"bool","internalType":"bool"}],"stateMutability":"view"},{"type":"function","name":"addActionConfig","inputs":[{"name":"actionType","type":"uint8","internalType":"enum DynamicTwitterProver.ActionType"},{"name":"baseUrl","type":"string","internalType":"string"},{"name":"jsonPath","type":"string","internalType":"string"},{"name":"expectedValue","type":"string","internalType":"string"},{"name":"expectedValueIsBool","type":"bool","internalType":"bool"}],"outputs":[{"name":"","type":"uint256","internalType":"uint256"}],"stateMutability":"nonpayable"},{"type":"function","name":"getActionConfig","inputs":[{"name":"actionId","type":"uint256","internalType":"uint256"}],"outputs":[{"name":"","type":"tuple","internalType":"struct DynamicTwitterProver.ActionConfig","components":[{"name":"actionType","type":"uint8","internalType":"enum DynamicTwitterProver.ActionType"},{"name":"baseUrl","type":"string","internalType":"string"},{"name":"jsonPath","type":"string","internalType":"string"},{"name":"expectedValue","type":"string","internalType":"string"},{"name":"expectedValueIsBool","type":"bool","internalType":"bool"},{"name":"isActive","type":"bool","internalType":"bool"}]}],"stateMutability":"view"},{"type":"function","name":"getAllActiveActions","inputs":[],"outputs":[{"name":"","type":"uint256[]","internalType":"uint256[]"}],"stateMutability":"view"},{"type":"function","name":"proof","inputs":[],"outputs":[{"name":"","type":"tuple","internalType":"struct Proof","components":[{"name":"seal","type":"tuple","internalType":"struct Seal","components":[{"name":"verifierSelector","type":"bytes4","internalType":"bytes4"},{"name":"seal","type":"bytes32[8]","internalType":"bytes32[8]"},{"name":"mode","type":"uint8","internalType":"enum ProofMode"}]},{"name":"callGuestId","type":"bytes32","internalType":"bytes32"},{"name":"length","type":"uint256","internalType":"uint256"},{"name":"callAssumptions","type":"tuple","internalType":"struct CallAssumptions","components":[{"name":"proverContractAddress","type":"address","internalType":"address"},{"name":"functionSelector","type":"bytes4","internalType":"bytes4"},{"name":"settleChainId","type":"uint256","internalType":"uint256"},{"name":"settleBlockNumber","type":"uint256","internalType":"uint256"},{"name":"settleBlockHash","type":"bytes32","internalType":"bytes32"}]}]}],"stateMutability":"pure"},{"type":"function","name":"setBlock","inputs":[{"name":"blockNo","type":"uint256","internalType":"uint256"}],"outputs":[],"stateMutability":"nonpayable"},{"type":"function","name":"setChain","inputs":[{"name":"chainId","type":"uint256","internalType":"uint256"},{"name":"blockNo","type":"uint256","internalType":"uint256"}],"outputs":[],"stateMutability":"nonpayable"},{"type":"function","name":"toggleActionConfig","inputs":[{"name":"actionId","type":"uint256","internalType":"uint256"}],"outputs":[],"stateMutability":"nonpayable"},{"type":"function","name":"updateActionConfig","inputs":[{"name":"actionId","type":"uint256","internalType":"uint256"},{"name":"baseUrl","type":"string","internalType":"string"},{"name":"jsonPath","type":"string","internalType":"string"},{"name":"expectedValue","type":"string","internalType":"string"},{"name":"expectedValueIsBool","type":"bool","internalType":"bool"},{"name":"isActive","type":"bool","internalType":"bool"}],"outputs":[],"stateMutability":"nonpayable"},{"type":"function","name":"verifyAction","inputs":[{"name":"webProof","type":"tuple","internalType":"struct WebProof","components":[{"name":"webProofJson","type":"string","internalType":"string"}]},{"name":"actionId","type":"uint256","internalType":"uint256"},{"name":"username","type":"string","internalType":"string"},{"name":"targetValue","type":"string","internalType":"string"},{"name":"account","type":"address","internalType":"address"}],"outputs":[{"name":"","type":"tuple","internalType":"struct Proof","components":[{"name":"seal","type":"tuple","internalType":"struct Seal","components":[{"name":"verifierSelector","type":"bytes4","internalType":"bytes4"},{"name":"seal","type":"bytes32[8]","internalType":"bytes32[8]"},{"name":"mode","type":"uint8","internalType":"enum ProofMode"}]},{"name":"callGuestId","type":"bytes32","internalType":"bytes32"},{"name":"length","type":"uint256","internalType":"uint256"},{"name":"callAssumptions","type":"tuple","internalType":"struct CallAssumptions","components":[{"name":"proverContractAddress","type":"address","internalType":"address"},{"name":"functionSelector","type":"bytes4","internalType":"bytes4"},{"name":"settleChainId","type":"uint256","internalType":"uint256"},{"name":"settleBlockNumber","type":"uint256","internalType":"uint256"},{"name":"settleBlockHash","type":"bytes32","internalType":"bytes32"}]}]},{"name":"","type":"bool","internalType":"bool"},{"name":"","type":"string","internalType":"string"},{"name":"","type":"address","internalType":"address"},{"name":"","type":"uint256","internalType":"uint256"},{"name":"","type":"string","internalType":"string"},{"name":"","type":"string","internalType":"string"}],"stateMutability":"view"},{"type":"function","name":"verifyMultipleActions","inputs":[{"name":"webProofs","type":"tuple[]","internalType":"struct WebProof[]","components":[{"name":"webProofJson","type":"string","internalType":"string"}]},{"name":"actionIds","type":"uint256[]","internalType":"uint256[]"},{"name":"username","type":"string","internalType":"string"},{"name":"targetValues","type":"string[]","internalType":"string[]"},{"name":"account","type":"address","internalType":"address"}],"outputs":[{"name":"","type":"tuple","internalType":"struct Proof","components":[{"name":"seal","type":"tuple","internalType":"struct Seal","components":[{"name":"verifierSelector","type":"bytes4","internalType":"bytes4"},{"name":"seal","type":"bytes32[8]","internalType":"bytes32[8]"},{"name":"mode","type":"uint8","internalType":"enum ProofMode"}]},{"name":"callGuestId","type":"bytes32","internalType":"bytes32"},{"name":"length","type":"uint256","internalType":"uint256"},{"name":"callAssumptions","type":"tuple","internalType":"struct CallAssumptions","components":[{"name":"proverContractAddress","type":"address","internalType":"address"},{"name":"functionSelector","type":"bytes4","internalType":"bytes4"},{"name":"settleChainId","type":"uint256","internalType":"uint256"},{"name":"settleBlockNumber","type":"uint256","internalType":"uint256"},{"name":"settleBlockHash","type":"bytes32","internalType":"bytes32"}]}]},{"name":"","type":"bool[]","internalType":"bool[]"},{"name":"","type":"string[]","internalType":"string[]"},{"name":"","type":"address","internalType":"address"},{"name":"","type":"uint256[]","internalType":"uint256[]"},{"name":"","type":"string","internalType":"string"},{"name":"","type":"string[]","internalType":"string[]"}],"stateMutability":"view"},{"type":"error","name":"FailedInnerCall","inputs":[]}],"bytecode":{"object":"0x6080604052346200149c5762000014620014a1565b6005815262000022620014c1565b90602b82527f68747470733a2f2f6170692e782e636f6d2f312e312f6163636f756e742f736560208301526a3a3a34b733b9973539b7b760a91b60408301526020810191825262000072620014e1565b600b81526a73637265656e5f6e616d6560a81b602082015260408201526040516020810181811060018060401b0382111762000b2f5760405260008152606082015260006080820152600160a08201526000805260006020526040600020918151600681101562000cf15760ff801985541691161783555191825160018060401b03811162000b2f576001820154600181811c9116801562001491575b602082101462000b0e57601f811162001445575b506020601f8211600114620013d25781929394600092620013c6575b50508160011b916000199060031b1c19161760018201555b604082015180519092906001600160401b03811162000b2f576002830154600181811c91168015620013bb575b602082101462000b0e57601f81116200136f575b506020601f8211600114620012fc5781929394600092620012f0575b50508160011b916000199060031b1c19161760028301555b60608101518051906001600160401b03821162000b2f576003840154600181811c91168015620012e5575b602082101462000b0e57601f811162001299575b50602090601f8311600114620012215760049392916000918362001215575b50508160011b916000199060031b1c19161760038401555b608081015115159060ff61ff0060a085870154930151151560081b1692169061ffff1916171791015562000275620014a1565b600081526040516001600160401b03608082019081119082111762000b2f5760808101604052604381527f68747470733a2f2f782e636f6d2f692f6170692f6772617068716c2f7857773460208201527f356c366e5837445032464b527965505853772f55736572427953637265656e4e604082015262616d6560e81b6060820152602082015262000306620014c1565b603481527f646174612e757365722e726573756c742e72656c6174696f6e736869705f706560208201527f727370656374697665732e666f6c6c6f77696e670000000000000000000000006040820152604082015262000365620014e1565b60048152637472756560e01b6020820152606082015260016080820152600160a08201526001600052600060205260406000208151600681101562000cf15760ff80198354169116178155602082015191825160018060401b03811162000b2f576001830154600181811c911680156200120a575b602082101462000b0e57601f8111620011be575b506020601f82116001146200114b57819293946000926200113f575b50508160011b916000199060031b1c19161760018301555b604081015180519092906001600160401b03811162000b2f576002820154600181811c9116801562001134575b602082101462000b0e57601f8111620010e8575b506020601f821160011462001075578192939460009262001069575b50508160011b916000199060031b1c19161760028201555b60608201518051906001600160401b03821162000b2f576003830154600181811c911680156200105e575b602082101462000b0e57601f811162001012575b50602090601f831160011462000f9a5760049392916000918362000f8e575b50508160011b916000199060031b1c19161760038201555b0190608081015115159060ff61ff0060a08554930151151560081b1692169061ffff1916171790556200053f620014a1565b600181526200054d62001501565b60208201526200055c620014a1565b6082815260008051602062003b55833981519152602082015260008051602062003b75833981519152604082015260008051602062003b9583398151915260608201527f65745f726573756c74732e726573756c742e6c65676163792e6661766f726974608082015261195960f21b60a08201526040820152620005df620014e1565b60048152637472756560e01b6020820152606082015260016080820152600160a08201526002600052600060205260406000208151600681101562000cf15760ff80198354169116178155602082015191825160018060401b03811162000b2f576001830154600181811c9116801562000f83575b602082101462000b0e57601f811162000f37575b506020601f821160011462000ec4578192939460009262000eb8575b50508160011b916000199060031b1c19161760018301555b604081015180519092906001600160401b03811162000b2f576002820154600181811c9116801562000ead575b602082101462000b0e57601f811162000e61575b506020601f821160011462000dee578192939460009262000de2575b50508160011b916000199060031b1c19161760028201555b60608201518051906001600160401b03821162000b2f576003830154600181811c9116801562000dd7575b602082101462000b0e57601f811162000d8b575b50602090601f831160011462000d135760049392916000918362000d07575b50508160011b916000199060031b1c19161760038201555b0190608081015115159060ff61ff0060a08554930151151560081b1692169061ffff191617179055620007b9620014a1565b60028152620007c762001501565b6020820152620007d6620014a1565b6082815260008051602062003b55833981519152602082015260008051602062003b75833981519152604082015260008051602062003b9583398151915260608201527f65745f726573756c74732e726573756c742e6c65676163792e72657477656574608082015261195960f21b60a0820152604082015262000859620014e1565b60048152637472756560e01b6020820152606082015260016080820152600160a08201526003600052600060205260406000208151600681101562000cf15760ff80198354169116178155602082015191825160018060401b03811162000b2f576001830154600181811c9116801562000ce6575b602082101462000b0e57601f811162000c9a575b506020601f821160011462000c27578192939460009262000c1b575b50508160011b916000199060031b1c19161760018301555b604081015180519092906001600160401b03811162000b2f576002820154600181811c9116801562000c10575b602082101462000b0e57601f811162000bc4575b506020601f821160011462000b51578192939460009262000b45575b50508160011b916000199060031b1c19161760028201555b60608201518051906001600160401b03821162000b2f576003830154600181811c9116801562000b24575b602082101462000b0e57601f811162000ac2575b50602090601f831160011462000a4a5760049392916000918362000a3e575b50508160011b916000199060031b1c19161760038201555b0190608081015115159060ff61ff0060a08554930151151560081b1692169061ffff19161717905560046001556040516125f690816200155f8239f35b015190503880620009e9565b906003840160005260206000209160005b601f198516811062000aa9575091839160019360049695601f1981161062000a8f575b505050811b01600382015562000a01565b015160001960f88460031b161c1916905538808062000a7e565b9192602060018192868501518155019401920162000a5b565b600384016000526020600020601f840160051c81016020851062000b06575b601f830160051c8201811062000af9575050620009ca565b6000815560010162000ae1565b508062000ae1565b634e487b7160e01b600052602260045260246000fd5b90607f1690620009b6565b634e487b7160e01b600052604160045260246000fd5b01519050388062000973565b6002830160005260206000209060005b601f198416811062000bab5750600193949583601f1981161062000b91575b505050811b0160028201556200098b565b015160001960f88460031b161c1916905538808062000b80565b9091602060018192858a01518155019301910162000b61565b600283016000526020600020601f830160051c81016020841062000c08575b601f830160051c8201811062000bfb57505062000957565b6000815560010162000be3565b508062000be3565b90607f169062000943565b015190503880620008fe565b6001840160005260206000209060005b601f198416811062000c815750600193949583601f1981161062000c67575b505050811b01600183015562000916565b015160001960f88460031b161c1916905538808062000c56565b9091602060018192858a01518155019301910162000c37565b600184016000526020600020601f830160051c81016020841062000cde575b601f830160051c8201811062000cd1575050620008e2565b6000815560010162000cb9565b508062000cb9565b90607f1690620008ce565b634e487b7160e01b600052602160045260246000fd5b0151905038806200076f565b906003840160005260206000209160005b601f198516811062000d72575091839160019360049695601f1981161062000d58575b505050811b01600382015562000787565b015160001960f88460031b161c1916905538808062000d47565b9192602060018192868501518155019401920162000d24565b600384016000526020600020601f840160051c81016020851062000dcf575b601f830160051c8201811062000dc257505062000750565b6000815560010162000daa565b508062000daa565b90607f16906200073c565b015190503880620006f9565b6002830160005260206000209060005b601f198416811062000e485750600193949583601f1981161062000e2e575b505050811b01600282015562000711565b015160001960f88460031b161c1916905538808062000e1d565b9091602060018192858a01518155019301910162000dfe565b600283016000526020600020601f830160051c81016020841062000ea5575b601f830160051c8201811062000e98575050620006dd565b6000815560010162000e80565b508062000e80565b90607f1690620006c9565b01519050388062000684565b6001840160005260206000209060005b601f198416811062000f1e5750600193949583601f1981161062000f04575b505050811b0160018301556200069c565b015160001960f88460031b161c1916905538808062000ef3565b9091602060018192858a01518155019301910162000ed4565b600184016000526020600020601f830160051c81016020841062000f7b575b601f830160051c8201811062000f6e57505062000668565b6000815560010162000f56565b508062000f56565b90607f169062000654565b015190503880620004f5565b906003840160005260206000209160005b601f198516811062000ff9575091839160019360049695601f1981161062000fdf575b505050811b0160038201556200050d565b015160001960f88460031b161c1916905538808062000fce565b9192602060018192868501518155019401920162000fab565b600384016000526020600020601f840160051c81016020851062001056575b601f830160051c8201811062001049575050620004d6565b6000815560010162001031565b508062001031565b90607f1690620004c2565b0151905038806200047f565b6002830160005260206000209060005b601f1984168110620010cf5750600193949583601f19811610620010b5575b505050811b01600282015562000497565b015160001960f88460031b161c19169055388080620010a4565b9091602060018192858a01518155019301910162001085565b600283016000526020600020601f830160051c8101602084106200112c575b601f830160051c820181106200111f57505062000463565b6000815560010162001107565b508062001107565b90607f16906200044f565b0151905038806200040a565b6001840160005260206000209060005b601f1984168110620011a55750600193949583601f198116106200118b575b505050811b01600183015562000422565b015160001960f88460031b161c191690553880806200117a565b9091602060018192858a0151815501930191016200115b565b600184016000526020600020601f830160051c81016020841062001202575b601f830160051c82018110620011f5575050620003ee565b60008155600101620011dd565b5080620011dd565b90607f1690620003da565b0151905038806200022a565b906003850160005260206000209160005b601f198516811062001280575091839160019360049695601f1981161062001266575b505050811b01600384015562000242565b015160001960f88460031b161c1916905538808062001255565b9192602060018192868501518155019401920162001232565b600385016000526020600020601f840160051c810160208510620012dd575b601f830160051c82018110620012d05750506200020b565b60008155600101620012b8565b5080620012b8565b90607f1690620001f7565b015190503880620001b4565b6002840160005260206000209060005b601f1984168110620013565750600193949583601f198116106200133c575b505050811b016002830155620001cc565b015160001960f88460031b161c191690553880806200132b565b9091602060018192858a0151815501930191016200130c565b600284016000526020600020601f830160051c810160208410620013b3575b601f830160051c82018110620013a657505062000198565b600081556001016200138e565b50806200138e565b90607f169062000184565b0151905038806200013f565b6001830160005260206000209060005b601f19841681106200142c5750600193949583601f1981161062001412575b505050811b01600182015562000157565b015160001960f88460031b161c1916905538808062001401565b9091602060018192858a015181550193019101620013e2565b600183016000526020600020601f830160051c81016020841062001489575b601f830160051c820181106200147c57505062000123565b6000815560010162001464565b508062001464565b90607f16906200010f565b600080fd5b6040519060c082016001600160401b0381118382101762000b2f57604052565b60405190606082016001600160401b0381118382101762000b2f57604052565b60408051919082016001600160401b0381118382101762000b2f57604052565b6200150b620014c1565b90603e82527f6a3645526c5348324c5a76435571616c6c772f547765657444657461696c00006040837f68747470733a2f2f782e636f6d2f692f6170692f6772617068716c2f753554696020820152015256fe6080604052600436101561001257600080fd5b60003560e01c8063111c684914611691578063120308de146115535780632507aec7146114ff5780632d453927146110655780637c2eceb01461104757806387cea3ae14610fcc5780638f73e89814610f19578063914332fd14610920578063f42e606e146105d0578063f9aa82a314610184578063faf924cf146101475763ffbc5638146100a057600080fd5b3461014257604036600319011261014257604051631ff78ac760e31b81526004356004820152602435602482015260208160448160007376dc9aa45aa006a0f63942d8f9f21bd4537972a35af180156101365761010591600091610107575b50611b9d565b005b610129915060203d60201161012f575b6101218183611855565b810190611b85565b386100ff565b503d610117565b6040513d6000823e3d90fd5b600080fd5b3461014257600036600319011261014257610160611be9565b50610169611be9565b50610220610175611be9565b61018260405180926119f3565bf35b346101425760c0366003190112610142576004356024356001600160401b038111610142576101b7903690600401611891565b906044356001600160401b038111610142576101d7903690600401611891565b6064356001600160401b038111610142576101f6903690600401611891565b6101fe6118d8565b9160a435938415158503610142576102196001548210611b39565b60005260006020526040600020948051906001600160401b03821161042857819061024760018901546118e7565b601f811161057a575b50602090601f831160011461050d57600092610502575b50508160011b916000199060031b1c19161760018601555b805160028601916001600160401b0382116104285781906102a084546118e7565b601f81116104af575b50602090601f83116001146104495760009261043e575b50508160011b916000199060031b1c19161790555b805160038501916001600160401b038211610428576102f483546118e7565b601f81116103e0575b50602090601f831160011461036e579282600493610105989361034b96600092610363575b50508160011b916000199060031b1c19161790555b0191829060ff801983541691151516179055565b9061ff00825491151560081b169061ff001916179055565b015190508980610322565b90601f198316918460005260206000209260005b8181106103c8575093610105989361034b969360019383600498106103af575b505050811b019055610337565b015160001960f88460031b161c191690558980806103a2565b92936020600181928786015181550195019301610382565b836000526020600020601f840160051c8101916020851061041e575b601f0160051c01905b81811061041257506102fd565b60008155600101610405565b90915081906103fc565b634e487b7160e01b600052604160045260246000fd5b0151905087806102c0565b6000858152602081209350601f198516905b818110610497575090846001959493921061047e575b505050811b0190556102d5565b015160001960f88460031b161c19169055878080610471565b9293602060018192878601518155019501930161045b565b909150836000526020600020601f840160051c810191602085106104f8575b90601f859493920160051c01905b8181106104e957506102a9565b600081558493506001016104dc565b90915081906104ce565b015190508780610267565b600189016000908152602081209350601f198516905b8181106105625750908460019594939210610549575b505050811b01600186015561027f565b015160001960f88460031b161c19169055878080610539565b92936020600181928786015181550195019301610523565b909150600188016000526020600020601f840160051c810191602085106105c6575b90601f859493920160051c01905b8181106105b75750610250565b600081558493506001016105aa565b909150819061059c565b346101425760031960a036820112610142576004356001600160401b038082116101425760208093833603011261014257602435916044358281116101425761061d903690600401611891565b60643583811161014257610635903690600401611891565b9261063e6119dd565b92610647611be9565b506106556001548710611b39565b856000526000875261067460ff60046040600020015460081c16611cf5565b856000526000875260406000206040519161068e83611804565b61069c60ff83541684611b79565b6106a860018301611921565b9289810193845261070d6106be60028501611921565b946040830195865261070560046106d760038801611921565b966060860197885201549460ff60808601968181161515885260081c16151560a08601523690600401611d38565b905190611dde565b60405190958b820190811182821017610428576040526000905251600681101561090a5760050361081e5750509161074f61081a95949261080b945190612368565b968760405161077a83828161076d81830196878151938492016117bc565b8101038084520182611855565b519020906040516107988282019282865161076d8187858b016117bc565b51902014955b6107a6611be9565b506107af611be9565b506107e66107bb611be9565b98604051998a996107cf8b6102e0936119f3565b15156102208b0152806102408b01528901906117df565b6001600160a01b039093166102608801526102808701528582036102a08701526117df565b908382036102c08501526117df565b0390f35b519097929190156108a9579161083f61080b949261081a9796945190612414565b90811561089c5761084e611d9f565b985160405161086c83828161076d81830196878151938492016117bc565b5190209060405190810190637472756560e01b82526004815261088e8161183a565b51902014901515149561079e565b6108a4611d7e565b61084e565b966108c061080b949261081a979694995190612368565b97886040516108de83828161076d81830196878151938492016117bc565b51902091519061090060405191828161076d81830196878151938492016117bc565b519020149561079e565b634e487b7160e01b600052602160045260246000fd5b346101425760a0366003190112610142576001600160401b036004351161014257366023600435011215610142576001600160401b036004356004013511610142573660246004356004013560051b600435010111610142576024356001600160401b0381116101425736602382011215610142578060040135906109a4826119c6565b916109b26040519384611855565b8083526024602084019160051b8301019136831161014257602401905b828210610f0957836044356001600160401b038111610142576109f6903690600401611891565b6001600160401b036064351161014257366023606435011215610142576064356004013590610a24826119c6565b91610a326040519384611855565b80835260208301903660248260051b60643501011161014257602460643501915b60248260051b60643501018310610ed657505050610a6f6119dd565b91610a78611be9565b50610a8b84516004356004013514611ca9565b610a988451825114611ca9565b835191610abd610aa7846119c6565b93610ab56040519586611855565b8085526119c6565b601f1992908301366020860137855192610aef610ad9856119c6565b94610ae76040519687611855565b8086526119c6565b0160005b818110610ec35750506001549060005b8751811015610df657610b2183610b1a838b611b25565b5110611b39565b610b2b8189611b25565b51600052600060205260ff9060046040600020015491610b5081600894851c16611cf5565b610b5a828b611b25565b516000526000602052604060002092600460405194610b7886611804565b610b858482541687611b79565b610b9160018201611921565b6020870152610ba260028201611921565b6040870152610bb360038201611921565b6060870152015490828216151560808601521c16151560a083015260043560040135811015610de05760421960043536030160248260051b600435010135121561014257610c20610c15366024808560051b6004350101356004350101611d38565b602084015190611dde565b91805192600684101561090a57600193600503610cbb576040610c4592015190612368565b610c4f8288611b25565b52610c5a8187611b25565b50610c658187611b25565b51604051610c836020828161076d81830196878151938492016117bc565b5190206040516020810190610ca56020828161076d8c878151938492016117bc565b51902014610cb38289611b25565b525b01610b03565b608082015115610d6157610cd6606091604084015190612414565b918215610d5457610ce5611d9f565b610cef858b611b25565b52610cfa848a611b25565b500151604051610d1a6020828161076d81830196878151938492016117bc565b5190206040516020810190637472756560e01b825260048152610d3c8161183a565b5190201490151514610d4e8289611b25565b52610cb5565b610d5c611d7e565b610ce5565b6040820151610d6f91612368565b610d798389611b25565b52610d848288611b25565b506060610d918389611b25565b51604051610daf6020828161076d81830196878151938492016117bc565b519020910151604051610dd26020828161076d81830196878151938492016117bc565b51902014610d4e8289611b25565b634e487b7160e01b600052603260045260246000fd5b509190508486610e04611be9565b50610e0d611be9565b50610e16611be9565b94604051956102e0610e2b88828101936119f3565b61022088015287518091526020610300880198019060005b818110610eab57505050610e9c9261081a959492610e6e89610e8d948a809c036102408c0152611aa3565b6001600160a01b0390921661026089015287820361028089015261177b565b908582036102a08701526117df565b908382036102c0850152611aa3565b825115158a526020998a019990920191600101610e43565b6060602082870181019190915201610af3565b6001600160401b0383351161014257602080602492610efc368588356064350101611891565b8152019301929050610a53565b81358152602091820191016109cf565b34610142576020366003190112610142576004356000526000602052610f85604060002060ff8154169060ff610fb2610f5460018401611921565b92610fa4610f6460028301611921565b610f966004610f7560038601611921565b94015496604051998a809a6117af565b60c060208a015260c08901906117df565b9087820360408901526117df565b9085820360608701526117df565b918181161515608085015260081c16151560a08301520390f35b34610142576020366003190112610142576040516343e751d760e11b8152600480359082015260208160248160007376dc9aa45aa006a0f63942d8f9f21bd4537972a35af1801561013657610105916000916110285750611b9d565b611041915060203d60201161012f576101218183611855565b826100ff565b34610142576000366003190112610142576020600154604051908152f35b346101425760a0366003190112610142576004356006811015610142576024356001600160401b038111610142576110a1903690600401611891565b906044356001600160401b038111610142576110c1903690600401611891565b916064356001600160401b038111610142576110e1903690600401611891565b6110e96118d8565b9060015494611104604051956110fe87611804565b86611b79565b602085019384526040850152606084015215156080830152600160a08301528260005260006020526040600020908251600681101561090a5760ff80198454169116178255519283516001600160401b0381116104285761116860018401546118e7565b601f81116114b8575b506020601f821160011461144957819293949560009261143e575b50508160011b916000199060031b1c19161760018301555b60408301519283516001600160401b038111610428576111c760028501546118e7565b601f81116113f7575b506020601f821160011461138857819293949560009261137d575b50508160011b916000199060031b1c19161760028401555b600383019260608201519384516001600160401b0381116104285761122882546118e7565b95601f8711611335575b602096508690601f83116001146112c55792826004936112a497969360a0966000926112ba575b50508160011b916000199060031b1c19161790555b019161128c60808201511515849060ff801983541691151516179055565b0151815461ff00191690151560081b61ff0016179055565b6112af600154611b00565b600155604051908152f35b015190508a80611259565b90601f1983169184600052886000209260005b81811061131e5750936112a497969360a096936001938360049810611305575b505050811b01905561126e565b015160001960f88460031b161c191690558a80806112f8565b92938a6001819287860151815501950193016112d8565b826000526020600020601f830160051c81019760208410611373575b601f0160051c01965b8781106113675750611232565b6000815560010161135a565b9097508790611351565b0151905085806111eb565b6002850160005260206000209060005b601f19841681106113df575060019394959683601f198116106113c6575b505050811b016002840155611203565b015160001960f88460031b161c191690558580806113b6565b9091602060018192858b015181550193019101611398565b600285016000526020600020601f830160051c810160208410611437575b601f830160051c8201811061142b5750506111d0565b60008155600101611415565b5080611415565b01519050858061118c565b6001840160005260206000209060005b601f19841681106114a0575060019394959683601f19811610611487575b505050811b0160018301556111a4565b015160001960f88460031b161c19169055858080611477565b9091602060018192858b015181550193019101611459565b600184016000526020600020601f830160051c8101602084106114f8575b601f830160051c820181106114ec575050611171565b600081556001016114d6565b50806114d6565b34610142576020366003190112610142576004356115206001548210611b39565b6000526000602052610105600460406000200160ff815460081c161561ff00825491151560081b169061ff001916179055565b3461014257602080600319360112610142576040519060043561157583611804565b60008352600060a06060948585820152856040820152858082015282608082015201526115a56001548210611b39565b600052600081526040600020604051926115be84611804565b6115cc60ff83541685611b79565b61167c6115db60018401611921565b928486019384526115ee60028201611921565b926040870193845261166b600461160760038501611921565b93838a0194855201549461165760808a019760ff88161515895260ff60a08c019860081c16151588526116456040519b8b8d9c8d528c0190516117af565b5160c060408b015260e08a01906117df565b9051601f1993848a840301908a01526117df565b9151908683030160808701526117df565b9151151560a084015251151560c08301520390f35b34610142576000366003190112610142576001805460009082825b8281106117465750506116d76116c1836119c6565b926116cf6040519485611855565b8084526119c6565b602090601f1901368483013760009060005b838110611706576040516020808252819061081a9082018861177b565b8086916000526000835260ff60046040600020015460081c1661172a575b016116e9565b92808461173a6117409389611b25565b52611b00565b92611724565b80600052600060205260ff60046040600020015460081c1661176b575b0183906116ac565b9261177590611b00565b92611763565b90815180825260208080930193019160005b82811061179b575050505090565b83518552938101939281019260010161178d565b90600682101561090a5752565b60005b8381106117cf5750506000910152565b81810151838201526020016117bf565b906020916117f8815180928185528580860191016117bc565b601f01601f1916010190565b60c081019081106001600160401b0382111761042857604052565b606081019081106001600160401b0382111761042857604052565b604081019081106001600160401b0382111761042857604052565b90601f801991011681019081106001600160401b0382111761042857604052565b6001600160401b03811161042857601f01601f191660200190565b81601f82011215610142578035906118a882611876565b926118b66040519485611855565b8284526020838301011161014257816000926020809301838601378301015290565b60843590811515820361014257565b90600182811c92168015611917575b602083101461190157565b634e487b7160e01b600052602260045260246000fd5b91607f16916118f6565b90604051918260008254611934816118e7565b908184526020946001916001811690816000146119a45750600114611965575b50505061196392500383611855565b565b600090815285812095935091905b81831061198c5750506119639350820101388080611954565b85548884018501529485019487945091830191611973565b9250505061196394925060ff191682840152151560051b820101388080611954565b6001600160401b0381116104285760051b60200190565b608435906001600160a01b038216820361014257565b80519063ffffffff60e01b9182815116845260209081810151828601836000915b60088310611a8c57505050506040015192600284101561090a5760606080936102009561012088015283810151610140880152604081015161016088015201519160018060a01b03835116610180870152820151166101a085015260408101516101c085015260608101516101e08501520151910152565b908060019285518152019301910190918490611a14565b90808251908181526020809101926020808460051b8301019501936000915b848310611ad25750505050505090565b9091929394958480611af0600193601f198682030187528a516117df565b9801930193019194939290611ac2565b6000198114611b0f5760010190565b634e487b7160e01b600052601160045260246000fd5b8051821015610de05760209160051b010190565b15611b4057565b60405162461bcd60e51b8152602060048201526011602482015270125b9d985b1a59081858dd1a5bdb881251607a1b6044820152606490fd5b600682101561090a5752565b90816020910312610142575180151581036101425790565b15611ba457565b60405162461bcd60e51b815260206004820152601b60248201527f4661696c6564206368656174636f646520696e766f636174696f6e00000000006044820152606490fd5b604090815160808101906001600160401b039181811083821117610428578085528194611c158261181f565b600091828152815161010080820182811088821117611c9557845236823760a08501528260c08501528352816020840152818184015280519360a085019085821090821117611c8157918160609493829352818652816020870152850152808385015260808401520152565b634e487b7160e01b83526041600452602483fd5b634e487b7160e01b86526041600452602486fd5b15611cb057565b60405162461bcd60e51b815260206004820152601860248201527f4d69736d617463686564206172726179206c656e6774687300000000000000006044820152606490fd5b15611cfc57565b60405162461bcd60e51b8152602060048201526014602482015273416374696f6e206973206e6f742061637469766560601b6044820152606490fd5b919091602081840312610142576040519060208201936001600160401b039483811086821117610428576040528294823590811161014257611d7a9201611891565b9052565b60405190611d8b8261183a565b600582526466616c736560d81b6020830152565b60405190611dac8261183a565b60048252637472756560e01b6020830152565b60405190611dcc8261181f565b60606040838281528260208201520152565b611e3c91611dea611dbf565b50611df3611dbf565b506040908151602093611e1885830191606083525186608085015260a08401906117df565b9060018584015282600097818995948660608197015203601f198101835282611855565b519073f4e4fdca9d5d55e64525e314391996a15f7ec6005afa611e67611e606122f3565b8092612544565b508051810194848281880197031261226657848201516001600160401b0392838211612262570186603f8201121561225e57845196608088018881108582111761224a578652879060a083019281841161224657888101925b84841061221d57505050505083860151956060810151905192855197611ee58961181f565b88528187890152858801938452617a6946148015612211575b8015612203575b1561208a5785519260e084019182118483101761207657509161201a91612020959493875260ae8252878201917f2d2d2d2d2d424547494e205055424c4943204b45592d2d2d2d2d0a4d4659774583527f4159484b6f5a497a6a3043415159464b34454541416f445167414565306a786e888201527f424f6261496a37586a673654584c434d3147472f566859353635300a4f72532f60608201527f6a6763624275666f2f51446646764c2f69727a4976314a536d6847695663734360808201527f4843776f6c684458576367653776324973513d3d0a2d2d2d2d2d454e4420505560a082015260c06d212624a19025a2ac96969696968560911b9101528051888160ae149384612063575b50505050612487565b516124e4565b1561202a57505090565b60649250519062461bcd60e51b8252600482015260136024820152720aaa49840e0e4caccd2f040dad2e6dac2e8c6d606b1b6044820152fd5b60ae902092012014905038808881612011565b634e487b7160e01b81526041600452602490fd5b50856001461480156121f9575b80156121ef575b80156121e4575b80156121d9575b80156121ce575b80156121c3575b80156121b8575b80156121ad575b15612154576120f191865180938192632505a3bd60e01b835284600484015260248301906117df565b038173565dca92902ea0ca597b5e62df0b47886b6b7d4d5afa91821561214957612020949392612127929061212c575b50612487565b61201a565b6121439150873d891161012f576101218183611855565b38612121565b8551903d90823e3d90fd5b61217891865180938192632505a3bd60e01b835284600484015260248301906117df565b038173c4e4dc291a5c4debe9ff5a3372f3fdd2e42bac865afa91821561214957612020949392612127929061212c5750612487565b5061e70846146120c8565b5061a4ba46146120c1565b5061a4b146146120ba565b5061210546146120b3565b506101e046146120ac565b5061014446146120a5565b506089461461209e565b50600a4614612097565b5061220c61256d565b611f05565b50620499194614611efe565b8351878111612242578a9161223785848094870101612323565b815201930192611ec0565b8680fd5b8480fd5b634e487b7160e01b84526041600452602484fd5b5080fd5b8280fd5b80fd5b1561227057565b60405162461bcd60e51b815260206004820152600d60248201526c426f647920697320656d70747960981b6044820152606490fd5b60208082526060820192919060008282015b600282106122c757505050505090565b909192939483806122e4600193601f1989820301865289516117df565b970192019201909392916122b7565b3d1561231e573d9061230482611876565b916123126040519384611855565b82523d6000602084013e565b606090565b81601f8201121561014257805161233981611876565b926123476040519485611855565b818452602082840101116101425761236591602080850191016117bc565b90565b91906123778351511515612269565b604051926123848461183a565b518352602090818401526040516123b0816123a284820196876122a5565b03601f198101835282611855565b600080948192519073f4e4fdca9d5d55e64525e314391996a15f7ec6025afa906123e26123db6122f3565b8093612544565b50815182019381838603126122665781830151906001600160401b038211612266575081612365949501920101612323565b60008091612365936124298251511515612269565b604051916124368361183a565b5182526020820152604051612453816123a26020820194856122a5565b519073f4e4fdca9d5d55e64525e314391996a15f7ec6045afa612477611e606122f3565b5060208082518301019101611b85565b1561248e57565b60405162461bcd60e51b815260206004820152601960248201527f496e76616c6964206e6f74617279207075626c6963206b6579000000000000006044820152606490fd5b908151811015610de0570160200190565b90815181511161253d5760009060005b8151811015612534576001600160f81b03198061251183876124d3565b51169061251e83856124d3565b51160361252d576001016124f4565b5050905090565b50505050600190565b5050600090565b909190611963575080511561255b57805190602001fd5b604051630a12f52160e11b8152600490fd5b600080808073f4e4fdca9d5d55e64525e314391996a15f7ec61e5afa6125916122f3565b901580156125b7575b6125b1578060208061236593518301019101611b85565b50600090565b5080511561259a56fea26469706673582212209c6a209e9c9a7250b556c3812b2fa74bc1c1ed108eca85e8c7a258a033a948bd64736f6c63430008170033646174612e74687265616465645f636f6e766572736174696f6e5f776974685f696e6a656374696f6e735f76322e696e737472756374696f6e735b305d2e656e74726965735b305d2e636f6e74656e742e6974656d436f6e74656e742e747765","linkReferences":{}},"methodIdentifiers":{"actionConfigCount()":"7c2eceb0","actionConfigs(uint256)":"8f73e898","addActionConfig(uint8,string,string,string,bool)":"2d453927","getActionConfig(uint256)":"120308de","getAllActiveActions()":"111c6849","proof()":"faf924cf","setBlock(uint256)":"87cea3ae","setChain(uint256,uint256)":"ffbc5638","toggleActionConfig(uint256)":"2507aec7","updateActionConfig(uint256,string,string,string,bool,bool)":"f9aa82a3","verifyAction((string),uint256,string,string,address)":"f42e606e","verifyMultipleActions((string)[],uint256[],string,string[],address)":"914332fd"},"id":65}