{"abi":[{"type":"constructor","inputs":[{"name":"_prover","type":"address","internalType":"address"}],"stateMutability":"nonpayable"},{"type":"function","name":"_setTestVerifier","inputs":[{"name":"newVerifier","type":"address","internalType":"contract IProofVerifier"}],"outputs":[],"stateMutability":"nonpayable"},{"type":"function","name":"prover","inputs":[],"outputs":[{"name":"","type":"address","internalType":"address"}],"stateMutability":"view"},{"type":"function","name":"takenEmailHashes","inputs":[{"name":"","type":"bytes32","internalType":"bytes32"}],"outputs":[{"name":"","type":"bool","internalType":"bool"}],"stateMutability":"view"},{"type":"function","name":"verifier","inputs":[],"outputs":[{"name":"","type":"address","internalType":"contract IProofVerifier"}],"stateMutability":"view"},{"type":"function","name":"verify","inputs":[{"name":"","type":"tuple","internalType":"struct Proof","components":[{"name":"seal","type":"tuple","internalType":"struct Seal","components":[{"name":"verifierSelector","type":"bytes4","internalType":"bytes4"},{"name":"seal","type":"bytes32[8]","internalType":"bytes32[8]"},{"name":"mode","type":"uint8","internalType":"enum ProofMode"}]},{"name":"callGuestId","type":"bytes32","internalType":"bytes32"},{"name":"length","type":"uint256","internalType":"uint256"},{"name":"callAssumptions","type":"tuple","internalType":"struct CallAssumptions","components":[{"name":"proverContractAddress","type":"address","internalType":"address"},{"name":"functionSelector","type":"bytes4","internalType":"bytes4"},{"name":"settleChainId","type":"uint256","internalType":"uint256"},{"name":"settleBlockNumber","type":"uint256","internalType":"uint256"},{"name":"settleBlockHash","type":"bytes32","internalType":"bytes32"}]}]},{"name":"_emailHash","type":"bytes32","internalType":"bytes32"},{"name":"_targetWallet","type":"address","internalType":"address"},{"name":"_emailDomain","type":"string","internalType":"string"}],"outputs":[],"stateMutability":"nonpayable"},{"type":"event","name":"EmailVerified","inputs":[{"name":"emailHash","type":"bytes32","indexed":true,"internalType":"bytes32"},{"name":"targetWallet","type":"address","indexed":true,"internalType":"address"},{"name":"emailDomain","type":"string","indexed":false,"internalType":"string"}],"anonymous":false},{"type":"error","name":"InvalidChainId","inputs":[]}],"bytecode":{"object":"0x60a08060405234620000845760208162003609803803809162000023828562000089565b8339810103126200008457516001600160a01b038082169182900362000084576200004d620000c3565b1660018060a01b031990816000541617600055336080526001541617600155604051610b8290816200048882396080518160840152f35b600080fd5b601f909101601f19168101906001600160401b03821190821017620000ad57604052565b634e487b7160e01b600052604160045260246000fd5b6000617a6946148015620003c0575b8015620003af575b156200022957604080516001600160401b0392906113d180820190858211838310176200021557849183916200100a833930815230602082015203019082f092831562000209576001600160a01b0393841690813b15620002055783516384cf84e160e01b81527fdcb00648ecc90d8bfe92aa8d51061beb0bcb110d274fc4a517e526574233d36b6004820152838160248183875af18015620001fb57620001d2575b5083519161122e80840192831184841017620001be57918391602093620023db8439815203019082f0918215620001b45750501690565b51903d90823e3d90fd5b634e487b7160e01b85526041600452602485fd5b818194929411620001e757845291386200017d565b634e487b7160e01b82526041600452602482fd5b85513d86823e3d90fd5b8280fd5b509051903d90823e3d90fd5b634e487b7160e01b84526041600452602484fd5b50600146148015620003a4575b801562000399575b80156200038d575b801562000381575b801562000375575b801562000369575b80156200035d575b801562000351575b156200028c57735553cf6ce25e3f80fad2866f6230346159ecd89c90565b62aa36a74614801562000345575b801562000339575b80156200032d575b801562000320575b801562000313575b801562000306575b8015620002f9575b620002e157604051633d23e4d160e11b8152600490fd5b738972b6ff413ac04e61e19f07d7f3bd980d0cc32190565b5062aa37dc4614620002ca565b5062066eee4614620002c2565b5062014a344614620002ba565b50620138824614620002b2565b5061e7054614620002aa565b506112c14614620002a2565b5061012c46146200029a565b5061e70846146200026e565b5061a4ba461462000266565b5061a4b146146200025e565b50612105461462000256565b506101e046146200024e565b50610144461462000246565b50608946146200023e565b50600a461462000236565b50620003ba620003cd565b620000da565b50620499194614620000d2565b60008080808073f4e4fdca9d5d55e64525e314391996a15f7ec61e5afa3d156200047e573d906001600160401b0382116200046a57604051916200041c601f8201601f19166020018462000089565b82523d83602084013e5b15801562000460575b6200045c5760208180518101031262000458576020015190811515820362000455575090565b80fd5b5080fd5b5090565b508051156200042f565b634e487b7160e01b83526041600452602483fd5b6060906200042656fe608080604052600436101561001357600080fd5b600090813560e01c9081632b7ac3f3146108825750806332a8f30f146108595780635889d3ea1461082a578063977aa54b1461030657639b8b30c81461005857600080fd5b34610303576020806003193601126102ff576004356001600160a01b0381811692918390036102fb57807f00000000000000000000000000000000000000000000000000000000000000001633036102ac57617a69461480156102a0575b8015610292575b801561020b575b156101a057604051631feb379160e11b81528281600481875afa90811561019557859161015b575b501615610106575081546001600160a01b03191617815580f35b6084906040519062461bcd60e51b82526004820152602860248201527f56657269666965722773207265706f7369746f72792061646472657373206973604482015267081b9bdd081cd95d60c21b6064820152fd5b90508281813d831161018e575b610172818361092d565b8101031261018a5751818116810361018a57386100ec565b8480fd5b503d610168565b6040513d87823e3d90fd5b60405162461bcd60e51b815260048101839052603760248201527f4368616e67696e6720766572696669657273206973206f6e6c7920616c6c6f7760448201527f6564206f6e206465766e6574206f7220746573746e65740000000000000000006064820152608490fd5b5062aa36a746148015610287575b801561027c575b8015610271575b8015610265575b8015610259575b801561024d575b806100c4575062aa37dc46146100c4565b5062066eee461461023c565b5062014a344614610235565b5062013882461461022e565b5061e7054614610227565b506112c14614610220565b5061012c4614610219565b5061029b610ac6565b6100bd565b506204991946146100b6565b60405162461bcd60e51b815260048101839052602160248201527f4f6e6c79206465706c6f7965722063616e206368616e676520766572696669656044820152603960f91b6064820152608490fd5b8380fd5b5080fd5b80fd5b5034610303576102803660031901126103035761022036600319011261030357610244356001600160a01b03811681036102ff5767ffffffffffffffff61026435116102ff57366023610264350112156102ff5761036a610264356004013561094f565b610377604051918261092d565b6004610264359081013580835236910160240111610826576102643560040135602461026435016020830137600461026435013581016020018390526001546001600160a01b03166103c7610a54565b50366004116102fb576040516103dc816108a6565b61014036600319011261018a576040516103f5816108d8565b6004356001600160e01b0319811681036107ce57815236604312156107e65760405161042081610910565b803661012411610822576024905b610124821061081257505060208201526101243560028110156107ce576040820152815261014435602082015261016435604082015260a06101831936011261018a5760405161047d816108f4565b610184356001600160a01b03811681036107ce5781526101a4356001600160e01b0319811690036107e6576101a43560208201526101c43560408201526101e43560608201526102043560808201526060820152604081015161021f1981018181116107fe576102bf198201116107ea57609b198101610224116107ea5736610224116107e657604051908160c081011067ffffffffffffffff60c0840111176107d25760c0820160405260a0825260a061018460208401378660c083015236609b198201116107ce57866105566102bf19830161094f565b91610564604051938461092d565b6102bf1981018084526102246020850137820161029f190152610585610a54565b5061058e610a54565b906105a060405192602084019061098e565b61022082528161024081011067ffffffffffffffff610240840111176107ba5787939261024083610625602082818a9786829a01604052610615610260836105f18287019b8c81519384920161096b565b850185519061060582848301888a0161096b565b019280519485928501910161096b565b010380858501520183830161092d565b61063a6040519384938493015192839161096b565b8101039060025afa156107ad5781519260018060a01b0383541691823b156102fb576106809261028492604051968795869463c4fa74e560e01b8652600486019061098e565b61022484015261024483015263ac6981e560e01b6102648301525afa80156107a257610772575b50610224358352600260205260ff60408420541661073f57610224358352600260205260408320600160ff198254161790557f944a25e381ccbf4b1c40fc2643eabfae9a5e7c3f603c6e2edaef1605064fdab4604051926020845261071c83518094816020880152602060408801910161096b565b6001600160a01b0316926102243592601f01601f1916810181900360400190a380f35b60405162461bcd60e51b815260206004820152600b60248201526a32b6b0b4b6103a30b5b2b760a91b6044820152606490fd5b67ffffffffffffffff819492941161078e5760405291386106a7565b634e487b7160e01b82526041600452602482fd5b6040513d86823e3d90fd5b50604051903d90823e3d90fd5b634e487b7160e01b88526041600452602488fd5b8680fd5b634e487b7160e01b87526041600452602487fd5b8580fd5b634e487b7160e01b86526011600452602486fd5b634e487b7160e01b87526011600452602487fd5b813581526020918201910161042e565b8780fd5b8280fd5b50346103035760203660031901126103035760ff60406020926004358152600284522054166040519015158152f35b50346103035780600319360112610303576001546040516001600160a01b039091168152602090f35b9050346102ff57816003193601126102ff5790546001600160a01b03168152602090f35b6080810190811067ffffffffffffffff8211176108c257604052565b634e487b7160e01b600052604160045260246000fd5b6060810190811067ffffffffffffffff8211176108c257604052565b60a0810190811067ffffffffffffffff8211176108c257604052565b610100810190811067ffffffffffffffff8211176108c257604052565b90601f8019910116810190811067ffffffffffffffff8211176108c257604052565b67ffffffffffffffff81116108c257601f01601f191660200190565b60005b83811061097e5750506000910152565b818101518382015260200161096e565b80519063ffffffff60e01b9182815116845260209081810151828601836000915b60088310610a3d575050505060400151926002841015610a275760606080936102009561012088015283810151610140880152604081015161016088015201519160018060a01b03835116610180870152820151166101a085015260408101516101c085015260608101516101e08501520151910152565b634e487b7160e01b600052602160045260246000fd5b9080600192855181520193019101909184906109af565b604090815191610a63836108a6565b6060838251610a71816108d8565b6000908181528451610a8281610910565b610100368237602082015281858201528252806020830152808483015280845194610aac866108f4565b818652816020870152850152808385015260808401520152565b60008080808073f4e4fdca9d5d55e64525e314391996a15f7ec61e5afa3d15610b44573d90610af48261094f565b91610b02604051938461092d565b82523d83602084013e5b158015610b3b575b610b37576020818051810103126102ff5760200151908115158203610303575090565b5090565b50805115610b14565b606090610b0c56fea26469706673582212200401e6e3d10d197aa4f72b1a9dc8b82ea7a54edd143c930ebd98568ff5911c0964736f6c634300081700336080346200012957601f620013d138819003918201601f19168301916001600160401b038311848410176200012e57808492604094855283398101031262000129576200005a6020620000528362000144565b920162000144565b90620000668162000159565b620000e3575b506200007881620001d9565b6200008e575b6040516110999081620002f88239f35b600080516020620013b18339815191526000526001602052620000db906001600160a01b03167fe05121899e4c04c40b7e0a2a39dcba2d093af16d5fdca78c38e106d157d2aad36200026a565b50386200007e565b60008052600160205262000121906001600160a01b03167fa6eef7e35abe7026729641147f7915573c7e97b47efa546f5f6e3230263bcb496200026a565b50386200006c565b600080fd5b634e487b7160e01b600052604160045260246000fd5b51906001600160a01b03821682036200012957565b6001600160a01b031660008181527fad3228b676f7d3cd4284a5443f17f1962b36e491b30a40b2405849e597ba5fb5602052604081205490919060ff16620001d557818052816020526040822081835260205260408220600160ff198254161790553391600080516020620013918339815191528180a4600190565b5090565b6001600160a01b031660008181527fd329ff8a035c3ce5df2b0dae604d660c0d8783bf7e64be00c1d10db96c0b87b46020526040812054909190600080516020620013b18339815191529060ff166200026557808352826020526040832082845260205260408320600160ff1982541617905560008051602062001391833981519152339380a4600190565b505090565b91906001830160009082825280602052604082205415600014620002f15784549468010000000000000000861015620002dd5760018601808255861015620002c957836040949596828552602085200155549382526020522055600190565b634e487b7160e01b83526032600452602483fd5b634e487b7160e01b83526041600452602483fd5b5092505056fe608060408181526004908136101561001657600080fd5b600092833560e01c90816301ffc9a714610894575080631af6c43114610867578063248a9ca31461083d5780632505a3bd146108105780632ad82eea146107905780632f2ff15d1461072557806336568abe146106de578063755e936f1461065f57806381e4c9a31461063157806384cf84e11461057c578063853b5d19146104f95780639010d07c146104b857806391d1485414610472578063a217fddf14610457578063ada8f919146103cc578063c5df91b51461030f578063ca0d53581461028d578063ca15c87314610265578063d547741f14610228578063e58378bb146101fb5763f2fde38b1461010b57600080fd5b346101f757602091826003193601126101f3576101266109b0565b916000805160206110448339815191529182865260018552818620908154156101e05750855283852054828652858552818620600101546001600160a01b03939184169061017390610afd565b61017c81610d8d565b6101c6575b5080865285855261019760018388200154610afd565b6101a084610bea565b6101a8578580f35b6101bc946001918752528420911690610ec9565b5038808080808580f35b6101d99082885260018752838820610f53565b5038610181565b634e487b7160e01b875260329052602486fd5b8380fd5b8280fd5b838234610224578160031936011261022457602090516000805160206110448339815191528152f35b5080fd5b50346101f757806003193601126101f757610261913561025c600161024b61099a565b938387528660205286200154610afd565b610b23565b5080f35b5090346101f75760203660031901126101f75760209282913581526001845220549051908152f35b50346101f7577f69c40cdda8ad6e074bf320a4a76804a6652eb5231bda91b690dcb98010b27079906102be36610902565b926102c7610a95565b83516020850120808652816020526102e460ff8488205416610a49565b855260205280842060ff19815416905551602081528061030933946020830190610a09565b0390a280f35b50346101f75760203660031901126101f75781359161032c610a95565b828452600360205260ff8285205416156103805750816020917f4072861add20da436ef0a8274b90d102aea17b603f972cc8196d51f1a5d561799385526003835280852060ff19815416905551908152a180f35b6020608492519162461bcd60e51b8352820152602160248201527f43616e6e6f74207265766f6b6520756e737570706f7274656420496d616765496044820152601160fa1b6064820152fd5b838234610224576020366003190112610224576103e76109b0565b828052826020526103fd60018385200154610afd565b61040681610b5e565b610432575b5061041533610d03565b61041d575080f35b61026190828052600160205233908320610f53565b8280526001602052818320610450916001600160a01b031690610ec9565b508261040b565b83823461022457816003193601126102245751908152602090f35b5090346101f757816003193601126101f7578160209360ff9261049361099a565b903582528186528282206001600160a01b039091168252855220549151911615158152f35b5090346101f757816003193601126101f7576020926104e39135815260018452826024359120610e9b565b905491519160018060a01b039160031b1c168152f35b838234610224577f0a249d4766726d36cb6d6ac22cf998dc9fc02bb4ff9fda73ec1e3061c8a1db0961052a36610902565b91610533610a95565b82516020840120808552600260205261055260ff8387205416156109c6565b84526002602052808420600160ff1982541617905551602081528061030933946020830190610a09565b50346101f75760203660031901126101f757813591610599610a95565b828452600360205260ff82852054166105ef5750816020917f010120d82c0c66b257c0ea628d405b1d3c2d37bb8dd9141f6c5c12cb0375c57293855260038352808520600160ff1982541617905551908152a180f35b6020606492519162461bcd60e51b8352820152601c60248201527f496d616765494420697320616c726561647920737570706f72746564000000006044820152fd5b8382346102245760ff8160209361064736610902565b85815191012081526002855220541690519015158152f35b838234610224577f66e43f8252a3257fe010a4fd6ae50f57624762cc64a6eceadb04b18cfdefac7d61069036610902565b91610699610a95565b8251602084012080855260026020526106b760ff8387205416610a49565b8452600260205280842060ff19815416905551602081528061030933946020830190610a09565b508290346102245780600319360112610224576106f961099a565b90336001600160a01b038316036107165750610261919235610b23565b5163334bd91960e11b81528390fd5b5090346101f757816003193601126101f757359061074161099a565b908284528360205261075860018286200154610afd565b6107628284610c8a565b61076a578380f35b9183526001602052908220610788916001600160a01b031690610ec9565b503880808380f35b50346101f7577fcbfa55581c230aeb174d969838d927cdd297755dfb967a33134312f1377ee71d906107c136610902565b926107ca610a95565b83516020850120808652816020526107e860ff8488205416156109c6565b8552602052808420600160ff1982541617905551602081528061030933946020830190610a09565b5090346101f7578160209360ff9261082736610902565b8681519101208252855220541690519015158152f35b5090346101f75760203660031901126101f757816020936001923581528085522001549051908152f35b5090346101f75760203660031901126101f7578160209360ff923581526003855220541690519015158152f35b849084346101f75760203660031901126101f7573563ffffffff60e01b81168091036101f75760209250635a05180f60e01b81149081156108d7575b5015158152f35b637965db0b60e01b8114915081156108f1575b50836108d0565b6301ffc9a760e01b149050836108ea565b602060031982011261097f5767ffffffffffffffff9060043582811161097f578160238201121561097f578060040135918383116109845760405193601f8401601f19908116603f0116850190811185821017610984576040528284526024838301011161097f5781600092602460209301838601378301015290565b600080fd5b634e487b7160e01b600052604160045260246000fd5b602435906001600160a01b038216820361097f57565b600435906001600160a01b038216820361097f57565b156109cd57565b60405162461bcd60e51b815260206004820152601460248201527312d95e481a5cc8185b1c9958591e481d985b1a5960621b6044820152606490fd5b919082519283825260005b848110610a35575050826000602080949584010152601f8019910116010190565b602081830181015184830182015201610a14565b15610a5057565b60405162461bcd60e51b815260206004820152601960248201527f43616e6e6f74207265766f6b6520696e76616c6964206b6579000000000000006044820152606490fd5b3360009081527fd329ff8a035c3ce5df2b0dae604d660c0d8783bf7e64be00c1d10db96c0b87b460205260409020546000805160206110448339815191529060ff1615610adf5750565b6044906040519063e2517d3f60e01b82523360048301526024820152fd5b80600052600060205260406000203360005260205260ff6040600020541615610adf5750565b610b2d8282610e26565b9182610b3857505090565b600091825260016020526040909120610b5a916001600160a01b031690610f53565b5090565b6001600160a01b031660008181527fad3228b676f7d3cd4284a5443f17f1962b36e491b30a40b2405849e597ba5fb5602052604081205490919060ff16610b5a57818052816020526040822081835260205260408220600160ff1982541617905533917f2f8788117e7eff1d82e926ec794901d17c78024a50270940304540a733656f0d8180a4600190565b6001600160a01b031660008181527fd329ff8a035c3ce5df2b0dae604d660c0d8783bf7e64be00c1d10db96c0b87b460205260408120549091906000805160206110448339815191529060ff16610c8557808352826020526040832082845260205260408320600160ff198254161790557f2f8788117e7eff1d82e926ec794901d17c78024a50270940304540a733656f0d339380a4600190565b505090565b9060009180835282602052604083209160018060a01b03169182845260205260ff60408420541615600014610c8557808352826020526040832082845260205260408320600160ff198254161790557f2f8788117e7eff1d82e926ec794901d17c78024a50270940304540a733656f0d339380a4600190565b6001600160a01b031660008181527fad3228b676f7d3cd4284a5443f17f1962b36e491b30a40b2405849e597ba5fb5602052604081205490919060ff1615610b5a5781805281602052604082208183526020526040822060ff19815416905533917ff6391f5c32d9c69d2a47ea670b442974b53935d1edc7fd64eb21e047a839171b8180a4600190565b6001600160a01b031660008181527fd329ff8a035c3ce5df2b0dae604d660c0d8783bf7e64be00c1d10db96c0b87b460205260408120549091906000805160206110448339815191529060ff1615610c855780835282602052604083208284526020526040832060ff1981541690557ff6391f5c32d9c69d2a47ea670b442974b53935d1edc7fd64eb21e047a839171b339380a4600190565b9060009180835282602052604083209160018060a01b03169182845260205260ff604084205416600014610c855780835282602052604083208284526020526040832060ff1981541690557ff6391f5c32d9c69d2a47ea670b442974b53935d1edc7fd64eb21e047a839171b339380a4600190565b8054821015610eb35760005260206000200190600090565b634e487b7160e01b600052603260045260246000fd5b91906001830160009082825280602052604082205415600014610f4d5784549468010000000000000000861015610f395783610f29610f12886001604098999a01855584610e9b565b819391549060031b91821b91600019901b19161790565b9055549382526020522055600190565b634e487b7160e01b83526041600452602483fd5b50925050565b9060018201906000928184528260205260408420549081151560001461103c57600019918083018181116110285782549084820191821161101457818103610fdf575b50505080548015610fcb57820191610fae8383610e9b565b909182549160031b1b191690555582526020526040812055600190565b634e487b7160e01b86526031600452602486fd5b610fff610fef610f129386610e9b565b90549060031b1c92839286610e9b565b90558652846020526040862055388080610f96565b634e487b7160e01b88526011600452602488fd5b634e487b7160e01b87526011600452602487fd5b505050509056feb19546dff01e856fb3f010c267a7b1c60363cf8a4664e21cc89c26224620214ea2646970667358221220b9674104f4e1847dcdd187e42b32ed18bf3a44ce0a552ea7bfd2e75be02a9b2564736f6c634300081700332f8788117e7eff1d82e926ec794901d17c78024a50270940304540a733656f0db19546dff01e856fb3f010c267a7b1c60363cf8a4664e21cc89c26224620214e60e03461019d576001600160401b0390601f61122e38819003918201601f19168301918483118484101761011f5780849260209460405283398101031261019d57516001600160a01b039190828116810361019d5760c052600146148015610193575b8015610189575b801561017e575b8015610173575b8015610168575b801561015d575b8015610152575b8015610147575b610135576040519061076a8083019182118383101761011f576020918391610ac4833963deafbeef60e01b81520301906000f08015610113571660a052600160805260405161092190816101a3823960805181818160c901526105d5015260a0518181816101bb0152610633015260c05181818161017f01526106780152f35b6040513d6000823e3d90fd5b634e487b7160e01b600052604160045260246000fd5b604051633d23e4d160e11b8152600490fd5b5061e7084614610093565b5061a4ba461461008c565b5061a4b14614610085565b50612105461461007e565b506101e04614610077565b506101444614610070565b5060894614610069565b50600a4614610062565b600080fdfe6080604081815260048036101561001557600080fd5b600091823560e01c93846308c84e701461061f575083633fd66f221461005d5783639a44ea84146105c1578363c4fa74e5146100625750505063f4cbae941461005d57600080fd5b610662565b346105bd57366003190161028081126105b95761022081126105b9576001600160a01b0361024435818116949192908590036105b5576001600160e01b031961026435818116969087900361030357856100bb366106fb565b51015160028110156105a2577f000000000000000000000000000000000000000000000000000000000000000090600282101561058f570361055757610100366106fb565b9060608201908682515116036105235760209783898351015116036104ed57868151015146036104b75760608151015143111561046457606081510151610100810180911161045157431161040257516060608082015191015140036103ca5786015193855194631af6c43160e01b86528486015260249487818781857f0000000000000000000000000000000000000000000000000000000000000000165afa9081156103c057899161035d575b501561031b57610140907f00000000000000000000000000000000000000000000000000000000000000001692126102ff578451906101ed826106ac565b8335908116810361030357815236604312156102ff57845161020e816106de565b8061012491368311610317578887915b8483106103075750905083015235906002821015610303576102439186820152610825565b813b156102ff57948691855196879263ab750e7560e01b8452606086850152815191826064860152855b8381106102e5575050506084838286838395840101526101443589830152610224356044830152601f801991011681010301915afa80156102db576102b0578480f35b67ffffffffffffffff84116102ca57505052818080808480f35b634e487b7160e01b85526041905283fd5b83513d87823e3d90fd5b8181018301518b8201608401528b96508a9550820161026d565b8680fd5b8780fd5b82358152918101918a910161021e565b8980fd5b855162461bcd60e51b81528085018890526017818701527f556e737570706f727465642043616c6c477565737449640000000000000000006044820152606490fd5b9050873d89116103b9575b601f8101601f1916820167ffffffffffffffff8111838210176103a757899183918a52810103126103a3575180151581036103a357896101af565b8880fd5b634e487b7160e01b8b5260418752878bfd5b503d610368565b87513d8b823e3d90fd5b855162461bcd60e51b81528085018890526012602482015271092dcecc2d8d2c840c4d8dec6d640d0c2e6d60731b6044820152606490fd5b865162461bcd60e51b8152808601899052602360248201527f496e76616c696420626c6f636b206e756d6265723a20626c6f636b20746f6f206044820152621bdb1960ea1b6064820152608490fd5b634e487b7160e01b8a526011865260248afd5b865162461bcd60e51b8152808601899052602760248201527f496e76616c696420626c6f636b206e756d6265723a20626c6f636b2066726f6d6044820152662066757475726560c81b6064820152608490fd5b865162461bcd60e51b8152808601899052601060248201526f125b9d985b1a590818da185a5b881a5960821b6044820152606490fd5b865162461bcd60e51b8152808601899052601060248201526f24b73b30b634b21039b2b632b1ba37b960811b6044820152606490fd5b865162461bcd60e51b8152602081870152600e60248201526d24b73b30b634b210383937bb32b960911b6044820152606490fd5b855162461bcd60e51b81526020818601526012602482015271496e76616c69642070726f6f66206d6f646560701b6044820152606490fd5b634e487b7160e01b8a526021865260248afd5b634e487b7160e01b895260218552602489fd5b8580fd5b8380fd5b8280fd5b82903461061b578160031936011261061b577f0000000000000000000000000000000000000000000000000000000000000000905191600282101561060857602083838152f35b634e487b7160e01b815260218452602490fd5b5080fd5b83903461061b578160031936011261061b577f00000000000000000000000000000000000000000000000000000000000000006001600160a01b03168152602090f35b346106a75760003660031901126106a7576040517f00000000000000000000000000000000000000000000000000000000000000006001600160a01b03168152602090f35b600080fd5b6060810190811067ffffffffffffffff8211176106c857604052565b634e487b7160e01b600052604160045260246000fd5b610100810190811067ffffffffffffffff8211176106c857604052565b6003198101919061022083126106a7576040805167ffffffffffffffff929160808201848111838210176106c8578082526101408397126106a75761073f816106ac565b6001600160e01b03199360043585811681036106a757825280604312156106a757825161076b816106de565b80610124918383116106a7576024905b83821061081557505060a0860152359160028310156106a75760a09260c0860152845261014435602085015261016435838501526101831901126106a75780519360a08501908111858210176106c8578152610184356001600160a01b03811681036106a75784526101a43592831683036106a75760609260208501526101c435908401526101e435828401526102043560808401520152565b813581526020918201910161077b565b604081015160028110156108d557600190810361086e57506020810151519063ffffffff60e01b9051169060405191602083015260248201526024815261086b816106ac565b90565b81516020928301516040516001600160e01b03199092168285015290926000602485015b600882106108c25750505050506101048152610140810181811067ffffffffffffffff8211176106c85760405290565b8351815292820192908401908201610892565b634e487b7160e01b600052602160045260246000fdfea26469706673582212206ca5e6238303ba00ba76cd1947d473e8fcbd579863dec5707d952fe9c9fc864464736f6c6343000817003360a03461007957601f61076a38819003918201601f19168301916001600160401b0383118484101761007e5780849260209460405283398101031261007957516001600160e01b031981168103610079576080526040516106d5908161009582396080518181816101be015281816102c401526103440152f35b600080fd5b634e487b7160e01b600052604160045260246000fdfe60808060405260048036101561001457600080fd5b600091823560e01c908163053c238d146101aa575080631599ead51461013a5780633a115bb11461011a57806366cf0e4b146100cf5763ab750e751461005957600080fd5b346100cb5760603660031901126100cb57803567ffffffffffffffff918282116100c757366023830112156100c7578101359182116100c35736602483830101116100c3576100c09160246100b96100b4604435833561044a565b61057f565b920161032d565b80f35b8280fd5b8380fd5b5080fd5b509034610117576040366003190112610117576101136101076101026100b4856100f761029c565b50602435903561044a565b6102b6565b60405191829182610211565b0390f35b80fd5b5090346101175760203660031901126101175761011361010783356102b6565b50346100cb576003196020368201126100c35781359167ffffffffffffffff918284116101a6576040843603918201126101a6578184013590602219018112156101a6578301908101359182116100c7576024019080360382136100c75760246100c09301359161032d565b8480fd5b8390346100cb57816003193601126100cb577f00000000000000000000000000000000000000000000000000000000000000006001600160e01b0319168152602090f35b60005b8381106102015750506000910152565b81810151838201526020016101f1565b60809160208252602081519160408285015261023b835180948160608801528488880191016101ee565b01516040830152601f01601f1916010190565b6040810190811067ffffffffffffffff82111761026a57604052565b634e487b7160e01b600052604160045260246000fd5b60a0810190811067ffffffffffffffff82111761026a57604052565b604051906102a98261024e565b6000602083606081520152565b6102be61029c565b506040517f00000000000000000000000000000000000000000000000000000000000000006001600160e01b03191660208201526024808201839052815260608101919067ffffffffffffffff83118184101761026a57608090836040526103258461024e565b808452015290565b91906004928184116103fe576001600160e01b03197f000000000000000000000000000000000000000000000000000000000000000081169082351680820361042d575050600319820167ffffffffffffffff918282116104185760405192601b8501601f19908116603f011684019081118482101761040357604052818352602083019336818301116103fe5760009287601c93018637830101525190209060405160208101918252602081526103e48161024e565b519020036103ef5750565b60405163439cc0cd60e01b8152fd5b600080fd5b604187634e487b7160e01b6000525260246000fd5b604186634e487b7160e01b6000525260246000fd5b604491869160405192632e2ce35360e21b84528301526024820152fd5b90604080519161045983610280565b600091828452826080602095828782015283516104758161024e565b83815283888201528482015282606082015201528051916104958361024e565b83835283858401528151906104a98261024e565b81528481018481528585600c85516b1c9a5cd8cc0b93dd5d1c1d5d60a21b815260025afa156105755761051886928692835191519051865191868301938452878301526060820152600160f91b60808201526062815261050881610280565b85519283928392519283916101ee565b8101039060025afa1561056a577fa3acc27117418996340b84e5a90f3ef4c49d22c79e44aad822ec9c313e1eb8e283519482519661055588610280565b87528601528401526060830152608082015290565b51913d9150823e3d90fd5b82513d86823e3d90fd5b601290604090602082517172697363302e52656365697074436c61696d60701b8152600094859160025afa15610694578251906060810151908051602082015191856080820151910192835151936003851015610680576020905101519287519560208701978852888701526060860152608085015260a084015260ff60f81b809260f81b1660c084015260f81b1660c4820152600160fa1b60c882015260aa815260e081019181831067ffffffffffffffff84111761066c579184918161065060209582885283519283916101ee565b8101039060025afa1561066257505190565b51903d90823e3d90fd5b634e487b7160e01b85526041600452602485fd5b634e487b7160e01b89526021600452602489fd5b5051903d90823e3d90fdfea26469706673582212205020395fc08ab57721c2d6f7c0911db64c7206e1ccb04de883fdd0e41b3e968064736f6c63430008170033","linkReferences":{}},"methodIdentifiers":{"_setTestVerifier(address)":"9b8b30c8","prover()":"32a8f30f","takenEmailHashes(bytes32)":"5889d3ea","verifier()":"2b7ac3f3","verify(((bytes4,bytes32[8],uint8),bytes32,uint256,(address,bytes4,uint256,uint256,bytes32)),bytes32,address,string)":"977aa54b"},"id":41}