{"abi":[{"type":"function","name":"main","inputs":[{"name":"unverifiedEmail","type":"tuple","internalType":"struct UnverifiedEmail","components":[{"name":"email","type":"string","internalType":"string"},{"name":"dnsRecord","type":"tuple","internalType":"struct DnsRecord","components":[{"name":"name","type":"string","internalType":"string"},{"name":"recordType","type":"uint8","internalType":"uint8"},{"name":"data","type":"string","internalType":"string"},{"name":"ttl","type":"uint64","internalType":"uint64"}]},{"name":"verificationData","type":"tuple","internalType":"struct VerificationData","components":[{"name":"validUntil","type":"uint64","internalType":"uint64"},{"name":"signature","type":"bytes","internalType":"bytes"},{"name":"pubKey","type":"bytes","internalType":"bytes"}]}]}],"outputs":[{"name":"","type":"tuple","internalType":"struct Proof","components":[{"name":"seal","type":"tuple","internalType":"struct Seal","components":[{"name":"verifierSelector","type":"bytes4","internalType":"bytes4"},{"name":"seal","type":"bytes32[8]","internalType":"bytes32[8]"},{"name":"mode","type":"uint8","internalType":"enum ProofMode"}]},{"name":"callGuestId","type":"bytes32","internalType":"bytes32"},{"name":"length","type":"uint256","internalType":"uint256"},{"name":"callAssumptions","type":"tuple","internalType":"struct CallAssumptions","components":[{"name":"proverContractAddress","type":"address","internalType":"address"},{"name":"functionSelector","type":"bytes4","internalType":"bytes4"},{"name":"settleChainId","type":"uint256","internalType":"uint256"},{"name":"settleBlockNumber","type":"uint256","internalType":"uint256"},{"name":"settleBlockHash","type":"bytes32","internalType":"bytes32"}]}]},{"name":"","type":"bytes32","internalType":"bytes32"},{"name":"","type":"address","internalType":"address"},{"name":"","type":"string","internalType":"string"}],"stateMutability":"view"},{"type":"function","name":"proof","inputs":[],"outputs":[{"name":"","type":"tuple","internalType":"struct Proof","components":[{"name":"seal","type":"tuple","internalType":"struct Seal","components":[{"name":"verifierSelector","type":"bytes4","internalType":"bytes4"},{"name":"seal","type":"bytes32[8]","internalType":"bytes32[8]"},{"name":"mode","type":"uint8","internalType":"enum ProofMode"}]},{"name":"callGuestId","type":"bytes32","internalType":"bytes32"},{"name":"length","type":"uint256","internalType":"uint256"},{"name":"callAssumptions","type":"tuple","internalType":"struct CallAssumptions","components":[{"name":"proverContractAddress","type":"address","internalType":"address"},{"name":"functionSelector","type":"bytes4","internalType":"bytes4"},{"name":"settleChainId","type":"uint256","internalType":"uint256"},{"name":"settleBlockNumber","type":"uint256","internalType":"uint256"},{"name":"settleBlockHash","type":"bytes32","internalType":"bytes32"}]}]}],"stateMutability":"pure"},{"type":"function","name":"setBlock","inputs":[{"name":"blockNo","type":"uint256","internalType":"uint256"}],"outputs":[],"stateMutability":"nonpayable"},{"type":"function","name":"setChain","inputs":[{"name":"chainId","type":"uint256","internalType":"uint256"},{"name":"blockNo","type":"uint256","internalType":"uint256"}],"outputs":[],"stateMutability":"nonpayable"},{"type":"function","name":"stringToAddress","inputs":[{"name":"str","type":"string","internalType":"string"}],"outputs":[{"name":"","type":"address","internalType":"address"}],"stateMutability":"pure"},{"type":"error","name":"FailedInnerCall","inputs":[]}],"bytecode":{"object":"0x6080806040523461001657611269908161001c8239f35b600080fdfe6040608081526004908136101561001557600080fd5b600091823560e01c806315706fdf1461094a57806387cea3ae146108ef578063ac6981e51461013e578063faf924cf146100fc5763ffbc56381461005857600080fd5b346100f857816003193601126100f857815190631ff78ac760e31b82528035908201526024356024820152602081604481867376dc9aa45aa006a0f63942d8f9f21bd4537972a35af19081156100ec576100ba925083916100bd575b50610d6f565b80f35b6100df915060203d6020116100e5575b6100d781836109e9565b810190610d57565b386100b4565b503d6100cd565b505051903d90823e3d90fd5b8280fd5b50503461013a578160031936011261013a576102209061011a610dbb565b50610123610dbb565b5061013861012f610dbb565b91518092610a73565bf35b5080fd5b5090346100f8576020906003199282843601126108eb5780359067ffffffffffffffff948583116108e757606095868285360301126108e35761017f610dbb565b5084519361018c8561099b565b808401358281116108df576101a690853691840101610a27565b85526024948582013583811161069e5782019360809283828736030112610696578851906101d3826109cd565b878701358681116108d7576101ed908936918a0101610a27565b82528887013560ff811681036108d7578b830152604496878101358781116108db5761022e916102246064928c3691840101610a27565b8d86015201610e77565b8c8301528a8401918252868101358681116108d7578c91019283360301126106965788519161025c8361099b565b610267888201610e77565b8352888101358681116108d75761028390893691840101610a27565b8b84015286810135908682116108d757886102a19236920101610a27565b898301528883019182528a808a516102b8816109cd565b818152818d820152818c8201520152848251511642101561088b578b617a694614801561087f575b8015610871575b156106e357507fc16646301c7615357b8f8ee125956b0e5fbf972fa2a0c26feb1f1ae75d04103f89835101518b8151910120036106a257918b9291839286868c8f8f905b8251968796828489019a858c525181878b015260a08a0161034b91610b5c565b91519781603f1998898c860301828d01528a5190808652850161036d91610b5c565b878b015160ff1688860152888b0151908581038a87015261038d91610b5c565b990151169101525193868603018b8701528b845116855280828501519286015284016103b891610b5c565b910151918d8183039101526103cc91610b5c565b03601f19810182526103de90826109e9565b51905a73f4e4fdca9d5d55e64525e314391996a15f7ec60190fa97610401610ff3565b988961040c916111b5565b508851890192888401998981860312610696578981015182811161069a578491018095031261069e578751996104418b6109cd565b8985015182811161069a57818b61045a92880101611023565b8b528885015182811161069a57818b61047592880101611023565b8a8c01528285015182811161069a57818b61049292880101611023565b93898c0194855285015191821161069657896104b39261050b960101611023565b90890152518551906104c48261099b565b603182527f5e566572696679206d7920656d61696c20617420616464726573733a20283078888301527016d84b59904b518c0b4e575ecd0c1f4a49607a1b87830152611068565b928351156106555750505061052261052891610e8c565b51610bcf565b92610577815183519061053a8261099b565b602782527f5e5b5c772e2d5d2b40285b612d7a412d5a5c642e2d5d2b5c2e5b612d7a412d5a8683015266175ecc8b1f4a4960ca1b85830152611068565b926105856002855114610e9c565b61059a61059185610e8c565b51511515610e9c565b6105a2610dbb565b506105ab610dbb565b50856105f26105b8610dbb565b935185516105e28582816105d58183019687815193849201610b39565b81010380845201826109e9565b8651928392839251928391610b39565b8101039060025afa1561064b5761060f6106479394955194610e8c565b5191519485946106228661028094610a73565b6102208601526001600160a01b03166102408501526102608401819052830190610b5c565b0390f35b81513d86823e3d90fd5b845162461bcd60e51b8152928301869052601c908301527f6e6f2077616c6c6574206164647265737320696e207375626a6563740000000090820152606490fd5b8b80fd5b8c80fd5b8a80fd5b885162461bcd60e51b81528088018b9052601e818a01527f4e6f7420612076616c69642056444e532068617264636f646564206b6579000081880152606490fd5b929190888b600146148015610867575b801561085d575b8015610852575b8015610847575b801561083c575b8015610831575b8015610826575b8a8d821561081a575b8392156107ba57806107529188510151905195869485946381e4c9a360e01b8652850152830190610b5c565b038173565dca92902ea0ca597b5e62df0b47886b6b7d4d5afa9081156107b057868c8f8f9061078e8a999897968d968b91610793575b50610fa7565b61032b565b6107aa9150843d86116100e5576100d781836109e9565b38610788565b8b513d87823e3d90fd5b806107df9188510151905195869485946381e4c9a360e01b8652850152830190610b5c565b038173c4e4dc291a5c4debe9ff5a3372f3fdd2e42bac865afa9081156107b057868c8f8f9061078e8a999897968d968b916107935750610fa7565b4661e708149250610726565b5061a4ba461461071d565b5061a4b14614610716565b50612105461461070f565b506101e04614610708565b506101444614610701565b50608946146106fa565b50600a46146106f3565b5061087a6111e0565b6102e7565b506204991946146102e0565b6084877f456d61696c50726f6f663a206578706972656420444e53207665726966696361888b8e8e519462461bcd60e51b865285015280840152820152633a34b7b760e11b6064820152fd5b8d80fd5b8e80fd5b8980fd5b8780fd5b8680fd5b8480fd5b50346100f85760203660031901126100f8578151906343e751d760e11b8252803590820152602081602481867376dc9aa45aa006a0f63942d8f9f21bd4537972a35af19081156100ec576100ba925083916100bd5750610d6f565b5091346109985760203660031901126109985782359067ffffffffffffffff8211610998575061098260209361098792369101610a27565b610bcf565b90516001600160a01b039091168152f35b80fd5b6060810190811067ffffffffffffffff8211176109b757604052565b634e487b7160e01b600052604160045260246000fd5b6080810190811067ffffffffffffffff8211176109b757604052565b90601f8019910116810190811067ffffffffffffffff8211176109b757604052565b67ffffffffffffffff81116109b757601f01601f191660200190565b81601f82011215610a6e57803590610a3e82610a0b565b92610a4c60405194856109e9565b82845260208383010111610a6e57816000926020809301838601378301015290565b600080fd5b80519063ffffffff60e01b9182815116845260209081810151828601836000915b60088310610b22575050505060400151926002841015610b0c5760606080936102009561012088015283810151610140880152604081015161016088015201519160018060a01b03835116610180870152820151166101a085015260408101516101c085015260608101516101e08501520151910152565b634e487b7160e01b600052602160045260246000fd5b908060019285518152019301910190918490610a94565b60005b838110610b4c5750506000910152565b8181015183820152602001610b3c565b90602091610b7581518092818552858086019101610b39565b601f01601f1916010190565b908151811015610b92570160200190565b634e487b7160e01b600052603260045260246000fd5b60ff16600a019060ff8211610bb957565b634e487b7160e01b600052601160045260246000fd5b602a815103610d19576040516040810181811067ffffffffffffffff8211176109b757604052601491601482526020820192602036853760005b818110610c52575050905191516bffffffffffffffffffffffff1992838216925060148110610c3d575b5050905060601c90565b8391925060140360031b1b1616803880610c33565b8060011b600290828104821483151715610bb957808201809211610bb9576001600160f81b031991610c91908390610c8a9088610b81565b5116610edf565b90600491821b90610ff060f0831692168203610d04576003908101809111610d045790610c8a9291610cc88560ff9586938b610b81565b1601918211610cef5750906001929160f81b1660001a610ce88287610b81565b5301610c09565b601190634e487b7160e01b6000525260246000fd5b601183634e487b7160e01b6000525260246000fd5b60405162461bcd60e51b8152602060048201526016602482015275092dcecc2d8d2c840c2c8c8e4cae6e640d8cadccee8d60531b6044820152606490fd5b90816020910312610a6e57518015158103610a6e5790565b15610d7657565b60405162461bcd60e51b815260206004820152601b60248201527f4661696c6564206368656174636f646520696e766f636174696f6e00000000006044820152606490fd5b604090815191610dca836109cd565b82815191610dd78361099b565b600090818452805193610100948581019567ffffffffffffffff9682811088821117610e63578452368237602082015282828201528352816020840152818184015280519360a085019085821090821117610e4f57918160609493829352818652816020870152850152808385015260808401520152565b634e487b7160e01b83526041600452602483fd5b634e487b7160e01b86526041600452602486fd5b359067ffffffffffffffff82168203610a6e57565b805160011015610b925760400190565b15610ea357565b60405162461bcd60e51b815260206004820152601460248201527334b73b30b634b21032b6b0b4b6103237b6b0b4b760611b6044820152606490fd5b60f81c603081101580610f9c575b15610f0157602f190160ff8111610bb95790565b606181101580610f91575b15610f2c5760ff610f1f60601992610ba8565b160160ff8111610bb95790565b604181101580610f86575b610f785760405162461bcd60e51b815260206004820152601560248201527424b73b30b634b2103432bc1031b430b930b1ba32b960591b6044820152606490fd5b60ff610f1f60401992610ba8565b506046811115610f37565b506066811115610f0c565b506039811115610eed565b15610fae57565b60405162461bcd60e51b815260206004820152601b60248201527f4e6f7420612076616c69642056444e53207075626c6963206b657900000000006044820152606490fd5b3d1561101e573d9061100482610a0b565b9161101260405193846109e9565b82523d6000602084013e565b606090565b81601f82011215610a6e57805161103981610a0b565b9261104760405194856109e9565b81845260208284010111610a6e576110659160208085019101610b39565b90565b6040805167ffffffffffffffff9392818301858111838210176109b757835281526020928382015281518381019183820185845260808301919060005b8760028210611190575050505091816110cb60009493859403601f1981018352826109e9565b519073f4e4fdca9d5d55e64525e314391996a15f7ec6115afa926110f76110f0610ff3565b80956111b5565b5083518401938381818701960312610a6e578381015190828211610a6e57019380603f86011215610a6e5783850151948286116109b7578560051b91845196611142878501896109e9565b8752848688019383010194818611610a6e57808301935b86851061116b57505050505050505090565b8451868111610a6e57889161118585858594890101611023565b815201940193611159565b806111aa600193949596603f198982030187528751610b5c565b9501930191016110a5565b9091906111de57508051156111cc57805190602001fd5b604051630a12f52160e11b8152600490fd5b565b600080808073f4e4fdca9d5d55e64525e314391996a15f7ec61e5afa611204610ff3565b9015801561122a575b611224578060208061106593518301019101610d57565b50600090565b5080511561120d56fea2646970667358221220f5512eb418dc854c2cd40dd550185305de864ae0e683e4efb0a149da9a7d411264736f6c63430008170033","linkReferences":{}},"methodIdentifiers":{"main((string,(string,uint8,string,uint64),(uint64,bytes,bytes)))":"ac6981e5","proof()":"faf924cf","setBlock(uint256)":"87cea3ae","setChain(uint256,uint256)":"ffbc5638","stringToAddress(string)":"15706fdf"},"id":40}