{"abi":[{"type":"constructor","inputs":[{"name":"_prover","type":"address","internalType":"address"}],"stateMutability":"nonpayable"},{"type":"function","name":"_setTestVerifier","inputs":[{"name":"newVerifier","type":"address","internalType":"contract IProofVerifier"}],"outputs":[],"stateMutability":"nonpayable"},{"type":"function","name":"getLatestVerification","inputs":[{"name":"account","type":"address","internalType":"address"}],"outputs":[{"name":"","type":"tuple","internalType":"struct GitHubVerifier.GitHubVerificationResult","components":[{"name":"account","type":"address","internalType":"address"},{"name":"username","type":"string","internalType":"string"},{"name":"repoOwner","type":"string","internalType":"string"},{"name":"repoName","type":"string","internalType":"string"},{"name":"branch","type":"string","internalType":"string"},{"name":"verified","type":"bool","internalType":"bool"},{"name":"resultMessage","type":"string","internalType":"string"},{"name":"timestamp","type":"uint256","internalType":"uint256"}]}],"stateMutability":"view"},{"type":"function","name":"getMultipleVerificationResult","inputs":[{"name":"verificationId","type":"bytes32","internalType":"bytes32"}],"outputs":[{"name":"","type":"tuple","internalType":"struct GitHubVerifier.MultipleGitHubVerificationResult","components":[{"name":"accounts","type":"address[]","internalType":"address[]"},{"name":"usernames","type":"string[]","internalType":"string[]"},{"name":"repoOwner","type":"string","internalType":"string"},{"name":"repoName","type":"string","internalType":"string"},{"name":"branch","type":"string","internalType":"string"},{"name":"results","type":"bool[]","internalType":"bool[]"},{"name":"resultMessages","type":"string[]","internalType":"string[]"},{"name":"timestamp","type":"uint256","internalType":"uint256"}]}],"stateMutability":"view"},{"type":"function","name":"getVerificationCount","inputs":[{"name":"account","type":"address","internalType":"address"}],"outputs":[{"name":"","type":"uint256","internalType":"uint256"}],"stateMutability":"view"},{"type":"function","name":"getVerificationHistory","inputs":[{"name":"account","type":"address","internalType":"address"}],"outputs":[{"name":"","type":"tuple[]","internalType":"struct GitHubVerifier.GitHubVerificationResult[]","components":[{"name":"account","type":"address","internalType":"address"},{"name":"username","type":"string","internalType":"string"},{"name":"repoOwner","type":"string","internalType":"string"},{"name":"repoName","type":"string","internalType":"string"},{"name":"branch","type":"string","internalType":"string"},{"name":"verified","type":"bool","internalType":"bool"},{"name":"resultMessage","type":"string","internalType":"string"},{"name":"timestamp","type":"uint256","internalType":"uint256"}]}],"stateMutability":"view"},{"type":"function","name":"getVerifiedContributorsForRepo","inputs":[{"name":"repoOwner","type":"string","internalType":"string"},{"name":"repoName","type":"string","internalType":"string"}],"outputs":[{"name":"contributors","type":"address[]","internalType":"address[]"},{"name":"usernames","type":"string[]","internalType":"string[]"}],"stateMutability":"view"},{"type":"function","name":"hasUsernameVerifiedCommitsForRepo","inputs":[{"name":"username","type":"string","internalType":"string"},{"name":"repoOwner","type":"string","internalType":"string"},{"name":"repoName","type":"string","internalType":"string"}],"outputs":[{"name":"","type":"bool","internalType":"bool"},{"name":"","type":"address","internalType":"address"}],"stateMutability":"view"},{"type":"function","name":"hasUsernameVerifiedCommitsForRepoWithAccount","inputs":[{"name":"username","type":"string","internalType":"string"},{"name":"repoOwner","type":"string","internalType":"string"},{"name":"repoName","type":"string","internalType":"string"},{"name":"account","type":"address","internalType":"address"}],"outputs":[{"name":"","type":"bool","internalType":"bool"}],"stateMutability":"view"},{"type":"function","name":"hasVerifiedCommitsForRepo","inputs":[{"name":"account","type":"address","internalType":"address"},{"name":"repoOwner","type":"string","internalType":"string"},{"name":"repoName","type":"string","internalType":"string"}],"outputs":[{"name":"","type":"bool","internalType":"bool"}],"stateMutability":"view"},{"type":"function","name":"multipleVerificationResults","inputs":[{"name":"","type":"bytes32","internalType":"bytes32"}],"outputs":[{"name":"repoOwner","type":"string","internalType":"string"},{"name":"repoName","type":"string","internalType":"string"},{"name":"branch","type":"string","internalType":"string"},{"name":"timestamp","type":"uint256","internalType":"uint256"}],"stateMutability":"view"},{"type":"function","name":"prover","inputs":[],"outputs":[{"name":"","type":"address","internalType":"address"}],"stateMutability":"view"},{"type":"function","name":"verificationCounter","inputs":[],"outputs":[{"name":"","type":"uint256","internalType":"uint256"}],"stateMutability":"view"},{"type":"function","name":"verificationHistory","inputs":[{"name":"","type":"address","internalType":"address"},{"name":"","type":"uint256","internalType":"uint256"}],"outputs":[{"name":"account","type":"address","internalType":"address"},{"name":"username","type":"string","internalType":"string"},{"name":"repoOwner","type":"string","internalType":"string"},{"name":"repoName","type":"string","internalType":"string"},{"name":"branch","type":"string","internalType":"string"},{"name":"verified","type":"bool","internalType":"bool"},{"name":"resultMessage","type":"string","internalType":"string"},{"name":"timestamp","type":"uint256","internalType":"uint256"}],"stateMutability":"view"},{"type":"function","name":"verifier","inputs":[],"outputs":[{"name":"","type":"address","internalType":"contract IProofVerifier"}],"stateMutability":"view"},{"type":"function","name":"verifyGitHubCommit","inputs":[{"name":"proof","type":"tuple","internalType":"struct Proof","components":[{"name":"seal","type":"tuple","internalType":"struct Seal","components":[{"name":"verifierSelector","type":"bytes4","internalType":"bytes4"},{"name":"seal","type":"bytes32[8]","internalType":"bytes32[8]"},{"name":"mode","type":"uint8","internalType":"enum ProofMode"}]},{"name":"callGuestId","type":"bytes32","internalType":"bytes32"},{"name":"length","type":"uint256","internalType":"uint256"},{"name":"callAssumptions","type":"tuple","internalType":"struct CallAssumptions","components":[{"name":"proverContractAddress","type":"address","internalType":"address"},{"name":"functionSelector","type":"bytes4","internalType":"bytes4"},{"name":"settleChainId","type":"uint256","internalType":"uint256"},{"name":"settleBlockNumber","type":"uint256","internalType":"uint256"},{"name":"settleBlockHash","type":"bytes32","internalType":"bytes32"}]}]},{"name":"verified","type":"bool","internalType":"bool"},{"name":"resultMessage","type":"string","internalType":"string"},{"name":"account","type":"address","internalType":"address"},{"name":"username","type":"string","internalType":"string"},{"name":"repoOwner","type":"string","internalType":"string"},{"name":"repoName","type":"string","internalType":"string"},{"name":"branch","type":"string","internalType":"string"}],"outputs":[],"stateMutability":"nonpayable"},{"type":"function","name":"verifyMultipleGitHubCommits","inputs":[{"name":"proof","type":"tuple","internalType":"struct Proof","components":[{"name":"seal","type":"tuple","internalType":"struct Seal","components":[{"name":"verifierSelector","type":"bytes4","internalType":"bytes4"},{"name":"seal","type":"bytes32[8]","internalType":"bytes32[8]"},{"name":"mode","type":"uint8","internalType":"enum ProofMode"}]},{"name":"callGuestId","type":"bytes32","internalType":"bytes32"},{"name":"length","type":"uint256","internalType":"uint256"},{"name":"callAssumptions","type":"tuple","internalType":"struct CallAssumptions","components":[{"name":"proverContractAddress","type":"address","internalType":"address"},{"name":"functionSelector","type":"bytes4","internalType":"bytes4"},{"name":"settleChainId","type":"uint256","internalType":"uint256"},{"name":"settleBlockNumber","type":"uint256","internalType":"uint256"},{"name":"settleBlockHash","type":"bytes32","internalType":"bytes32"}]}]},{"name":"results","type":"bool[]","internalType":"bool[]"},{"name":"resultMessages","type":"string[]","internalType":"string[]"},{"name":"accounts","type":"address[]","internalType":"address[]"},{"name":"usernames","type":"string[]","internalType":"string[]"},{"name":"repoOwner","type":"string","internalType":"string"},{"name":"repoName","type":"string","internalType":"string"},{"name":"branch","type":"string","internalType":"string"}],"outputs":[],"stateMutability":"nonpayable"},{"type":"event","name":"GitHubCommitVerified","inputs":[{"name":"account","type":"address","indexed":true,"internalType":"address"},{"name":"username","type":"string","indexed":false,"internalType":"string"},{"name":"repoOwner","type":"string","indexed":false,"internalType":"string"},{"name":"repoName","type":"string","indexed":false,"internalType":"string"},{"name":"branch","type":"string","indexed":false,"internalType":"string"},{"name":"verified","type":"bool","indexed":false,"internalType":"bool"},{"name":"resultMessage","type":"string","indexed":false,"internalType":"string"}],"anonymous":false},{"type":"event","name":"MultipleGitHubCommitsVerified","inputs":[{"name":"accounts","type":"address[]","indexed":false,"internalType":"address[]"},{"name":"usernames","type":"string[]","indexed":false,"internalType":"string[]"},{"name":"repoOwner","type":"string","indexed":false,"internalType":"string"},{"name":"repoName","type":"string","indexed":false,"internalType":"string"},{"name":"branch","type":"string","indexed":false,"internalType":"string"},{"name":"results","type":"bool[]","indexed":false,"internalType":"bool[]"}],"anonymous":false},{"type":"error","name":"InvalidChainId","inputs":[]}],"bytecode":{"object":"0x60a080604052346200008557602081620066cb80380380916200002382856200008a565b8339810103126200008557516001600160a01b038082169182900362000085576200004d620000c4565b1660018060a01b031990816000541617600055336080526001541617600155604051613c43908162000489823960805181610a1b0152f35b600080fd5b601f909101601f19168101906001600160401b03821190821017620000ae57604052565b634e487b7160e01b600052604160045260246000fd5b6000617a6946148015620003c1575b8015620003b0575b156200022a57604080516001600160401b0392906113d18082019085821183831017620002165784918391620040cc833930815230602082015203019082f09283156200020a576001600160a01b0393841690813b15620002065783516384cf84e160e01b81527fdcb00648ecc90d8bfe92aa8d51061beb0bcb110d274fc4a517e526574233d36b6004820152838160248183875af18015620001fc57620001d3575b5083519161122e80840192831184841017620001bf579183916020936200549d8439815203019082f0918215620001b55750501690565b51903d90823e3d90fd5b634e487b7160e01b85526041600452602485fd5b818194929411620001e857845291386200017e565b634e487b7160e01b82526041600452602482fd5b85513d86823e3d90fd5b8280fd5b509051903d90823e3d90fd5b634e487b7160e01b84526041600452602484fd5b50600146148015620003a5575b80156200039a575b80156200038e575b801562000382575b801562000376575b80156200036a575b80156200035e575b801562000352575b156200028d57735553cf6ce25e3f80fad2866f6230346159ecd89c90565b62aa36a74614801562000346575b80156200033a575b80156200032e575b801562000321575b801562000314575b801562000307575b8015620002fa575b620002e257604051633d23e4d160e11b8152600490fd5b738972b6ff413ac04e61e19f07d7f3bd980d0cc32190565b5062aa37dc4614620002cb565b5062066eee4614620002c3565b5062014a344614620002bb565b50620138824614620002b3565b5061e7054614620002ab565b506112c14614620002a3565b5061012c46146200029b565b5061e70846146200026f565b5061a4ba461462000267565b5061a4b146146200025f565b50612105461462000257565b506101e046146200024f565b50610144461462000247565b50608946146200023f565b50600a461462000237565b50620003bb620003ce565b620000db565b50620499194614620000d3565b60008080808073f4e4fdca9d5d55e64525e314391996a15f7ec61e5afa3d156200047f573d906001600160401b0382116200046b57604051916200041d601f8201601f1916602001846200008a565b82523d83602084013e5b15801562000461575b6200045d5760208180518101031262000459576020015190811515820362000456575090565b80fd5b5080fd5b5090565b5080511562000430565b634e487b7160e01b83526041600452602483fd5b6060906200042756fe6080604052600436101561001257600080fd5b60003560e01c8063132bd9601461197357806316cd94fc146119555780631d2a67b9146118cf57806320524a2a146117e8578063259c4e1b146117585780632b7ac3f31461172f57806332a8f30f1461170657806334f490c1146116a85780633a619f28146115b3578063801e3fc114610d9d578063873fcabf14610c8f5780639b8b30c8146109ef578063a3b7068f14610963578063bbea644714610518578063f017c5a6146104de5763f01ac1fe146100cc57600080fd5b346104d95760403660031901126104d9576001600160401b036004358181116104d9576100fd90369060040161298f565b906024359081116104d95761011690369060040161298f565b604051610122816128ab565b6103e88152617d0092833660208401376040519361013f856128ab565b6103e8855260005b8181106104c85750506000906000600454905b60328110806104bf575b156103ca57610e108082029082820414821517156103b4576101878491426132f4565b61019183856132f4565b6101a689604051948593602085019586613301565b03916101ba601f19938481018352826128c7565b519020600052600360205260406000209060405160208101906101f0816101e4846002880161334a565b038481018352826128c7565b519020604051602081019061021f602082816102128c87815193849201612a82565b81010380845201826128c7565b519020149081610362575b5061023f575b5061023a906132d5565b61015a565b600181015496909391929160005b88811080610357575b156103495760ff61026a82600589016133e6565b90549060031b1c16610285575b610280906132d5565b61024d565b89886000805b8a811061030a575b50156102a1575b5050610277565b97610300916102ef826102e96102e3876001819f8f906102dc876102c86102809e856133ce565b868060a01b0391549060031b1c1692612da1565b52016133ce565b50612b97565b92612da1565b526102fa818d612da1565b506132d5565b969050898861029a565b6001600160a01b038061031d8386612da1565b51169061032a878d6133ce565b90549060031b1c161461033f5760010161028b565b5050600138610293565b50935095509061023a610230565b506103e88710610256565b905060405161038960208201928261037d856003880161334a565b039081018352826128c7565b519020876040516103aa602082816102128183019687815193849201612a82565b519020143861022a565b634e487b7160e01b600052601160045260246000fd5b8684866103d6826128e8565b916103e460405193846128c7565b8083526103f0816128e8565b601f1992908301366020860137610406826128e8565b9261041460405194856128c7565b828452610420836128e8565b0160005b8181106104ae57505060005b828110610465576104538561046186604051938493604085526040850190612c3c565b908382036020850152612c79565b0390f35b6001906001600160a01b0361047a8285612da1565b51166104868288612da1565b526104918188612da1565b5161049c8287612da1565b526104a78186612da1565b5001610430565b806060602080938801015201610424565b50818110610164565b806060602080938901015201610147565b600080fd5b346104d95760203660031901126104d9576001600160a01b036104ff612a55565b1660005260026020526020604060002054604051908152f35b346104d957366003190161030081126104d957610220908181126104d9576102243580151581036104d9576001600160401b0390610244358281116104d95761056590369060040161298f565b936102649182356001600160a01b03811681036104d9576102849283358681116104d95761059790369060040161298f565b946102a4358781116104d9576105b190369060040161298f565b916102c4358881116104d9576105cb90369060040161298f565b976102e4359081116104d9576105e590369060040161298f565b9560018060a01b0360015416916105fa613acf565b50366004116104d9576101406040519b6106138d61282b565b126104d95760405161062481612846565b61062c613b41565b815236604312156104d9576040516106438161280f565b80610124913683116104d9576024905b83821061095357505060208301523560028110156104d95760408201528b526101443560208c015260408b0161016435815260a0610183193601126104d9576106df908c6060604051916106a683612861565b6106ae612a6b565b83526106b8613b58565b60208401526101c43560408401526101e435828401526102043560808401520152516132e4565b80609f198101116103b4576106f790609f1901613b70565b9036610224116104d95761070a3661291a565b9180610224116104d9573681116104d9576020926000926107b2856107386107c39536906102231901612955565b92610741613acf565b5061074a613acf565b936040519161075c8484018097613a09565b82526107678261288f565b604051948592610793856107848187019a8b815193849201612a82565b85019151809387840190612a82565b016107a682518093868085019101612a82565b010380845201826128c7565b604051928392839251928391612a82565b8101039060025afa1561094757600080519054909a906001600160a01b0316803b156104d95760009461080c946040519d8e96879563c4fa74e560e01b87526004870190613a09565b610224850152610244840152635bede40960e11b908301525afa938415610947576109066108ea976108f8610914947f93c457189033fe25fa62230ee22079d806462e55dc981af93afbb65b59839dff9b61093399610938575b506108c88d604051906108788261280f565b6001600160a01b038a1680835260208084018f9052604080850187905260608501899052608085018b90528d151560a086015260c08501939093524260e085015260009182526002905220612db5565b6108d36004546132d5565b6004556040519a8b9a60c08c5260c08c0190612aa5565b908a820360208c0152612aa5565b9088820360408a0152612aa5565b908682036060880152612aa5565b911515608085015283820360a08501526001600160a01b031695612aa5565b0390a2005b6109419061287c565b8d610866565b6040513d6000823e3d90fd5b8135815260209182019101610653565b346104d95760803660031901126104d9576001600160401b036004358181116104d95761099490369060040161298f565b6024358281116104d9576109ac90369060040161298f565b916044359081116104d9576109c590369060040161298f565b606435906001600160a01b03821682036104d9576020936109e593613855565b6040519015158152f35b346104d9576020806003193601126104d9576004356001600160a01b0381811692918390036104d957807f0000000000000000000000000000000000000000000000000000000000000000163303610c4057617a6946148015610c34575b8015610c26575b8015610b9f575b15610b3457604051631feb379160e11b81528281600481875afa90811561094757600091610afe575b501615610aa957506bffffffffffffffffffffffff60a01b6000541617600055600080f35b6084906040519062461bcd60e51b82526004820152602860248201527f56657269666965722773207265706f7369746f72792061646472657373206973604482015267081b9bdd081cd95d60c21b6064820152fd5b90508281813d8311610b2d575b610b1581836128c7565b810103126104d9575181811681036104d95784610a84565b503d610b0b565b60405162461bcd60e51b815260048101839052603760248201527f4368616e67696e6720766572696669657273206973206f6e6c7920616c6c6f7760448201527f6564206f6e206465766e6574206f7220746573746e65740000000000000000006064820152608490fd5b5062aa36a746148015610c1b575b8015610c10575b8015610c05575b8015610bf9575b8015610bed575b8015610be1575b80610a5b575062aa37dc4614610a5b565b5062066eee4614610bd0565b5062014a344614610bc9565b50620138824614610bc2565b5061e7054614610bbb565b506112c14614610bb4565b5061012c4614610bad565b50610c2f613b80565b610a54565b50620499194614610a4d565b60405162461bcd60e51b815260048101839052602160248201527f4f6e6c79206465706c6f7965722063616e206368616e676520766572696669656044820152603960f91b6064820152608490fd5b346104d95760403660031901126104d957610ca8612a55565b6001600160a01b0390811660009081526002602052604090208054602435908110156104d957610cd791612d0c565b5090815416610ce860018301612b97565b91610d93610cf860028301612b97565b91610d0560038201612b97565b90610d7e610d1560048301612b97565b610d7060ff60058501541694610d626007610d3260068801612b97565b96015498610d546040519c8d809d6020610100928392815201528d0190612aa5565b908b820360408d0152612aa5565b9089820360608b0152612aa5565b908782036080890152612aa5565b91151560a086015284820360c0860152612aa5565b9060e08301520390f35b346104d95760203660031901126104d957600060e0604051610dbe8161280f565b60608152606060208201526060604082015260608082015260606080820152606060a0820152606060c0820152015260043560005260036020526040600020604051610e098161280f565b60405180816020855492838152018560005260206000209260005b818110611591575050610e39925003826128c7565b8152610e4760018301613800565b6020820152610e5860028301612b97565b6040820152610e6960038301612b97565b6060820152610e7a60048301612b97565b6080820152604051918260206005830154948581520193600583016000526020600020906000915b81601f8401106113af5795610fbf928492600797985491818110611399575b818110611380575b818110611367575b81811061134e575b818110611336575b81811061131d575b818110611304575b8181106112eb575b8181106112d2575b8181106112b9575b8181106112a0575b818110611287575b81811061126e575b818110611255575b81811061123c575b818110611223575b81811061120a575b8181106111f1575b8181106111d8575b8181106111bf575b8181106111a6575b81811061118d575b818110611174575b81811061115b575b818110611142575b818110611129575b818110611110575b8181106110f7575b8181106110de575b8181106110c5575b8181106110ac575b1061109c575b5003826128c7565b60a0840152610fd060068201613800565b60c0840152015460e0820152604051809160208252805160e061109161100461010093846020880152610120870190612c3c565b61107d61106961105561104161102d60208a015195601f19968c60408982850301910152612c79565b60408a0151868c83030160608d0152612aa5565b6060890151858b83030160808c0152612aa5565b6080880151848a83030160a08b0152612aa5565b60a0870151838983030160c08a0152612cd6565b9060c0860151908783030184880152612c79565b920151908301520390f35b60f81c1515815260200187610fb7565b92602060019160ff8560f01c1615158152019301610fb1565b92602060019160ff8560e81c1615158152019301610fa9565b92602060019160ff8560e01c1615158152019301610fa1565b92602060019160ff8560d81c1615158152019301610f99565b92602060019160ff8560d01c1615158152019301610f91565b92602060019160ff8560c81c1615158152019301610f89565b92602060019160ff8560c01c1615158152019301610f81565b92602060019160ff8560b81c1615158152019301610f79565b92602060019160ff8560b01c1615158152019301610f71565b92602060019160ff8560a81c1615158152019301610f69565b92602060019160ff8560a01c1615158152019301610f61565b92602060019160ff8560981c1615158152019301610f59565b92602060019160ff8560901c1615158152019301610f51565b92602060019160ff8560881c1615158152019301610f49565b92602060019160ff8560801c1615158152019301610f41565b92602060019160ff8560781c1615158152019301610f39565b92602060019160ff8560701c1615158152019301610f31565b92602060019160ff8560681c1615158152019301610f29565b92602060019160ff8560601c1615158152019301610f21565b92602060019160ff8560581c1615158152019301610f19565b92602060019160ff8560501c1615158152019301610f11565b92602060019160ff8560481c1615158152019301610f09565b92602060019160ff8560401c1615158152019301610f01565b92602060019160ff8560381c1615158152019301610ef9565b92602060019160ff8560301c1615158152019301610ef1565b92602060019160ff8560281c1615158152019301610ee9565b92602060019160ff85831c1615158152019301610ee1565b92602060019160ff8560181c1615158152019301610ed9565b92602060019160ff8560101c1615158152019301610ed1565b92602060019160ff8560081c1615158152019301610ec9565b92602060019160ff851615158152019301610ec1565b956001610400602092895460ff81161515825260ff8160081c1615158583015260ff8160101c161515604083015260ff8160181c161515606083015260ff81861c161515608083015260ff8160281c16151560a083015260ff8160301c16151560c083015260ff8160381c16151560e083015260ff8160401c16151561010083015260ff8160481c16151561012083015260ff8160501c16151561014083015260ff8160581c16151561016083015260ff8160601c16151561018083015260ff8160681c1615156101a083015260ff8160701c1615156101c083015260ff8160781c1615156101e083015260ff8160801c16151561020083015260ff8160881c16151561022083015260ff8160901c16151561024083015260ff8160981c16151561026083015260ff8160a01c16151561028083015260ff8160a81c1615156102a083015260ff8160b01c1615156102c083015260ff8160b81c1615156102e083015260ff8160c01c16151561030083015260ff8160c81c16151561032083015260ff8160d01c16151561034083015260ff8160d81c16151561036083015260ff8160e01c16151561038083015260ff8160e81c1615156103a083015260ff8160f01c1615156103c083015260f81c15156103e0820152019701920191610ea2565b84546001600160a01b0316835260019485019486945060209093019201610e24565b346104d9576020806003193601126104d9576115cd612a55565b600060e06040516115dd8161280f565b8281526060808683015280604083015280808301528060808301528360a083015260c0820152015260018060a01b03168060005260028252604060002054156116635760005260028152604060002080549060001982019182116103b45761164e9161164891612d0c565b50613619565b90610461604051928284938452830190612aca565b60405162461bcd60e51b815260048101839052601d60248201527f4e6f20766572696669636174696f6e20686973746f727920666f756e640000006044820152606490fd5b346104d95760603660031901126104d9576116c1612a55565b6001600160401b036024358181116104d9576116e190369060040161298f565b916044359182116104d9576020926117006109e593369060040161298f565b916136a7565b346104d95760003660031901126104d9576001546040516001600160a01b039091168152602090f35b346104d95760003660031901126104d9576000546040516001600160a01b039091168152602090f35b346104d95760203660031901126104d95760043560005260036020526117c2604060002061178860028201612b97565b906117de61179860038301612b97565b916117d060076117aa60048401612b97565b92015493604051968796608088526080880190612aa5565b908682036020880152612aa5565b908482036040860152612aa5565b9060608301520390f35b346104d9576020806003193601126104d9576001600160a01b0361180a612a55565b1660005260028152604060002090815491611824836128e8565b9261183260405194856128c7565b8084528284018092600052836000206000915b8383106118ac5750505050604051918083019381845251809452604083019360408160051b85010192916000955b8287106118805785850386f35b90919293828061189c600193603f198a82030186528851612aca565b9601920196019592919092611873565b6008866001926118be859a999a613619565b815201920192019190959495611845565b346104d95760603660031901126104d9576001600160401b036004358181116104d95761190090369060040161298f565b906024358181116104d95761191990369060040161298f565b916044359182116104d95760409261193861193e93369060040161298f565b91613406565b825191151582526001600160a01b03166020820152f35b346104d95760003660031901126104d9576020600454604051908152f35b346104d9576103003660031901126104d9576102203660031901126104d957610224356001600160401b0381116104d957366023820112156104d95780600401356119bd816128e8565b916119cb60405193846128c7565b81835260208301906024829360051b820101903682116104d957602401915b8183106127f657505050610244356001600160401b0381116104d957611a149036906004016129d6565b6001600160401b0361026435116104d957366023610264350112156104d957611a4361026435600401356128e8565b611a5060405191826128c7565b61026435600401358152602081019384366024610264356004013560051b610264350101116104d95760246102643501905b6024610264356004013560051b61026435010182106127d6575050610284356001600160401b0381116104d957611abd9036906004016129d6565b926102a4356001600160401b0381116104d957611ade90369060040161298f565b946102c4356001600160401b0381116104d957611aff90369060040161298f565b966102e4356001600160401b0381116104d957611b2090369060040161298f565b6001549092906001600160a01b0316611b37613acf565b50366004116104d957604051611b4c8161282b565b6101403660031901126104d957604051611b6581612846565b611b6d613b41565b815236604312156104d957604051611b848161280f565b8036610124116104d9576024905b61012482106127c6575050602082015260026101243510156104d957610124356040820152815261014435602082015261016435604082015260a0610183193601126104d957604051611be481612861565b611bec612a6b565b8152611bf6613b58565b60208201526101c43560408201526101e43560608201526102043560808201526060820152611c2860408201516132e4565b609f1981019081116103b457611c3d90613b70565b36610224116104d957611c4f3661291a565b81610224116104d9573682116104d957611cac600091611c7760209436906102231901612955565b611c7f613acf565b506107b285611c8c613acf565b9260405190611c9e8383018096613a09565b61022082526107678261288f565b8101039060025afa15610947576000519160018060a01b036000541690813b156104d957600092611cf79261028492604051968795869463c4fa74e560e01b86526004860190613a09565b6102248401526102448301526354f8dea160e01b6102648301525afa8015610947576127b7575b50611d2c8551875114612d3e565b611d398751875114612d3e565b611d468451875114612d3e565b60045460405160208101914283526040820152611dac6060828d8d611d748151809260208787019101612a82565b8201611d898251809360208785019101612a82565b01885190611d9d8285830160208d01612a82565b010360408101845201826128c7565b51902060005260036020526040600020918651906001600160401b03821161226f57600160401b821161226f578354828555808310612799575b5083600052602060002060005b83811061277c57505050508651600160401b811161226f576001830154816001850155808210612703575b506020880190600184016000526020600020916000905b8282106125ea575050505087516001600160401b03811161226f57611e5d6002840154612b5d565b601f81116125b5575b506020601f8211600114612548579080611e969260009161253d575b508160011b916000199060031b1c19161790565b60028301555b88516001600160401b03811161226f57611eb96003840154612b5d565b601f8111612508575b506020601f821160011461249b579080611ef19260009161249057508160011b916000199060031b1c19161790565b60038301555b82516001600160401b03811161226f57611f146004840154612b5d565b601f811161245b575b506020601f82116001146123ef579080611f4c926000916123e457508160011b916000199060031b1c19161790565b60048301555b8451906001600160401b03821161226f57600160401b821161226f576005830154826005850155808310612393575b50906005830160005260206000209060005b8160051c811061234d5750601f1981168082036122fd575b505050508251600160401b811161226f576006820154816006840155808210612285575b506020840190600683016000526020600020916000905b828210612148575050505060074291015560005b84518110156120a15760019061209b6001600160a01b0361201b8389612da1565b5116612027838a612da1565b516120328489612da1565b51151561203f8589612da1565b51916040519361204e8561280f565b845260208401528b60408401528c606084015286608084015260a083015260c08201524260e0820152838060a01b03612087848a612da1565b511660005260026020526040600020612db5565b01611ffa565b5061213591506121277f84134cc25ff3b9c251d653513ce9f0feecbb7d39b8d82f2f744afd0619993c16976121196120fd9861210b61214398996120e66004546132d5565b6004556040519b8c9b60c08d5260c08d0190612c3c565b908b820360208d0152612c79565b9089820360408b0152612aa5565b908782036060890152612aa5565b908582036080870152612aa5565b9083820360a0850152612cd6565b0390a1005b80518051906001600160401b03821161226f576121658654612b5d565b601f8111612232575b50602090601f83116001146121c257926121a8836001959460209487966000926121b7575b50508160011b916000199060031b1c19161790565b87555b01940191019092611fe6565b015190503880612193565b908660005260206000209160005b601f198516811061221a575083602093600196938796938794601f19811610612201575b505050811b0187556121ab565b015160001960f88460031b161c191690553880806121f4565b919260206001819286850151815501940192016121d0565b61225f90876000526020600020601f850160051c81019160208610612265575b601f0160051c0190612d8a565b8e61216e565b9091508190612252565b634e487b7160e01b600052604160045260246000fd5b600683016000526020600020908282015b81830181106122a6575050611fcf565b806122b360019254612b5d565b806122c0575b5001612296565b601f811183146122d65750600081555b8d6122b9565b6000908282526122f4601f60208420920160051c8201858301612d8a565b818355556122d0565b9260009360005b818403811061231e5750505060051c015588808080611fab565b90919460206123436001928489511515919060ff809160031b9316831b921b19161790565b9601929101612304565b6000805b60208110612366575083820155600101611f93565b9490602061238a6001928885511515919060ff809160031b9316831b921b19161790565b92019501612351565b6123c390600585016000526020600020601f80860160051c820192818716806123c9575b500160051c0190612d8a565b8a611f81565b600019908186019182549160200360031b1c1690558f6123b7565b90508501518c611e82565b906004840160005260206000206000925b601f1983168410612443576001935082601f1981161061242a575b5050811b016004830155611f52565b86015160001960f88460031b161c191690558b8061241b565b86810151825560209384019360019092019101612400565b61248a90600485016000526020600020601f840160051c8101916020851061226557601f0160051c0190612d8a565b8a611f1d565b90508b01518c611e82565b906003840160005260206000206000925b8c601f19841685106124f157506001935082601f198116106124d8575b5050811b016003830155611ef7565b8c015160001960f88460031b161c191690558b806124c9565b8101518255602093840193600190920191016124ac565b61253790600385016000526020600020601f840160051c8101916020851061226557601f0160051c0190612d8a565b8a611ec2565b90508a01518c611e82565b906002840160005260206000206000925b8b601f198416851061259e57506001935082601f19811610612585575b5050811b016002830155611e9c565b8b015160001960f88460031b161c191690558b80612576565b810151825560209384019360019092019101612559565b6125e490600285016000526020600020601f840160051c8101916020851061226557601f0160051c0190612d8a565b8a611e66565b80518051906001600160401b03821161226f576126078654612b5d565b90601f918281116126c9575b506020918311600114612659579261264a836001959460209487966000926121b75750508160011b916000199060031b1c19161790565b87555b01940191019092611e35565b908660005260206000209160005b601f19851681106126b1575083602093600196938796938794601f19811610612698575b505050811b01875561264d565b015160001960f88460031b161c1916905538808061268b565b91926020600181928685015181550194019201612667565b6126f4908860005260206000208480870160051c820192602088106126fa575b0160051c0190612d8a565b38612613565b925081926126e9565b600184016000526020600020908282015b8183018110612724575050611e1e565b8061273160019254612b5d565b8061273e575b5001612714565b601f908181118414612757575050600081555b8e612737565b61277360009284845260208420920160051c8201858301612d8a565b81835555612751565b82516001600160a01b031681830155602090920191600101611df3565b6127b190856000528360206000209182019101612d8a565b8b611de6565b6127c09061287c565b89611d1e565b8135815260209182019101611b92565b81356001600160a01b03811681036104d957815260209182019101611a82565b823580151581036104d9578152602092830192016119ea565b61010081019081106001600160401b0382111761226f57604052565b608081019081106001600160401b0382111761226f57604052565b606081019081106001600160401b0382111761226f57604052565b60a081019081106001600160401b0382111761226f57604052565b6001600160401b03811161226f57604052565b61024081019081106001600160401b0382111761226f57604052565b617d2081019081106001600160401b0382111761226f57604052565b90601f801991011681019081106001600160401b0382111761226f57604052565b6001600160401b03811161226f5760051b60200190565b6001600160401b03811161226f57601f01601f191660200190565b9060405160c081018181106001600160401b0382111761226f5780604052819360a08352610224116104d95760a06101846020600094013752565b9190612960836128ff565b9061296e60405192836128c7565b819380835261022491818301116104d9578281602093846000960137010152565b81601f820112156104d9578035906129a6826128ff565b926129b460405194856128c7565b828452602083830101116104d957816000926020809301838601378301015290565b81601f820112156104d9578035916020916129f0846128e8565b936129fe60405195866128c7565b808552838086019160051b830101928084116104d957848301915b848310612a295750505050505090565b82356001600160401b0381116104d9578691612a4a8484809489010161298f565b815201920191612a19565b600435906001600160a01b03821682036104d957565b61018435906001600160a01b03821682036104d957565b60005b838110612a955750506000910152565b8181015183820152602001612a85565b90602091612abe81518092818552858086019101612a82565b601f01601f1916010190565b9060e080612b54612b36612b24612b12612b0061010060018060a01b038a5116895260208a0151908060208b0152890190612aa5565b604089015188820360408a0152612aa5565b60608801518782036060890152612aa5565b60808701518682036080880152612aa5565b60a0860151151560a086015260c086015185820360c0870152612aa5565b93015191015290565b90600182811c92168015612b8d575b6020831014612b7757565b634e487b7160e01b600052602260045260246000fd5b91607f1691612b6c565b90604051918260008254612baa81612b5d565b90818452602094600191600181169081600014612c1a5750600114612bdb575b505050612bd9925003836128c7565b565b600090815285812095935091905b818310612c02575050612bd99350820101388080612bca565b85548884018501529485019487945091830191612be9565b92505050612bd994925060ff191682840152151560051b820101388080612bca565b90815180825260208080930193019160005b828110612c5c575050505090565b83516001600160a01b031685529381019392810192600101612c4e565b90808251908181526020809101926020808460051b8301019501936000915b848310612ca85750505050505090565b9091929394958480612cc6600193601f198682030187528a51612aa5565b9801930193019194939290612c98565b90815180825260208080930193019160005b828110612cf6575050505090565b8351151585529381019392810192600101612ce8565b8054821015612d285760005260206000209060031b0190600090565b634e487b7160e01b600052603260045260246000fd5b15612d4557565b60405162461bcd60e51b815260206004820152601860248201527f4d69736d617463686564206172726179206c656e6774687300000000000000006044820152606490fd5b818110612d95575050565b60008155600101612d8a565b8051821015612d285760209160051b010190565b908154600160401b81101561226f57612dd5906001938482018155612d0c565b9290926132bf57815183546001600160a01b0319166001600160a01b039190911617835560208083015180516001600160401b0392908487019084811161226f57612e208254612b5d565b93601f94858111613291575b50839085831160011461322f57612e5b9291600091836121b75750508160011b916000199060031b1c19161790565b90555b60028601604086015180519085821161226f57612e7b8354612b5d565b858111613201575b50839085831160011461319f57612eb29291600091836121b75750508160011b916000199060031b1c19161790565b90555b60038601606086015180519085821161226f57612ed28354612b5d565b858111613171575b50839085831160011461310f57612f099291600091836121b75750508160011b916000199060031b1c19161790565b90555b60048601608086015180519085821161226f57612f298354612b5d565b8581116130e1575b50839085831160011461307f57612f609291600091836121b75750508160011b916000199060031b1c19161790565b90555b6005860160a0860151151560ff80198354169116179055600686019360c086015191825194851161226f57612f988654612b5d565b848111613051575b5080938511600114612fe1575050826007959360e09593612fd7936000926121b75750508160011b916000199060031b1c19161790565b90555b0151910155565b91601f949391941984168660005283600020936000905b82821061303a575050916007979593918560e098969410613021575b505050811b019055612fda565b015160001960f88460031b161c19169055388080613014565b808886978294978701518155019601940190612ff8565b6130799087600052826000208680890160051c820192858a106126fa570160051c0190612d8a565b38612fa0565b879291601f1983169185600052866000209260005b888282106130cb57505084116130b2575b505050811b019055612f63565b015160001960f88460031b161c191690553880806130a5565b8385015186558c97909501949384019301613094565b6131099084600052856000208780860160051c8201928887106126fa570160051c0190612d8a565b38612f31565b879291601f1983169185600052866000209260005b8882821061315b5750508411613142575b505050811b019055612f0c565b015160001960f88460031b161c19169055388080613135565b8385015186558c97909501949384019301613124565b6131999084600052856000208780860160051c8201928887106126fa570160051c0190612d8a565b38612eda565b879291601f1983169185600052866000209260005b888282106131eb57505084116131d2575b505050811b019055612eb5565b015160001960f88460031b161c191690553880806131c5565b8385015186558c979095019493840193016131b4565b6132299084600052856000208780860160051c8201928887106126fa570160051c0190612d8a565b38612e83565b879291601f1983169185600052866000209260005b8882821061327b5750508411613262575b505050811b019055612e5e565b015160001960f88460031b161c19169055388080613255565b8385015186558c97909501949384019301613244565b6132b99084600052856000208780860160051c8201928887106126fa570160051c0190612d8a565b38612e2c565b634e487b7160e01b600052600060045260246000fd5b60001981146103b45760010190565b61021f198101919082116103b457565b919082039182116103b457565b9091604494939282526020820152613323825180936020604085019101612a82565b01613338825180936020604085019101612a82565b016336b0b4b760e11b60408201520190565b60009291815461335981612b5d565b926001918083169081156133b35750600114613376575b50505050565b9091929394506000526020906020600020906000915b8583106133a25750505050019038808080613370565b80548584015291830191810161338c565b60ff1916845250505081151590910201915038808080613370565b8054821015612d285760005260206000200190600090565b9190918054831015612d2857600052601f60206000208360051c01921690565b909192600093600493600454955b6064811080613610575b1561360157610e108082029082820414821517156135ec5761344090426132f4565b61344a82896132f4565b60408051928361346288886020968785019586613301565b0393613476601f19958681018352826128c7565b51902060005260039081835280600020908051848101906134aa8161349e846002880161334a565b038881018352826128c7565b5190208782516134c98782816102128183019687815193849201612a82565b51902014806135ad575b6134eb575b50505050506134e6906132d5565b613414565b6000936001958684018054965b87811061350857505050506134d8565b8d61351382846133ce565b50865161353381613527898201809561334a565b038781018352826128c7565b5190209086516135528782816102128183019687815193849201612a82565b5190201480613591575b6135675788016134f8565b9a505050505094509650509650506135809294506133ce565b9054911b1c6001600160a01b031690565b5060ff6135a182600589016133e6565b905490891b1c1661355c565b508051848101906135c48161349e8488880161334a565b5190208882516135e38782816102128183019687815193849201612a82565b519020146134d3565b601187634e487b7160e01b6000525260246000fd5b50505092505050600090600090565b5086811061341e565b906040516136268161280f565b82546001600160a01b0316815291829060e09060079061364860018201612b97565b602085015261365960028201612b97565b604085015261366a60038201612b97565b606085015261367b60048201612b97565b608085015260ff600582015416151560a085015261369b60068201612b97565b60c08501520154910152565b9160009260018060a01b031683526020906002825260408085209182546136cd816128e8565b936136da845195866128c7565b81855287528487208790868087015b8484106137e1575050505050855b83518110156137d8578261370b8286612da1565b51015183516137298782816102128183019687815193849201612a82565b5190208351868101906137488882816102128d87815193849201612a82565b5190201480613787575b80613770575b613764576001016136f7565b50505050505050600190565b5060a061377d8286612da1565b5101511515613758565b5060606137948286612da1565b51015183516137b28782816102128183019687815193849201612a82565b5190208351868101906137cf888287516102128187858c01612a82565b51902014613752565b50505050505090565b6001916008916137f085613619565b81520192019201919087906136e9565b90815461380c816128e8565b9261381a60405194856128c7565b818452600090815260208082208186015b848410613839575050505050565b600183819261384785612b97565b81520192019301929061382b565b9160009360018060a01b031684526020906002825260409081862092835461387c816128e8565b94613889855196876128c7565b81865288528188208890838088015b8484106139ea575050505050865b84518110156139e057816138ba8287612da1565b51015184516138d88482816102128183019687815193849201612a82565b5190208785516138f78582816102128183019687815193849201612a82565b519020148061398e575b8061393d575b80613926575b613919576001016138a6565b5050505050505050600190565b5060a06139338287612da1565b510151151561390d565b50606061394a8287612da1565b51015184516139688482816102128183019687815193849201612a82565b519020845183810190613985858288516102128187858d01612a82565b51902014613907565b508361399a8287612da1565b51015184516139b88482816102128183019687815193849201612a82565b5190208451838101906139d78582816102128d87815193849201612a82565b51902014613901565b5050505050505090565b6001916008916139f985613619565b8152019201920191908490613898565b80519063ffffffff60e01b9182815116845260209081810151828601836000915b60088310613ab8575050505060400151926002841015613aa25760606080936102009561012088015283810151610140880152604081015161016088015201519160018060a01b03835116610180870152820151166101a085015260408101516101c085015260608101516101e08501520151910152565b634e487b7160e01b600052602160045260246000fd5b908060019285518152019301910190918490613a2a565b604090815191613ade8361282b565b6060838251613aec81612846565b6000908181528451613afd8161280f565b610100368237602082015281858201528252806020830152808483015280845194613b2786612861565b818652816020870152850152808385015260808401520152565b600435906001600160e01b0319821682036104d957565b6101a435906001600160e01b0319821682036104d957565b906102249182018092116103b457565b60008080808073f4e4fdca9d5d55e64525e314391996a15f7ec61e5afa3d15613c05573d90613bae826128ff565b91613bbc60405193846128c7565b82523d83602084013e5b158015613bfc575b613bf857602081805181010312613bf45760200151908115158203613bf1575090565b80fd5b5080fd5b5090565b50805115613bce565b606090613bc656fea26469706673582212204a3210506fa651222fc8c0746e7956a6970282631b45492cdfefd33b9f025fde64736f6c634300081700336080346200012957601f620013d138819003918201601f19168301916001600160401b038311848410176200012e57808492604094855283398101031262000129576200005a6020620000528362000144565b920162000144565b90620000668162000159565b620000e3575b506200007881620001d9565b6200008e575b6040516110999081620002f88239f35b600080516020620013b18339815191526000526001602052620000db906001600160a01b03167fe05121899e4c04c40b7e0a2a39dcba2d093af16d5fdca78c38e106d157d2aad36200026a565b50386200007e565b60008052600160205262000121906001600160a01b03167fa6eef7e35abe7026729641147f7915573c7e97b47efa546f5f6e3230263bcb496200026a565b50386200006c565b600080fd5b634e487b7160e01b600052604160045260246000fd5b51906001600160a01b03821682036200012957565b6001600160a01b031660008181527fad3228b676f7d3cd4284a5443f17f1962b36e491b30a40b2405849e597ba5fb5602052604081205490919060ff16620001d557818052816020526040822081835260205260408220600160ff198254161790553391600080516020620013918339815191528180a4600190565b5090565b6001600160a01b031660008181527fd329ff8a035c3ce5df2b0dae604d660c0d8783bf7e64be00c1d10db96c0b87b46020526040812054909190600080516020620013b18339815191529060ff166200026557808352826020526040832082845260205260408320600160ff1982541617905560008051602062001391833981519152339380a4600190565b505090565b91906001830160009082825280602052604082205415600014620002f15784549468010000000000000000861015620002dd5760018601808255861015620002c957836040949596828552602085200155549382526020522055600190565b634e487b7160e01b83526032600452602483fd5b634e487b7160e01b83526041600452602483fd5b5092505056fe608060408181526004908136101561001657600080fd5b600092833560e01c90816301ffc9a714610894575080631af6c43114610867578063248a9ca31461083d5780632505a3bd146108105780632ad82eea146107905780632f2ff15d1461072557806336568abe146106de578063755e936f1461065f57806381e4c9a31461063157806384cf84e11461057c578063853b5d19146104f95780639010d07c146104b857806391d1485414610472578063a217fddf14610457578063ada8f919146103cc578063c5df91b51461030f578063ca0d53581461028d578063ca15c87314610265578063d547741f14610228578063e58378bb146101fb5763f2fde38b1461010b57600080fd5b346101f757602091826003193601126101f3576101266109b0565b916000805160206110448339815191529182865260018552818620908154156101e05750855283852054828652858552818620600101546001600160a01b03939184169061017390610afd565b61017c81610d8d565b6101c6575b5080865285855261019760018388200154610afd565b6101a084610bea565b6101a8578580f35b6101bc946001918752528420911690610ec9565b5038808080808580f35b6101d99082885260018752838820610f53565b5038610181565b634e487b7160e01b875260329052602486fd5b8380fd5b8280fd5b838234610224578160031936011261022457602090516000805160206110448339815191528152f35b5080fd5b50346101f757806003193601126101f757610261913561025c600161024b61099a565b938387528660205286200154610afd565b610b23565b5080f35b5090346101f75760203660031901126101f75760209282913581526001845220549051908152f35b50346101f7577f69c40cdda8ad6e074bf320a4a76804a6652eb5231bda91b690dcb98010b27079906102be36610902565b926102c7610a95565b83516020850120808652816020526102e460ff8488205416610a49565b855260205280842060ff19815416905551602081528061030933946020830190610a09565b0390a280f35b50346101f75760203660031901126101f75781359161032c610a95565b828452600360205260ff8285205416156103805750816020917f4072861add20da436ef0a8274b90d102aea17b603f972cc8196d51f1a5d561799385526003835280852060ff19815416905551908152a180f35b6020608492519162461bcd60e51b8352820152602160248201527f43616e6e6f74207265766f6b6520756e737570706f7274656420496d616765496044820152601160fa1b6064820152fd5b838234610224576020366003190112610224576103e76109b0565b828052826020526103fd60018385200154610afd565b61040681610b5e565b610432575b5061041533610d03565b61041d575080f35b61026190828052600160205233908320610f53565b8280526001602052818320610450916001600160a01b031690610ec9565b508261040b565b83823461022457816003193601126102245751908152602090f35b5090346101f757816003193601126101f7578160209360ff9261049361099a565b903582528186528282206001600160a01b039091168252855220549151911615158152f35b5090346101f757816003193601126101f7576020926104e39135815260018452826024359120610e9b565b905491519160018060a01b039160031b1c168152f35b838234610224577f0a249d4766726d36cb6d6ac22cf998dc9fc02bb4ff9fda73ec1e3061c8a1db0961052a36610902565b91610533610a95565b82516020840120808552600260205261055260ff8387205416156109c6565b84526002602052808420600160ff1982541617905551602081528061030933946020830190610a09565b50346101f75760203660031901126101f757813591610599610a95565b828452600360205260ff82852054166105ef5750816020917f010120d82c0c66b257c0ea628d405b1d3c2d37bb8dd9141f6c5c12cb0375c57293855260038352808520600160ff1982541617905551908152a180f35b6020606492519162461bcd60e51b8352820152601c60248201527f496d616765494420697320616c726561647920737570706f72746564000000006044820152fd5b8382346102245760ff8160209361064736610902565b85815191012081526002855220541690519015158152f35b838234610224577f66e43f8252a3257fe010a4fd6ae50f57624762cc64a6eceadb04b18cfdefac7d61069036610902565b91610699610a95565b8251602084012080855260026020526106b760ff8387205416610a49565b8452600260205280842060ff19815416905551602081528061030933946020830190610a09565b508290346102245780600319360112610224576106f961099a565b90336001600160a01b038316036107165750610261919235610b23565b5163334bd91960e11b81528390fd5b5090346101f757816003193601126101f757359061074161099a565b908284528360205261075860018286200154610afd565b6107628284610c8a565b61076a578380f35b9183526001602052908220610788916001600160a01b031690610ec9565b503880808380f35b50346101f7577fcbfa55581c230aeb174d969838d927cdd297755dfb967a33134312f1377ee71d906107c136610902565b926107ca610a95565b83516020850120808652816020526107e860ff8488205416156109c6565b8552602052808420600160ff1982541617905551602081528061030933946020830190610a09565b5090346101f7578160209360ff9261082736610902565b8681519101208252855220541690519015158152f35b5090346101f75760203660031901126101f757816020936001923581528085522001549051908152f35b5090346101f75760203660031901126101f7578160209360ff923581526003855220541690519015158152f35b849084346101f75760203660031901126101f7573563ffffffff60e01b81168091036101f75760209250635a05180f60e01b81149081156108d7575b5015158152f35b637965db0b60e01b8114915081156108f1575b50836108d0565b6301ffc9a760e01b149050836108ea565b602060031982011261097f5767ffffffffffffffff9060043582811161097f578160238201121561097f578060040135918383116109845760405193601f8401601f19908116603f0116850190811185821017610984576040528284526024838301011161097f5781600092602460209301838601378301015290565b600080fd5b634e487b7160e01b600052604160045260246000fd5b602435906001600160a01b038216820361097f57565b600435906001600160a01b038216820361097f57565b156109cd57565b60405162461bcd60e51b815260206004820152601460248201527312d95e481a5cc8185b1c9958591e481d985b1a5960621b6044820152606490fd5b919082519283825260005b848110610a35575050826000602080949584010152601f8019910116010190565b602081830181015184830182015201610a14565b15610a5057565b60405162461bcd60e51b815260206004820152601960248201527f43616e6e6f74207265766f6b6520696e76616c6964206b6579000000000000006044820152606490fd5b3360009081527fd329ff8a035c3ce5df2b0dae604d660c0d8783bf7e64be00c1d10db96c0b87b460205260409020546000805160206110448339815191529060ff1615610adf5750565b6044906040519063e2517d3f60e01b82523360048301526024820152fd5b80600052600060205260406000203360005260205260ff6040600020541615610adf5750565b610b2d8282610e26565b9182610b3857505090565b600091825260016020526040909120610b5a916001600160a01b031690610f53565b5090565b6001600160a01b031660008181527fad3228b676f7d3cd4284a5443f17f1962b36e491b30a40b2405849e597ba5fb5602052604081205490919060ff16610b5a57818052816020526040822081835260205260408220600160ff1982541617905533917f2f8788117e7eff1d82e926ec794901d17c78024a50270940304540a733656f0d8180a4600190565b6001600160a01b031660008181527fd329ff8a035c3ce5df2b0dae604d660c0d8783bf7e64be00c1d10db96c0b87b460205260408120549091906000805160206110448339815191529060ff16610c8557808352826020526040832082845260205260408320600160ff198254161790557f2f8788117e7eff1d82e926ec794901d17c78024a50270940304540a733656f0d339380a4600190565b505090565b9060009180835282602052604083209160018060a01b03169182845260205260ff60408420541615600014610c8557808352826020526040832082845260205260408320600160ff198254161790557f2f8788117e7eff1d82e926ec794901d17c78024a50270940304540a733656f0d339380a4600190565b6001600160a01b031660008181527fad3228b676f7d3cd4284a5443f17f1962b36e491b30a40b2405849e597ba5fb5602052604081205490919060ff1615610b5a5781805281602052604082208183526020526040822060ff19815416905533917ff6391f5c32d9c69d2a47ea670b442974b53935d1edc7fd64eb21e047a839171b8180a4600190565b6001600160a01b031660008181527fd329ff8a035c3ce5df2b0dae604d660c0d8783bf7e64be00c1d10db96c0b87b460205260408120549091906000805160206110448339815191529060ff1615610c855780835282602052604083208284526020526040832060ff1981541690557ff6391f5c32d9c69d2a47ea670b442974b53935d1edc7fd64eb21e047a839171b339380a4600190565b9060009180835282602052604083209160018060a01b03169182845260205260ff604084205416600014610c855780835282602052604083208284526020526040832060ff1981541690557ff6391f5c32d9c69d2a47ea670b442974b53935d1edc7fd64eb21e047a839171b339380a4600190565b8054821015610eb35760005260206000200190600090565b634e487b7160e01b600052603260045260246000fd5b91906001830160009082825280602052604082205415600014610f4d5784549468010000000000000000861015610f395783610f29610f12886001604098999a01855584610e9b565b819391549060031b91821b91600019901b19161790565b9055549382526020522055600190565b634e487b7160e01b83526041600452602483fd5b50925050565b9060018201906000928184528260205260408420549081151560001461103c57600019918083018181116110285782549084820191821161101457818103610fdf575b50505080548015610fcb57820191610fae8383610e9b565b909182549160031b1b191690555582526020526040812055600190565b634e487b7160e01b86526031600452602486fd5b610fff610fef610f129386610e9b565b90549060031b1c92839286610e9b565b90558652846020526040862055388080610f96565b634e487b7160e01b88526011600452602488fd5b634e487b7160e01b87526011600452602487fd5b505050509056feb19546dff01e856fb3f010c267a7b1c60363cf8a4664e21cc89c26224620214ea2646970667358221220b9674104f4e1847dcdd187e42b32ed18bf3a44ce0a552ea7bfd2e75be02a9b2564736f6c634300081700332f8788117e7eff1d82e926ec794901d17c78024a50270940304540a733656f0db19546dff01e856fb3f010c267a7b1c60363cf8a4664e21cc89c26224620214e60e03461019d576001600160401b0390601f61122e38819003918201601f19168301918483118484101761011f5780849260209460405283398101031261019d57516001600160a01b039190828116810361019d5760c052600146148015610193575b8015610189575b801561017e575b8015610173575b8015610168575b801561015d575b8015610152575b8015610147575b610135576040519061076a8083019182118383101761011f576020918391610ac4833963deafbeef60e01b81520301906000f08015610113571660a052600160805260405161092190816101a3823960805181818160c901526105d5015260a0518181816101bb0152610633015260c05181818161017f01526106780152f35b6040513d6000823e3d90fd5b634e487b7160e01b600052604160045260246000fd5b604051633d23e4d160e11b8152600490fd5b5061e7084614610093565b5061a4ba461461008c565b5061a4b14614610085565b50612105461461007e565b506101e04614610077565b506101444614610070565b5060894614610069565b50600a4614610062565b600080fdfe6080604081815260048036101561001557600080fd5b600091823560e01c93846308c84e701461061f575083633fd66f221461005d5783639a44ea84146105c1578363c4fa74e5146100625750505063f4cbae941461005d57600080fd5b610662565b346105bd57366003190161028081126105b95761022081126105b9576001600160a01b0361024435818116949192908590036105b5576001600160e01b031961026435818116969087900361030357856100bb366106fb565b51015160028110156105a2577f000000000000000000000000000000000000000000000000000000000000000090600282101561058f570361055757610100366106fb565b9060608201908682515116036105235760209783898351015116036104ed57868151015146036104b75760608151015143111561046457606081510151610100810180911161045157431161040257516060608082015191015140036103ca5786015193855194631af6c43160e01b86528486015260249487818781857f0000000000000000000000000000000000000000000000000000000000000000165afa9081156103c057899161035d575b501561031b57610140907f00000000000000000000000000000000000000000000000000000000000000001692126102ff578451906101ed826106ac565b8335908116810361030357815236604312156102ff57845161020e816106de565b8061012491368311610317578887915b8483106103075750905083015235906002821015610303576102439186820152610825565b813b156102ff57948691855196879263ab750e7560e01b8452606086850152815191826064860152855b8381106102e5575050506084838286838395840101526101443589830152610224356044830152601f801991011681010301915afa80156102db576102b0578480f35b67ffffffffffffffff84116102ca57505052818080808480f35b634e487b7160e01b85526041905283fd5b83513d87823e3d90fd5b8181018301518b8201608401528b96508a9550820161026d565b8680fd5b8780fd5b82358152918101918a910161021e565b8980fd5b855162461bcd60e51b81528085018890526017818701527f556e737570706f727465642043616c6c477565737449640000000000000000006044820152606490fd5b9050873d89116103b9575b601f8101601f1916820167ffffffffffffffff8111838210176103a757899183918a52810103126103a3575180151581036103a357896101af565b8880fd5b634e487b7160e01b8b5260418752878bfd5b503d610368565b87513d8b823e3d90fd5b855162461bcd60e51b81528085018890526012602482015271092dcecc2d8d2c840c4d8dec6d640d0c2e6d60731b6044820152606490fd5b865162461bcd60e51b8152808601899052602360248201527f496e76616c696420626c6f636b206e756d6265723a20626c6f636b20746f6f206044820152621bdb1960ea1b6064820152608490fd5b634e487b7160e01b8a526011865260248afd5b865162461bcd60e51b8152808601899052602760248201527f496e76616c696420626c6f636b206e756d6265723a20626c6f636b2066726f6d6044820152662066757475726560c81b6064820152608490fd5b865162461bcd60e51b8152808601899052601060248201526f125b9d985b1a590818da185a5b881a5960821b6044820152606490fd5b865162461bcd60e51b8152808601899052601060248201526f24b73b30b634b21039b2b632b1ba37b960811b6044820152606490fd5b865162461bcd60e51b8152602081870152600e60248201526d24b73b30b634b210383937bb32b960911b6044820152606490fd5b855162461bcd60e51b81526020818601526012602482015271496e76616c69642070726f6f66206d6f646560701b6044820152606490fd5b634e487b7160e01b8a526021865260248afd5b634e487b7160e01b895260218552602489fd5b8580fd5b8380fd5b8280fd5b82903461061b578160031936011261061b577f0000000000000000000000000000000000000000000000000000000000000000905191600282101561060857602083838152f35b634e487b7160e01b815260218452602490fd5b5080fd5b83903461061b578160031936011261061b577f00000000000000000000000000000000000000000000000000000000000000006001600160a01b03168152602090f35b346106a75760003660031901126106a7576040517f00000000000000000000000000000000000000000000000000000000000000006001600160a01b03168152602090f35b600080fd5b6060810190811067ffffffffffffffff8211176106c857604052565b634e487b7160e01b600052604160045260246000fd5b610100810190811067ffffffffffffffff8211176106c857604052565b6003198101919061022083126106a7576040805167ffffffffffffffff929160808201848111838210176106c8578082526101408397126106a75761073f816106ac565b6001600160e01b03199360043585811681036106a757825280604312156106a757825161076b816106de565b80610124918383116106a7576024905b83821061081557505060a0860152359160028310156106a75760a09260c0860152845261014435602085015261016435838501526101831901126106a75780519360a08501908111858210176106c8578152610184356001600160a01b03811681036106a75784526101a43592831683036106a75760609260208501526101c435908401526101e435828401526102043560808401520152565b813581526020918201910161077b565b604081015160028110156108d557600190810361086e57506020810151519063ffffffff60e01b9051169060405191602083015260248201526024815261086b816106ac565b90565b81516020928301516040516001600160e01b03199092168285015290926000602485015b600882106108c25750505050506101048152610140810181811067ffffffffffffffff8211176106c85760405290565b8351815292820192908401908201610892565b634e487b7160e01b600052602160045260246000fdfea26469706673582212206ca5e6238303ba00ba76cd1947d473e8fcbd579863dec5707d952fe9c9fc864464736f6c6343000817003360a03461007957601f61076a38819003918201601f19168301916001600160401b0383118484101761007e5780849260209460405283398101031261007957516001600160e01b031981168103610079576080526040516106d5908161009582396080518181816101be015281816102c401526103440152f35b600080fd5b634e487b7160e01b600052604160045260246000fdfe60808060405260048036101561001457600080fd5b600091823560e01c908163053c238d146101aa575080631599ead51461013a5780633a115bb11461011a57806366cf0e4b146100cf5763ab750e751461005957600080fd5b346100cb5760603660031901126100cb57803567ffffffffffffffff918282116100c757366023830112156100c7578101359182116100c35736602483830101116100c3576100c09160246100b96100b4604435833561044a565b61057f565b920161032d565b80f35b8280fd5b8380fd5b5080fd5b509034610117576040366003190112610117576101136101076101026100b4856100f761029c565b50602435903561044a565b6102b6565b60405191829182610211565b0390f35b80fd5b5090346101175760203660031901126101175761011361010783356102b6565b50346100cb576003196020368201126100c35781359167ffffffffffffffff918284116101a6576040843603918201126101a6578184013590602219018112156101a6578301908101359182116100c7576024019080360382136100c75760246100c09301359161032d565b8480fd5b8390346100cb57816003193601126100cb577f00000000000000000000000000000000000000000000000000000000000000006001600160e01b0319168152602090f35b60005b8381106102015750506000910152565b81810151838201526020016101f1565b60809160208252602081519160408285015261023b835180948160608801528488880191016101ee565b01516040830152601f01601f1916010190565b6040810190811067ffffffffffffffff82111761026a57604052565b634e487b7160e01b600052604160045260246000fd5b60a0810190811067ffffffffffffffff82111761026a57604052565b604051906102a98261024e565b6000602083606081520152565b6102be61029c565b506040517f00000000000000000000000000000000000000000000000000000000000000006001600160e01b03191660208201526024808201839052815260608101919067ffffffffffffffff83118184101761026a57608090836040526103258461024e565b808452015290565b91906004928184116103fe576001600160e01b03197f000000000000000000000000000000000000000000000000000000000000000081169082351680820361042d575050600319820167ffffffffffffffff918282116104185760405192601b8501601f19908116603f011684019081118482101761040357604052818352602083019336818301116103fe5760009287601c93018637830101525190209060405160208101918252602081526103e48161024e565b519020036103ef5750565b60405163439cc0cd60e01b8152fd5b600080fd5b604187634e487b7160e01b6000525260246000fd5b604186634e487b7160e01b6000525260246000fd5b604491869160405192632e2ce35360e21b84528301526024820152fd5b90604080519161045983610280565b600091828452826080602095828782015283516104758161024e565b83815283888201528482015282606082015201528051916104958361024e565b83835283858401528151906104a98261024e565b81528481018481528585600c85516b1c9a5cd8cc0b93dd5d1c1d5d60a21b815260025afa156105755761051886928692835191519051865191868301938452878301526060820152600160f91b60808201526062815261050881610280565b85519283928392519283916101ee565b8101039060025afa1561056a577fa3acc27117418996340b84e5a90f3ef4c49d22c79e44aad822ec9c313e1eb8e283519482519661055588610280565b87528601528401526060830152608082015290565b51913d9150823e3d90fd5b82513d86823e3d90fd5b601290604090602082517172697363302e52656365697074436c61696d60701b8152600094859160025afa15610694578251906060810151908051602082015191856080820151910192835151936003851015610680576020905101519287519560208701978852888701526060860152608085015260a084015260ff60f81b809260f81b1660c084015260f81b1660c4820152600160fa1b60c882015260aa815260e081019181831067ffffffffffffffff84111761066c579184918161065060209582885283519283916101ee565b8101039060025afa1561066257505190565b51903d90823e3d90fd5b634e487b7160e01b85526041600452602485fd5b634e487b7160e01b89526021600452602489fd5b5051903d90823e3d90fdfea26469706673582212205020395fc08ab57721c2d6f7c0911db64c7206e1ccb04de883fdd0e41b3e968064736f6c63430008170033","linkReferences":{}},"methodIdentifiers":{"_setTestVerifier(address)":"9b8b30c8","getLatestVerification(address)":"3a619f28","getMultipleVerificationResult(bytes32)":"801e3fc1","getVerificationCount(address)":"f017c5a6","getVerificationHistory(address)":"20524a2a","getVerifiedContributorsForRepo(string,string)":"f01ac1fe","hasUsernameVerifiedCommitsForRepo(string,string,string)":"1d2a67b9","hasUsernameVerifiedCommitsForRepoWithAccount(string,string,string,address)":"a3b7068f","hasVerifiedCommitsForRepo(address,string,string)":"34f490c1","multipleVerificationResults(bytes32)":"259c4e1b","prover()":"32a8f30f","verificationCounter()":"16cd94fc","verificationHistory(address,uint256)":"873fcabf","verifier()":"2b7ac3f3","verifyGitHubCommit(((bytes4,bytes32[8],uint8),bytes32,uint256,(address,bytes4,uint256,uint256,bytes32)),bool,string,address,string,string,string,string)":"bbea6447","verifyMultipleGitHubCommits(((bytes4,bytes32[8],uint8),bytes32,uint256,(address,bytes4,uint256,uint256,bytes32)),bool[],string[],address[],string[],string,string,string)":"132bd960"},"id":41}