{"abi":[{"type":"constructor","inputs":[],"stateMutability":"nonpayable"},{"type":"function","name":"getAllActiveGitHubActions","inputs":[],"outputs":[{"name":"","type":"uint256[]","internalType":"uint256[]"}],"stateMutability":"view"},{"type":"function","name":"getGitHubActionConfig","inputs":[{"name":"actionId","type":"uint256","internalType":"uint256"}],"outputs":[{"name":"","type":"tuple","internalType":"struct GitHubProver.GitHubActionConfig","components":[{"name":"actionType","type":"uint8","internalType":"enum GitHubProver.GitHubActionType"},{"name":"baseUrl","type":"string","internalType":"string"},{"name":"jsonPath","type":"string","internalType":"string"},{"name":"isActive","type":"bool","internalType":"bool"}]}],"stateMutability":"view"},{"type":"function","name":"gitHubActionConfigCount","inputs":[],"outputs":[{"name":"","type":"uint256","internalType":"uint256"}],"stateMutability":"view"},{"type":"function","name":"gitHubActionConfigs","inputs":[{"name":"","type":"uint256","internalType":"uint256"}],"outputs":[{"name":"actionType","type":"uint8","internalType":"enum GitHubProver.GitHubActionType"},{"name":"baseUrl","type":"string","internalType":"string"},{"name":"jsonPath","type":"string","internalType":"string"},{"name":"isActive","type":"bool","internalType":"bool"}],"stateMutability":"view"},{"type":"function","name":"proof","inputs":[],"outputs":[{"name":"","type":"tuple","internalType":"struct Proof","components":[{"name":"seal","type":"tuple","internalType":"struct Seal","components":[{"name":"verifierSelector","type":"bytes4","internalType":"bytes4"},{"name":"seal","type":"bytes32[8]","internalType":"bytes32[8]"},{"name":"mode","type":"uint8","internalType":"enum ProofMode"}]},{"name":"callGuestId","type":"bytes32","internalType":"bytes32"},{"name":"length","type":"uint256","internalType":"uint256"},{"name":"callAssumptions","type":"tuple","internalType":"struct CallAssumptions","components":[{"name":"proverContractAddress","type":"address","internalType":"address"},{"name":"functionSelector","type":"bytes4","internalType":"bytes4"},{"name":"settleChainId","type":"uint256","internalType":"uint256"},{"name":"settleBlockNumber","type":"uint256","internalType":"uint256"},{"name":"settleBlockHash","type":"bytes32","internalType":"bytes32"}]}]}],"stateMutability":"pure"},{"type":"function","name":"setBlock","inputs":[{"name":"blockNo","type":"uint256","internalType":"uint256"}],"outputs":[],"stateMutability":"nonpayable"},{"type":"function","name":"setChain","inputs":[{"name":"chainId","type":"uint256","internalType":"uint256"},{"name":"blockNo","type":"uint256","internalType":"uint256"}],"outputs":[],"stateMutability":"nonpayable"},{"type":"function","name":"toggleGitHubActionConfig","inputs":[{"name":"actionId","type":"uint256","internalType":"uint256"}],"outputs":[],"stateMutability":"nonpayable"},{"type":"function","name":"updateGitHubActionConfig","inputs":[{"name":"actionId","type":"uint256","internalType":"uint256"},{"name":"baseUrl","type":"string","internalType":"string"},{"name":"jsonPath","type":"string","internalType":"string"},{"name":"isActive","type":"bool","internalType":"bool"}],"outputs":[],"stateMutability":"nonpayable"},{"type":"function","name":"verifyGitHubCommit","inputs":[{"name":"webProof","type":"tuple","internalType":"struct WebProof","components":[{"name":"webProofJson","type":"string","internalType":"string"}]},{"name":"repoOwner","type":"string","internalType":"string"},{"name":"repoName","type":"string","internalType":"string"},{"name":"branch","type":"string","internalType":"string"},{"name":"username","type":"string","internalType":"string"},{"name":"account","type":"address","internalType":"address"}],"outputs":[{"name":"","type":"tuple","internalType":"struct Proof","components":[{"name":"seal","type":"tuple","internalType":"struct Seal","components":[{"name":"verifierSelector","type":"bytes4","internalType":"bytes4"},{"name":"seal","type":"bytes32[8]","internalType":"bytes32[8]"},{"name":"mode","type":"uint8","internalType":"enum ProofMode"}]},{"name":"callGuestId","type":"bytes32","internalType":"bytes32"},{"name":"length","type":"uint256","internalType":"uint256"},{"name":"callAssumptions","type":"tuple","internalType":"struct CallAssumptions","components":[{"name":"proverContractAddress","type":"address","internalType":"address"},{"name":"functionSelector","type":"bytes4","internalType":"bytes4"},{"name":"settleChainId","type":"uint256","internalType":"uint256"},{"name":"settleBlockNumber","type":"uint256","internalType":"uint256"},{"name":"settleBlockHash","type":"bytes32","internalType":"bytes32"}]}]},{"name":"","type":"bool","internalType":"bool"},{"name":"","type":"string","internalType":"string"},{"name":"","type":"address","internalType":"address"},{"name":"","type":"string","internalType":"string"},{"name":"","type":"string","internalType":"string"},{"name":"","type":"string","internalType":"string"},{"name":"","type":"string","internalType":"string"}],"stateMutability":"view"},{"type":"function","name":"verifyMultipleGitHubCommits","inputs":[{"name":"webProof","type":"tuple","internalType":"struct WebProof","components":[{"name":"webProofJson","type":"string","internalType":"string"}]},{"name":"repoOwner","type":"string","internalType":"string"},{"name":"repoName","type":"string","internalType":"string"},{"name":"branch","type":"string","internalType":"string"},{"name":"usernames","type":"string[]","internalType":"string[]"},{"name":"accounts","type":"address[]","internalType":"address[]"}],"outputs":[{"name":"","type":"tuple","internalType":"struct Proof","components":[{"name":"seal","type":"tuple","internalType":"struct Seal","components":[{"name":"verifierSelector","type":"bytes4","internalType":"bytes4"},{"name":"seal","type":"bytes32[8]","internalType":"bytes32[8]"},{"name":"mode","type":"uint8","internalType":"enum ProofMode"}]},{"name":"callGuestId","type":"bytes32","internalType":"bytes32"},{"name":"length","type":"uint256","internalType":"uint256"},{"name":"callAssumptions","type":"tuple","internalType":"struct CallAssumptions","components":[{"name":"proverContractAddress","type":"address","internalType":"address"},{"name":"functionSelector","type":"bytes4","internalType":"bytes4"},{"name":"settleChainId","type":"uint256","internalType":"uint256"},{"name":"settleBlockNumber","type":"uint256","internalType":"uint256"},{"name":"settleBlockHash","type":"bytes32","internalType":"bytes32"}]}]},{"name":"","type":"bool[]","internalType":"bool[]"},{"name":"","type":"string[]","internalType":"string[]"},{"name":"","type":"address[]","internalType":"address[]"},{"name":"","type":"string[]","internalType":"string[]"},{"name":"","type":"string","internalType":"string"},{"name":"","type":"string","internalType":"string"},{"name":"","type":"string","internalType":"string"}],"stateMutability":"view"},{"type":"error","name":"FailedInnerCall","inputs":[]}],"bytecode":{"object":"0x608034620003c5576001600160401b03906080810182811182821017620003af57604052600080825262000032620003ca565b91601383526020937f68747470733a2f2f6769746875622e636f6d2f00000000000000000000000000858501528482019384526200006f620003ca565b906007825266617574686f727360c81b8683015260408301918252606083019460019687875285805285815260408620945195888710156200039b5760ff199660ff888854169116178655888601925192835185811162000387578154948b86811c961680156200037c575b8587101462000368578190601f9687811162000315575b508590878311600114620002a85785926200029c575b5050600019600383901b1c1916908b1b1790555b600286019451918251948511620002885785548a81811c911680156200027d575b82821014620002695784811162000221575b5080938511600114620001ad57509260039492819260ff979592620001a1575b505060001982861b1c191690881b1790555b01925115159183541691161790558055604051611c3b9081620003eb8239f35b0151905038806200016f565b918994939192601f1985169087855280852094905b828210620002075750509160ff9795939185600398969410620001ee575b505050811b01905562000181565b015160001983881b60f8161c19169055388080620001e0565b8484015186558c97909501949384019390810190620001c2565b8683528183208580880160051c8201928489106200025f575b0160051c01908b905b828110620002535750506200014f565b848155018b9062000243565b925081926200023a565b634e487b7160e01b83526022600452602483fd5b90607f16906200013d565b634e487b7160e01b82526041600452602482fd5b01519050388062000108565b8486528686208e94509190601f198416875b89828210620002f55750508411620002db575b505050811b0190556200011c565b015160001960f88460031b161c19169055388080620002cd565b91929395968291958786015181550195019301908f9594939291620002ba565b9091508385528585208780850160051c8201928886106200035e575b918f91869594930160051c01915b8281106200034f575050620000f2565b8781558594508f91016200033f565b9250819262000331565b634e487b7160e01b84526022600452602484fd5b95607f1695620000db565b634e487b7160e01b83526041600452602483fd5b634e487b7160e01b81526021600452602490fd5b634e487b7160e01b600052604160045260246000fd5b600080fd5b60408051919082016001600160401b03811183821017620003af5760405256fe6040608081526004908136101561001557600080fd5b600091823560e01c8063496156a014610d2557806354f8dea1146108b757806380f101a51461083457806387cea3ae146107d9578063b7dbc812146105b6578063dacef86614610571578063eecb783114610552578063faf924cf14610510578063fbe3e85b1461040d578063ffbc56381461036f5763ffc018e01461009a57600080fd5b3461036b57608036600319011261036b5780359167ffffffffffffffff91602435838111610367576100cf9036908301610ebf565b92604435818111610363576100e79036908401610ebf565b9460643594851515860361035f576001916101048354821061141d565b8852602094888652882094828601825185811161034c5780610126835461108e565b94601f958681116102fb575b5084908d87841160011461029c5792610291575b5050600019600383901b1c191690851b1790555b6002860194885194851161027e5750610173855461108e565b82811161023b575b50809184116001146101cd57509180809260039695946101bf998b946101c2575b50501b9160001990861b1c19161790555b019060ff801983541691151516179055565b80f35b01519250388061019c565b9193949596601f198416868a52838a20938a905b828210610224575050916101bf98979593918560039896941061020c575b505050811b0190556101ad565b015160001983881b60f8161c191690553880806101ff565b8088869782949787015181550196019401906101e1565b858a52818a208380870160051c820192848810610275575b0160051c019084905b82811061026a57505061017b565b8b815501849061025c565b92508192610253565b634e487b7160e01b8a5260419052602489fd5b015190503880610146565b9190889450601f198416868452878420935b888282106102e557505084116102cc575b505050811b01905561015a565b015160001960f88460031b161c191690553880806102bf565b8385015186558b979095019493840193016102ae565b909150838d52848d208680850160051c820192878610610343575b859493910160051c9091019088908f5b83821061033557505050610132565b81558594508991018f610326565b92508192610316565b634e487b7160e01b8b526041875260248bfd5b8780fd5b8680fd5b8580fd5b8280fd5b503461036b578160031936011261036b57815190631ff78ac760e31b82528035908201526024356024820152602081604481867376dc9aa45aa006a0f63942d8f9f21bd4537972a35af1908115610401576101bf925083916103d2575b506113d1565b6103f4915060203d6020116103fa575b6103ec8183610e81565b8101906113b9565b386103cc565b503d6103e2565b505051903d90823e3d90fd5b50903461036b576020918260031936011261050c578035846060845161043281610e33565b82815281878201528186820152015261044e600154821061141d565b84528383528184209082519461046386610e33565b60ff8354169160018310156104f957505084526104ec906104d9610489600183016110c8565b93858701948552608060ff60036104a2600287016110c8565b95848b01968752015416956060890196151587526104ca835199898b9a8b528a01905161116d565b519187015260a086019061100c565b9051848203601f1901606086015261100c565b9051151560808301520390f35b634e487b7160e01b825260219052602490fd5b8380fd5b50503461054e578160031936011261054e576102209061052e6111c9565b506105376111c9565b5061054c6105436111c9565b91518092610f23565bf35b5080fd5b50503461054e578160031936011261054e576020906001549051908152f35b503461036b57602036600319011261036b576101bf9160039135610598600154821061141d565b84526020849052832001805460ff818116151660ff19909116179055565b5082346107d6576003199160c03684011261054e57803567ffffffffffffffff9384821161050c57602090823603011261036b5760243584811161050c576106019036908401610ebf565b916044358581116107d2576106199036908301610ebf565b9360643586811161054e576106319036908401610ebf565b9560843590811161054e576106499036908401610ebf565b9160a4359360018060a01b03851680950361036b576106666111c9565b508280528260205261068060ff60038b8620015416611285565b8280528260205288832089519061069682610e33565b60ff81541660018110156107bf5761078f95610717886107128f6102409f9d996107ad9f9c97906107809a61079e9f9a606060ff600361070a9661076b9d85526106e2600182016110c8565b9860208601998a526106f6600283016110c8565b9086015201541615159101523691016112e2565b90519061147c565b6118d9565b905080156107b157610727611373565b905b6107316111c9565b5061073a6111c9565b506107436111c9565b9d519d8e9d8e8093610759610300958695610f23565b151561022082015201528c019061100c565b916102608b01528982036102808b015261100c565b908782036102a089015261100c565b908582036102c087015261100c565b908382036102e085015261100c565b0390f35b6107b9611329565b90610729565b634e487b7160e01b865260218552602486fd5b8480fd5b80fd5b503461036b57602036600319011261036b578151906343e751d760e11b8252803590820152602081602481867376dc9aa45aa006a0f63942d8f9f21bd4537972a35af1908115610401576101bf925083916103d257506113d1565b503461036b57602036600319011261036b5761088d92829135815280602052206108ab60ff82541692610869600184016110c8565b9261089e60ff600361087d600285016110c8565b930154169483519788809861116d565b60806020880152608087019061100c565b918583039086015261100c565b90151560608301520390f35b5082903461054e576003199060c03683011261036b57803567ffffffffffffffff918282116107d2576020809483360301126107d25760248035848111610363576109059036908401610ebf565b9360443581811161035f5761091d9036908501610ebf565b95606435828111610d21576109359036908601610ebf565b976084359483861161054e573660238701121561054e57858101359561095a87610f0b565b966109678d519889610e81565b808852868589019160051b830101913683116107d257878101915b838310610cfb575050505060a43593841161054e573660238501121561054e5783810135966109b088610f0b565b946109bd8d519687610e81565b88865284860187819a60051b83010191368311610367578801905b828210610cdc575050506109ea6111c9565b508651855103610c9957610a0c60ff60038e8680528688528620015416611285565b8280528284528b83208c5190610a2182610e33565b60ff81541660019889821015610c8857508252949b9a99989796939593948c939291908e610a508883016110c8565b958301958652610a62600283016110c8565b908301526003015460ff161515906060015236910190610a81916112e2565b9051610a8c9161147c565b988451998b610a9a8c610f0b565b9b81519c610aa8908e610e81565b808d52610ab490610f0b565b8c84019290601f199081013685378851610acd81610f0b565b935193610ada9085610e81565b808452610ae690610f0b565b01875b818110610c795750508587905b610bd0575b5050610b056111c9565b50610b0e6111c9565b50610b176111c9565b9c519c8d9c8d61022061030091610b318184810196610f23565b0152518091526103208d019290875b818110610bb8575050508b82036102408d01528291610b5e91611031565b928b84036102608d015251928381520195935b828110610b99578a806107ad8c61079e8d61078f8e6107808f8f8982036102808b0152611031565b84516001600160a01b031687528b9a5095810195938101938301610b71565b8251151585528f9e5093850193918501918701610b40565b90888e9f93949597999a9b9c9d9e928a93829a989a51821015610c625781610c1b91610c07610c0083899761119f565b51876118d9565b610c11838361119f565b901515905261119f565b5115610c5557610c29611373565b610c33828861119f565b52610c3e818761119f565b50019091969493929e9d9c9b9a9998979597610af6565b610c5d611329565b610c29565b5050509d9c9b9a999897959392919d969496610afb565b60608482018701528501610ae9565b634e487b7160e01b87526021865286fd5b508a5162461bcd60e51b81529081018390526018818601527f4d69736d617463686564206172726179206c656e6774687300000000000000006044820152606490fd5b81356001600160a01b03811681036103635781529086019086016109d8565b8235888111610363578791610d1683928c3691870101610ebf565b815201920191610982565b8880fd5b50503461054e578160031936011261054e57600180549280805b858110610dfc5750610d68610d5382610f0b565b91610d6086519384610e81565b808352610f0b565b6020828101969091601f190136883783845b828110610db7575050508451948186019282875251809352850195925b828110610da45785870386f35b8351875295810195928101928401610d97565b9586819997879596975284865260ff60038a8720015416610de0575b0197959794939294610d7a565b918083610df0610df6938a61119f565b5261117a565b91610dd3565b9283839482979394528460205260ff6003878720015416610e23575b019492919094610d3f565b92610e2d9061117a565b92610e18565b6080810190811067ffffffffffffffff821117610e4f57604052565b634e487b7160e01b600052604160045260246000fd5b6060810190811067ffffffffffffffff821117610e4f57604052565b90601f8019910116810190811067ffffffffffffffff821117610e4f57604052565b67ffffffffffffffff8111610e4f57601f01601f191660200190565b81601f82011215610f0657803590610ed682610ea3565b92610ee46040519485610e81565b82845260208383010111610f0657816000926020809301838601378301015290565b600080fd5b67ffffffffffffffff8111610e4f5760051b60200190565b80519063ffffffff60e01b9182815116845260209081810151828601836000915b60088310610fd2575050505060400151926002841015610fbc5760606080936102009561012088015283810151610140880152604081015161016088015201519160018060a01b03835116610180870152820151166101a085015260408101516101c085015260608101516101e08501520151910152565b634e487b7160e01b600052602160045260246000fd5b908060019285518152019301910190918490610f44565b60005b838110610ffc5750506000910152565b8181015183820152602001610fec565b9060209161102581518092818552858086019101610fe9565b601f01601f1916010190565b90808251908181526020809101926020808460051b8301019501936000915b8483106110605750505050505090565b909192939495848061107e600193601f198682030187528a5161100c565b9801930193019194939290611050565b90600182811c921680156110be575b60208310146110a857565b634e487b7160e01b600052602260045260246000fd5b91607f169161109d565b906040519182600082546110db8161108e565b9081845260209460019160018116908160001461114b575060011461110c575b50505061110a92500383610e81565b565b600090815285812095935091905b81831061113357505061110a93508201013880806110fb565b8554888401850152948501948794509183019161111a565b9250505061110a94925060ff191682840152151560051b8201013880806110fb565b906001821015610fbc5752565b60001981146111895760010190565b634e487b7160e01b600052601160045260246000fd5b80518210156111b35760209160051b010190565b634e487b7160e01b600052603260045260246000fd5b6040908151916111d883610e33565b828151916111e583610e65565b600090818452805193610100948581019567ffffffffffffffff9682811088821117611271578452368237602082015282828201528352816020840152818184015280519360a08501908582109082111761125d57918160609493829352818652816020870152850152808385015260808401520152565b634e487b7160e01b83526041600452602483fd5b634e487b7160e01b86526041600452602486fd5b1561128c57565b60405162461bcd60e51b815260206004820152602860248201527f47697448756220636f6d6d697420766572696669636174696f6e206973206e6f604482015267742061637469766560c01b6064820152608490fd5b919091602081840312610f065760405190602082019367ffffffffffffffff9483811086821117610e4f5760405282948235908111610f06576113259201610ebf565b9052565b6040519061133682610e65565b6028825267706f7369746f727960c01b6040837f5573657220686173206e6f7420636f6d6d697474656420746f2074686520726560208201520152565b6040519061138082610e65565b6024825263746f727960e01b6040837f557365722068617320636f6d6d697474656420746f20746865207265706f736960208201520152565b90816020910312610f0657518015158103610f065790565b156113d857565b60405162461bcd60e51b815260206004820152601b60248201527f4661696c6564206368656174636f646520696e766f636174696f6e00000000006044820152606490fd5b1561142457565b60405162461bcd60e51b8152602060048201526011602482015270125b9d985b1a59081858dd1a5bdb881251607a1b6044820152606490fd5b6040519061146a82610e65565b60606040838281528260208201520152565b6114da9161148861145d565b5061149161145d565b5060409081516020936114b685830191606083525186608085015260a084019061100c565b9060018584015282600097818995948660608197015203601f198101835282610e81565b519073f4e4fdca9d5d55e64525e314391996a15f7ec6005afa6115056114fe611a57565b8092611b89565b50805181019484828188019703126107d6578482015167ffffffffffffffff9283821161036b570186603f8201121561054e5784519661154488610e33565b879060a08301928184116107d257888101925b8484106118b45750505050508386015195606081015190519285519761157c89610e65565b88528187890152858801938452617a69461480156118a8575b801561189a575b156117215785519260e084019182118483101761170d5750916116b1916116b7959493875260ae8252878201917f2d2d2d2d2d424547494e205055424c4943204b45592d2d2d2d2d0a4d4659774583527f4159484b6f5a497a6a3043415159464b34454541416f445167414565306a786e888201527f424f6261496a37586a673654584c434d3147472f566859353635300a4f72532f60608201527f6a6763624275666f2f51446646764c2f69727a4976314a536d6847695663734360808201527f4843776f6c684458576367653776324973513d3d0a2d2d2d2d2d454e4420505560a082015260c06d212624a19025a2ac96969696968560911b9101528051888160ae1493846116fa575b50505050611acc565b51611b29565b156116c157505090565b60649250519062461bcd60e51b8252600482015260136024820152720aaa49840e0e4caccd2f040dad2e6dac2e8c6d606b1b6044820152fd5b60ae9020920120149050388088816116a8565b634e487b7160e01b81526041600452602490fd5b5085600146148015611890575b8015611886575b801561187b575b8015611870575b8015611865575b801561185a575b801561184f575b8015611844575b156117eb5761178891865180938192632505a3bd60e01b8352846004840152602483019061100c565b038173565dca92902ea0ca597b5e62df0b47886b6b7d4d5afa9182156117e0576116b79493926117be92906117c3575b50611acc565b6116b1565b6117da9150873d89116103fa576103ec8183610e81565b386117b8565b8551903d90823e3d90fd5b61180f91865180938192632505a3bd60e01b8352846004840152602483019061100c565b038173c4e4dc291a5c4debe9ff5a3372f3fdd2e42bac865afa9182156117e0576116b79493926117be92906117c35750611acc565b5061e708461461175f565b5061a4ba4614611758565b5061a4b14614611751565b50612105461461174a565b506101e04614611743565b50610144461461173c565b5060894614611735565b50600a461461172e565b506118a3611bb2565b61159c565b50620499194614611595565b8351878111610363578a916118ce85848094870101611a87565b815201930192611557565b604080519160209170617574686f72735b3f6c6f67696e3d3d2760781b8385015284519361193c603f828689019761191581603184018b610fe9565b81016d275d2e6c6f67696e207c205b305d60901b603182015203601f810184520182610e81565b82515115611a23578151908282019367ffffffffffffffff9483811086821117610e4f5784525182528482015281519084820192820185845260808301919060005b87600282106119fe575050505091816119a460009493859403601f198101835282610e81565b519073f4e4fdca9d5d55e64525e314391996a15f7ec6025afa6119c86114fe611a57565b50805181018382820312610f065783820151928311610f06576119f19284809201920101611a87565b8051910120915190201490565b80611a18600193949596603f19898203018752875161100c565b95019301910161197e565b815162461bcd60e51b815260048101859052600d60248201526c426f647920697320656d70747960981b6044820152606490fd5b3d15611a82573d90611a6882610ea3565b91611a766040519384610e81565b82523d6000602084013e565b606090565b81601f82011215610f06578051611a9d81610ea3565b92611aab6040519485610e81565b81845260208284010111610f0657611ac99160208085019101610fe9565b90565b15611ad357565b60405162461bcd60e51b815260206004820152601960248201527f496e76616c6964206e6f74617279207075626c6963206b6579000000000000006044820152606490fd5b9081518110156111b3570160200190565b908151815111611b825760009060005b8151811015611b79576001600160f81b031980611b568387611b18565b511690611b638385611b18565b511603611b7257600101611b39565b5050905090565b50505050600190565b5050600090565b90919061110a5750805115611ba057805190602001fd5b604051630a12f52160e11b8152600490fd5b600080808073f4e4fdca9d5d55e64525e314391996a15f7ec61e5afa611bd6611a57565b90158015611bfc575b611bf65780602080611ac9935183010191016113b9565b50600090565b50805115611bdf56fea2646970667358221220b464994a3a38524f4b5e0089734ad9e345fa4302b55451e958bc7063577cbe7d64736f6c63430008170033","linkReferences":{}},"methodIdentifiers":{"getAllActiveGitHubActions()":"496156a0","getGitHubActionConfig(uint256)":"fbe3e85b","gitHubActionConfigCount()":"eecb7831","gitHubActionConfigs(uint256)":"80f101a5","proof()":"faf924cf","setBlock(uint256)":"87cea3ae","setChain(uint256,uint256)":"ffbc5638","toggleGitHubActionConfig(uint256)":"dacef866","updateGitHubActionConfig(uint256,string,string,bool)":"ffc018e0","verifyGitHubCommit((string),string,string,string,string,address)":"b7dbc812","verifyMultipleGitHubCommits((string),string,string,string,string[],address[])":"54f8dea1"},"id":75}