{"abi":[{"type":"function","name":"createProposal","inputs":[{"name":"_daoId","type":"string","internalType":"string"},{"name":"_proposalId","type":"string","internalType":"string"},{"name":"_title","type":"string","internalType":"string"},{"name":"_creator","type":"address","internalType":"address"},{"name":"_startTime","type":"uint256","internalType":"uint256"},{"name":"_endTime","type":"uint256","internalType":"uint256"}],"outputs":[{"name":"","type":"string","internalType":"string"}],"stateMutability":"nonpayable"},{"type":"function","name":"daoProposals","inputs":[{"name":"","type":"string","internalType":"string"},{"name":"","type":"uint256","internalType":"uint256"}],"outputs":[{"name":"","type":"string","internalType":"string"}],"stateMutability":"view"},{"type":"function","name":"deactivateProposal","inputs":[{"name":"_daoId","type":"string","internalType":"string"},{"name":"_proposalId","type":"string","internalType":"string"}],"outputs":[],"stateMutability":"nonpayable"},{"type":"function","name":"getAddressVote","inputs":[{"name":"_voter","type":"address","internalType":"address"},{"name":"_daoId","type":"string","internalType":"string"},{"name":"_proposalId","type":"string","internalType":"string"}],"outputs":[{"name":"hasVotedOnProposal","type":"bool","internalType":"bool"},{"name":"voteType","type":"uint8","internalType":"uint8"}],"stateMutability":"view"},{"type":"function","name":"getDaoProposalCount","inputs":[{"name":"_daoId","type":"string","internalType":"string"}],"outputs":[{"name":"","type":"uint256","internalType":"uint256"}],"stateMutability":"view"},{"type":"function","name":"getDaoProposals","inputs":[{"name":"_daoId","type":"string","internalType":"string"}],"outputs":[{"name":"","type":"string[]","internalType":"string[]"}],"stateMutability":"view"},{"type":"function","name":"getProposal","inputs":[{"name":"_daoId","type":"string","internalType":"string"},{"name":"_proposalId","type":"string","internalType":"string"}],"outputs":[{"name":"title","type":"string","internalType":"string"},{"name":"creator","type":"address","internalType":"address"},{"name":"active","type":"bool","internalType":"bool"},{"name":"startTime","type":"uint256","internalType":"uint256"},{"name":"endTime","type":"uint256","internalType":"uint256"}],"stateMutability":"view"},{"type":"function","name":"getProposalVoters","inputs":[{"name":"_daoId","type":"string","internalType":"string"},{"name":"_proposalId","type":"string","internalType":"string"}],"outputs":[{"name":"voters","type":"address[]","internalType":"address[]"},{"name":"voteTypes","type":"uint8[]","internalType":"uint8[]"}],"stateMutability":"view"},{"type":"function","name":"getTotalVotes","inputs":[],"outputs":[{"name":"","type":"uint256","internalType":"uint256"}],"stateMutability":"view"},{"type":"function","name":"getVoteCounts","inputs":[{"name":"_daoId","type":"string","internalType":"string"},{"name":"_proposalId","type":"string","internalType":"string"}],"outputs":[{"name":"yesVotes","type":"uint256","internalType":"uint256"},{"name":"noVotes","type":"uint256","internalType":"uint256"},{"name":"abstainVotes","type":"uint256","internalType":"uint256"}],"stateMutability":"view"},{"type":"function","name":"hasVoted","inputs":[{"name":"","type":"address","internalType":"address"},{"name":"","type":"string","internalType":"string"},{"name":"","type":"string","internalType":"string"}],"outputs":[{"name":"","type":"bool","internalType":"bool"}],"stateMutability":"view"},{"type":"function","name":"isVotingActive","inputs":[{"name":"_daoId","type":"string","internalType":"string"},{"name":"_proposalId","type":"string","internalType":"string"}],"outputs":[{"name":"","type":"bool","internalType":"bool"}],"stateMutability":"view"},{"type":"function","name":"proposalExists","inputs":[{"name":"_daoId","type":"string","internalType":"string"},{"name":"_proposalId","type":"string","internalType":"string"}],"outputs":[{"name":"","type":"bool","internalType":"bool"}],"stateMutability":"view"},{"type":"function","name":"proposals","inputs":[{"name":"","type":"string","internalType":"string"},{"name":"","type":"string","internalType":"string"}],"outputs":[{"name":"title","type":"string","internalType":"string"},{"name":"creator","type":"address","internalType":"address"},{"name":"active","type":"bool","internalType":"bool"},{"name":"startTime","type":"uint256","internalType":"uint256"},{"name":"endTime","type":"uint256","internalType":"uint256"}],"stateMutability":"view"},{"type":"function","name":"voteAbstain","inputs":[{"name":"_daoId","type":"string","internalType":"string"},{"name":"_proposalId","type":"string","internalType":"string"}],"outputs":[],"stateMutability":"nonpayable"},{"type":"function","name":"voteNo","inputs":[{"name":"_daoId","type":"string","internalType":"string"},{"name":"_proposalId","type":"string","internalType":"string"}],"outputs":[],"stateMutability":"nonpayable"},{"type":"function","name":"voteYes","inputs":[{"name":"_daoId","type":"string","internalType":"string"},{"name":"_proposalId","type":"string","internalType":"string"}],"outputs":[],"stateMutability":"nonpayable"},{"type":"function","name":"votes","inputs":[{"name":"","type":"uint256","internalType":"uint256"}],"outputs":[{"name":"voter","type":"address","internalType":"address"},{"name":"daoId","type":"string","internalType":"string"},{"name":"proposalId","type":"string","internalType":"string"},{"name":"voteType","type":"uint8","internalType":"uint8"}],"stateMutability":"view"},{"type":"event","name":"ProposalCreated","inputs":[{"name":"daoId","type":"string","indexed":true,"internalType":"string"},{"name":"proposalId","type":"string","indexed":true,"internalType":"string"},{"name":"title","type":"string","indexed":false,"internalType":"string"},{"name":"creator","type":"address","indexed":true,"internalType":"address"},{"name":"startTime","type":"uint256","indexed":false,"internalType":"uint256"},{"name":"endTime","type":"uint256","indexed":false,"internalType":"uint256"}],"anonymous":false},{"type":"event","name":"ProposalDeactivated","inputs":[{"name":"daoId","type":"string","indexed":true,"internalType":"string"},{"name":"proposalId","type":"string","indexed":true,"internalType":"string"},{"name":"deactivatedBy","type":"address","indexed":true,"internalType":"address"}],"anonymous":false},{"type":"event","name":"VoteCasted","inputs":[{"name":"daoId","type":"string","indexed":true,"internalType":"string"},{"name":"proposalId","type":"string","indexed":true,"internalType":"string"},{"name":"voter","type":"address","indexed":true,"internalType":"address"},{"name":"voteType","type":"uint8","indexed":false,"internalType":"uint8"}],"anonymous":false}],"bytecode":{"object":"0x6080806040523461001657611c9c908161001c8239f35b600080fdfe60406080815260048036101561001457600080fd5b600090813560e01c8063304ec95a1461167c57806353a5a1b9146114525780635df81330146113b2578063608c7b5a1461133c57806368fc5586146111aa57806388f4dae2146110fb57806393301cc514610e875780639a0e7d6614610e685780639d8e712a14610e0a578063a80dccbf14610aa1578063b819043b1461084a578063bdef14801461071a578063c7811a9f146105e6578063cbfe2a3c146105ad578063d33895fc14610523578063d8465ad01461024a578063dd9d896f146102015763dfb242af146100e657600080fd5b346101fd57602090816003193601126101f957803567ffffffffffffffff81116101f5579161011d61012f9282959436910161172b565b818651938285809451938492016118ee565b8101600381520301902090815461014581611a2a565b9061015286519283611709565b8082528482018094845285842084915b8383106101c357505050508451938085019181865251809252858501958260051b8601019392955b8287106101975785850386f35b9091929382806101b3600193603f198a82030186528851611911565b960192019601959291909261018a565b60018881928b9a97989a516101e3816101dc8189611858565b0382611709565b81520192019201919096949396610162565b8380fd5b8280fd5b5080fd5b8284346101fd5760ff61023f8261023960209561021d366119ae565b6001600160a01b03909216835260028952939091209092611970565b90611970565b541690519015158152f35b5082346101f95761025a36611787565b909261026884511515611ac2565b61027482511515611b07565b82519384916102b46102ad6102a7858551602097816102988a93848b019e8f6118ee565b81018d81520301902087611970565b5461181e565b1515611a56565b84519582516102c48189846118ee565b87018881526102dd888660029a8b940301902087611970565b015442106104e35761030e6102ff8560039389518093819289519283916118ee565b81018c81520301902086611970565b015442116104ad5733875285835260ff61033361032d878a2085611970565b86611970565b541661045a5733875285835261035461034e86892084611970565b85611970565b60ff199060018282541617905585519161036d836116d7565b3383528483018481528784019087825260608501948a8652600154600160401b811015610447578060016103a492016001556117ce565b949094610435575060037f19fd43f490b457a19f8733915c9e27012962c1e5d21b6dc7c07e5aef43c656d79897946104148d61042a999661040b6104249a9760ff9760018060a01b039051166001600160601b0360a01b8754161786555160018601611b53565b51908301611b53565b0192511690825416179055611aa2565b93611aa2565b93519485523394a480f35b634e487b7160e01b8d528c905260248cfd5b634e487b7160e01b8d526041855260248dfd5b845162461bcd60e51b8152908101839052602760248201527f596f75206861766520616c726561647920766f746564206f6e207468697320706044820152661c9bdc1bdcd85b60ca1b6064820152608490fd5b845162461bcd60e51b8152908101839052601060248201526f159bdd1a5b99c81a185cc8195b99195960821b6044820152606490fd5b855162461bcd60e51b8152808301859052601a602482015279159bdd1a5b99c81a185cc81b9bdd081cdd185c9d1959081e595d60321b6044820152606490fd5b5050346105aa5761055e9061054f602061053c36611787565b93828751948386809551938492016118ee565b82019081520301902090611970565b906105a681519161057a836105738187611858565b0384611709565b60018401549360036002820154910154915194859460ff8260a01c169160018060a01b03169086611936565b0390f35b80fd5b8284346101fd576105dd6102a760209361054f856105ca36611787565b93828851948386809551938492016118ee565b15159051908152f35b5050346105aa576105f6366119ae565b91839160018060a01b03809216908186526002906020956002875260ff9260ff61062b6106258c8c2086611970565b84611970565b54169889610647575b8a518a1515815260ff8916818b01528b90f35b94600196600154965b87811061065f575b5050610634565b8c84848461066c856117ce565b5054161491826106e8575b826106b5575b505061068a578801610650565b94505050505060ff94506106a3919350600392506117ce565b50015416903880808080808080610658565b6106d49192506101dc6106c7856117ce565b5091518094819301611858565b8b815191012085518c87012014848e61067d565b91508a6107076106f7856117ce565b506101dc85518094819301611858565b8051908e01208851898f01201491610677565b5050346105aa5761072a36611787565b60018054909484939092849291835b8381106107555760608888888881519384526020840152820152f35b808961077461076482946117ce565b506101dc8a518094819301611858565b8051602080920120845182860120149081610816575b50610796575b01610739565b976107a0896117ce565b5060ff90838260038093015416146000146107c75750506107c090611a05565b975b610790565b81816107d58d9a959d6117ce565b500154166107ee5750506107e890611a05565b94610790565b906002916107fd8994996117ce565b50015416036107c2579661081090611a05565b96610790565b90506002610836610826846117ce565b506101dc8b518094819301611858565b81815191012090855190860120143861078a565b5082346101f95761085a36611787565b9061086781511515611ac2565b61087382511515611b07565b82519080516108956102ad6102a760209586818188019661029881838a6118ee565b60026108ab8651858186516102ff8183896118ee565b01544210610a61576108dc6108cd8460039388518093819288519283916118ee565b81018b81520301902085611970565b01544211610a2b573386526002825260ff6108fc61034e86892084611970565b54166109d8573386526002825261091861062585882083611970565b9460019560ff19908782825416179055855191610934836116d7565b3383528483018481528784019087825260608501948a86528a54600160401b81101561044757808c61096892018d556117ce565b949094610435575060037f19fd43f490b457a19f8733915c9e27012962c1e5d21b6dc7c07e5aef43c656d798979461041461042a98956109ce8f6104249a9760ff9760018060a01b039051166001600160601b0360a01b87541617865551908501611b53565b5160028301611b53565b835162461bcd60e51b8152808601839052602760248201527f596f75206861766520616c726561647920766f746564206f6e207468697320706044820152661c9bdc1bdcd85b60ca1b6064820152608490fd5b835162461bcd60e51b8152808601839052601060248201526f159bdd1a5b99c81a185cc8195b99195960821b6044820152606490fd5b845162461bcd60e51b8152808701849052601a602482015279159bdd1a5b99c81a185cc81b9bdd081cdd185c9d1959081e595d60321b6044820152606490fd5b509190346105aa5760c03660031901126105aa5767ffffffffffffffff9183358381116101f957610ad5903690860161172b565b60248035858111610e0657610aed903690880161172b565b94604435908111610e0657610b05903690880161172b565b956064356001600160a01b0381169390849003610e02576084359160a43593610b3083511515611ac2565b610b3c89511515611b07565b895115610dc85783851115610d7c57428410610d3b57865197835160ff6001610b828d60209d8e81818c0197610b7381838b6118ee565b81018981520301902090611970565b015460a01c161580610d0e575b15610ccc5789610c02918860038f8f610bc78f918c88610bce9451809251610bb881838d6118ee565b81018d81520301902090611970565b9182611b53565b6001810180546001600160a81b0319168e17600160a01b179055600281018b905501558a51875190938492829084906118ee565b81016003815203019020805490600160401b821015610cba5790610c2b91600182018155611996565b939093610cab575050508798610c727fced5645e74eac754d74265a7b4c0370066622594ae3febf75b4ed8286bf16c8193610c6d6105a69a9b610c9095611b53565b611aa2565b93610c7c8b611aa2565b958851938493606085526060850190611911565b918b840152888301520390a451928284938452830190611911565b634e487b7160e01b8252819052fd5b5050634e487b7160e01b815260418352fd5b885162461bcd60e51b81528085018b90526017818501527f50726f706f73616c20616c7265616479206578697374730000000000000000006044820152606490fd5b50610d356102a78a518c818951610d268183896118ee565b8101878152030190208d611970565b15610b8f565b9060206064928189519362461bcd60e51b85528401528201527f53746172742074696d65206d75737420626520696e20746865206675747572656044820152fd5b906021608492602089519362461bcd60e51b85528401528201527f456e642074696d65206d7573742062652061667465722073746172742074696d6044820152606560f81b6064820152fd5b906015606492602089519362461bcd60e51b8552840152820152745469746c652063616e6e6f7420626520656d70747960581b6044820152fd5b8580fd5b8480fd5b509190346105aa5760203660031901126105aa5782359067ffffffffffffffff82116105aa57506020610e448194610e569336910161172b565b818451938285809451938492016118ee565b81016003815203019020549051908152f35b8284346101fd57816003193601126101fd576020906001549051908152f35b5082346101f957610e9736611787565b90610ea481511515611ac2565b610eb082511515611b07565b8251938151610ed26102ad6102a760209889818189019661029881838a6118ee565b6002610ee88651888187516102ff8183896118ee565b015442106110bb57610f0a6108cd8760039388518093819289519283916118ee565b01544211611085573386526002855260ff610f2a61034e86892085611970565b54166110325733865260028552610f4661062585882084611970565b60ff1990600182825416179055845191610f5f836116d7565b3383528683018481528684019086825260608501948a8652600154600160401b81101561101f57806001610f9692016001556117ce565b94909461100d575060037f19fd43f490b457a19f8733915c9e27012962c1e5d21b6dc7c07e5aef43c656d7979461041461100198956109ce610ffb999660ff9660018060a01b039051166001600160601b0360a01b8654161785555160018501611b53565b92611aa2565b9251938585523394a480f35b634e487b7160e01b8c528b905260248bfd5b634e487b7160e01b8c526041855260248cfd5b835162461bcd60e51b8152908101859052602760248201527f596f75206861766520616c726561647920766f746564206f6e207468697320706044820152661c9bdc1bdcd85b60ca1b6064820152608490fd5b835162461bcd60e51b8152908101859052601060248201526f159bdd1a5b99c81a185cc8195b99195960821b6044820152606490fd5b845162461bcd60e51b8152808301879052601a602482015279159bdd1a5b99c81a185cc81b9bdd081cdd185c9d1959081e595d60321b6044820152606490fd5b5090346105aa57826003193601126105aa57813567ffffffffffffffff81116101fd5761112b903690840161172b565b611146602060243592818751938285809451938492016118ee565b8101600381520301902080548210156101f9579061116391611996565b9290926111985783516105a690856111868261117f8189611858565b0383611709565b51918291602083526020830190611911565b634e487b7160e01b8252819052602490fd5b508290346101f9576111bb36611787565b9290918151918351916111f06102ad6102a76020968781818b01986111e181838c6118ee565b81018d81520301902089611970565b8151600161121d87516112048185896118ee565b8301928a84528781848060a01b03950301902089611970565b01541633036112fb5760ff600161123e845187818a516111e181838c6118ee565b015460a01c16156112ba5750611268611288949360019361127793518093819288519283916118ee565b81018981520301902085611970565b01805460ff60a01b19169055611aa2565b6112923392611aa2565b907f0ee400d4b1da7db50872133cc20efa6e8af14bafdfc13569e3815607373abcea8480a480f35b83606492519162461bcd60e51b8352820152601c60248201527f50726f706f73616c20697320616c726561647920696e616374697665000000006044820152fd5b83606492519162461bcd60e51b8352820152601b60248201527f4f6e6c792063726561746f722063616e206465616374697661746500000000006044820152fd5b5050346105aa576105a661136e61138e9261054f602061135b36611787565b93828951948386809551938492016118ee565b600181015493600282015490611395600384015493825196878092611858565b0386611709565b5194859460a082901c60ff16916001600160a01b03169086611936565b50346101fd5760203660031901126101fd5735906001548210156105aa57506113da906117ce565b5060018060a01b03815416906114488351936113fd8561138e8160018701611858565b60ff600382519461141c866114158160028501611858565b0387611709565b0154169261143b82519687968752608060208801526080870190611911565b9185830390860152611911565b9060608301520390f35b8284346101fd5761146236611787565b9092809181946001938454965b8781106115fa575061148081611a2a565b9561148d81519788611709565b81875261149982611a2a565b9760209384890195601f19809b013688376114cb6114b686611a2a565b956114c386519788611709565b808752611a2a565b8587019b01368c378791885b84811061155257505050505080519681880191885251809152606087019390855b81811061153657505050858303868301525180835291810195925b8281106115205785870386f35b835160ff16875295810195928101928401611513565b82516001600160a01b03168652948401949184019187016114f8565b998a81611568819f9d610764909d9b9c9d6117ce565b8a815191012083518b85012014806115d9575b61158d575b019b999b989796986114d7565b93808d6115b16115d3936115a0896117ce565b50546001600160a01b031692611a42565b5260ff60036115bf886117ce565b500154166115cd828b611a42565b52611a05565b93611580565b5060026115e8610764836117ce565b8a815191012084518b8601201461157b565b94858161160f610826829b99989697986117ce565b8051602080920120865182880120149081611648575b50611638575b019694969392919361146f565b9161164290611a05565b9161162b565b90506002611668611658846117ce565b506101dc8c518094819301611858565b81815191012090875190880120148a611625565b8284346101fd5761169660209261054f8461053c36611787565b906116a1825461181e565b151591826116c8575b826116b9575b50519015158152f35b600301544211159150836116b0565b600281015442101592506116aa565b6080810190811067ffffffffffffffff8211176116f357604052565b634e487b7160e01b600052604160045260246000fd5b90601f8019910116810190811067ffffffffffffffff8211176116f357604052565b81601f820112156117825780359067ffffffffffffffff82116116f35760405192611760601f8401601f191660200185611709565b8284526020838301011161178257816000926020809301838601378301015290565b600080fd5b9060406003198301126117825767ffffffffffffffff60043581811161178257836117b49160040161172b565b92602435918211611782576117cb9160040161172b565b90565b60015481101561180857600160005260021b7fb10e2d527612073b26eecdfd717e6a320cf44b4afac2b0732d9fcbe2b7fa0cf60190600090565b634e487b7160e01b600052603260045260246000fd5b90600182811c9216801561184e575b602083101461183857565b634e487b7160e01b600052602260045260246000fd5b91607f169161182d565b8054600093926118678261181e565b918282526020936001916001811690816000146118cf575060011461188e575b5050505050565b90939495506000929192528360002092846000945b8386106118bb57505050500101903880808080611887565b8054858701830152940193859082016118a3565b60ff19168685015250505090151560051b010191503880808080611887565b60005b8381106119015750506000910152565b81810151838201526020016118f1565b9060209161192a815180928185528580860191016118ee565b601f01601f1916010190565b91959493909261195060809460a0855260a0850190611911565b6001600160a01b0390971660208401521515604083015260608201520152565b60209061198a9282604051948386809551938492016118ee565b82019081520301902090565b80548210156118085760005260206000200190600090565b6060600319820112611782576004356001600160a01b0381168103611782579167ffffffffffffffff60243581811161178257836119ee9160040161172b565b92604435918211611782576117cb9160040161172b565b6000198114611a145760010190565b634e487b7160e01b600052601160045260246000fd5b67ffffffffffffffff81116116f35760051b60200190565b80518210156118085760209160051b010190565b15611a5d57565b60405162461bcd60e51b815260206004820152601760248201527f50726f706f73616c20646f6573206e6f742065786973740000000000000000006044820152606490fd5b611aba906020604051928284809451938492016118ee565b810103902090565b15611ac957565b60405162461bcd60e51b815260206004820152601660248201527544414f2049442063616e6e6f7420626520656d70747960501b6044820152606490fd5b15611b0e57565b60405162461bcd60e51b815260206004820152601b60248201527f50726f706f73616c2049442063616e6e6f7420626520656d70747900000000006044820152606490fd5b919091825167ffffffffffffffff81116116f357611b71825461181e565b601f8111611c1c575b50602080601f8311600114611bb7575081929394600092611bac575b50508160011b916000199060031b1c1916179055565b015190503880611b96565b90601f19831695846000526020600020926000905b888210611c0457505083600195969710611beb575b505050811b019055565b015160001960f88460031b161c19169055388080611be1565b80600185968294968601518155019501930190611bcc565b6000836000526020600020601f840160051c81019260208510611c5c575b601f0160051c01915b828110611c51575050611b7a565b818155600101611c43565b9092508290611c3a56fea2646970667358221220ceeff1d3c3f8bc136bedd3dddeb0d27c0d40f519062777cab8d3ba5a9290622f64736f6c63430008170033","linkReferences":{}},"methodIdentifiers":{"createProposal(string,string,string,address,uint256,uint256)":"a80dccbf","daoProposals(string,uint256)":"88f4dae2","deactivateProposal(string,string)":"68fc5586","getAddressVote(address,string,string)":"c7811a9f","getDaoProposalCount(string)":"9d8e712a","getDaoProposals(string)":"dfb242af","getProposal(string,string)":"608c7b5a","getProposalVoters(string,string)":"53a5a1b9","getTotalVotes()":"9a0e7d66","getVoteCounts(string,string)":"bdef1480","hasVoted(address,string,string)":"dd9d896f","isVotingActive(string,string)":"304ec95a","proposalExists(string,string)":"cbfe2a3c","proposals(string,string)":"d33895fc","voteAbstain(string,string)":"d8465ad0","voteNo(string,string)":"93301cc5","voteYes(string,string)":"b819043b","votes(uint256)":"5df81330"},"id":60}