{"abi":[{"type":"function","name":"DATA_URL","inputs":[],"outputs":[{"name":"","type":"string","internalType":"string"}],"stateMutability":"view"},{"type":"function","name":"main","inputs":[{"name":"webProof","type":"tuple","internalType":"struct WebProof","components":[{"name":"webProofJson","type":"string","internalType":"string"}]},{"name":"account","type":"address","internalType":"address"}],"outputs":[{"name":"","type":"tuple","internalType":"struct Proof","components":[{"name":"seal","type":"tuple","internalType":"struct Seal","components":[{"name":"verifierSelector","type":"bytes4","internalType":"bytes4"},{"name":"seal","type":"bytes32[8]","internalType":"bytes32[8]"},{"name":"mode","type":"uint8","internalType":"enum ProofMode"}]},{"name":"callGuestId","type":"bytes32","internalType":"bytes32"},{"name":"length","type":"uint256","internalType":"uint256"},{"name":"callAssumptions","type":"tuple","internalType":"struct CallAssumptions","components":[{"name":"proverContractAddress","type":"address","internalType":"address"},{"name":"functionSelector","type":"bytes4","internalType":"bytes4"},{"name":"settleChainId","type":"uint256","internalType":"uint256"},{"name":"settleBlockNumber","type":"uint256","internalType":"uint256"},{"name":"settleBlockHash","type":"bytes32","internalType":"bytes32"}]}]},{"name":"","type":"string","internalType":"string"},{"name":"","type":"address","internalType":"address"}],"stateMutability":"view"},{"type":"function","name":"proof","inputs":[],"outputs":[{"name":"","type":"tuple","internalType":"struct Proof","components":[{"name":"seal","type":"tuple","internalType":"struct Seal","components":[{"name":"verifierSelector","type":"bytes4","internalType":"bytes4"},{"name":"seal","type":"bytes32[8]","internalType":"bytes32[8]"},{"name":"mode","type":"uint8","internalType":"enum ProofMode"}]},{"name":"callGuestId","type":"bytes32","internalType":"bytes32"},{"name":"length","type":"uint256","internalType":"uint256"},{"name":"callAssumptions","type":"tuple","internalType":"struct CallAssumptions","components":[{"name":"proverContractAddress","type":"address","internalType":"address"},{"name":"functionSelector","type":"bytes4","internalType":"bytes4"},{"name":"settleChainId","type":"uint256","internalType":"uint256"},{"name":"settleBlockNumber","type":"uint256","internalType":"uint256"},{"name":"settleBlockHash","type":"bytes32","internalType":"bytes32"}]}]}],"stateMutability":"pure"},{"type":"function","name":"setBlock","inputs":[{"name":"blockNo","type":"uint256","internalType":"uint256"}],"outputs":[],"stateMutability":"nonpayable"},{"type":"function","name":"setChain","inputs":[{"name":"chainId","type":"uint256","internalType":"uint256"},{"name":"blockNo","type":"uint256","internalType":"uint256"}],"outputs":[],"stateMutability":"nonpayable"},{"type":"error","name":"FailedInnerCall","inputs":[]}],"bytecode":{"object":"0x6080806040523461001657610ed4908161001c8239f35b600080fdfe6080604081815260048036101561001557600080fd5b600092833560e01c90816387cea3ae14610851575080639bb2bd7f1461081c578063c822d5ef14610140578063faf924cf146100fe5763ffbc56381461005a57600080fd5b346100fa57816003193601126100fa57815190631ff78ac760e31b82528035908201526024356024820152602081604481867376dc9aa45aa006a0f63942d8f9f21bd4537972a35af19081156100ee576100bc925083916100bf575b50610c06565b80f35b6100e1915060203d6020116100e7575b6100d981836108dd565b810190610be9565b386100b6565b503d6100cf565b505051903d90823e3d90fd5b8280fd5b50503461013c578160031936011261013c576102209061011c610c52565b50610125610c52565b5061013a610131610c52565b91518092610b23565bf35b5080fd5b5090346100fa5760031981813601126108185767ffffffffffffffff90833582811161081457602080928236030112610814576001600160a01b03602480359182169690929187900361081057610195610c52565b50855191848301838110878211176107fe57875280820135908682116107fa5701366023820112156107f6578882820135916101d0836108ff565b926101dd8a5194856108dd565b808452368782840101116100fa5780878993018386013783010152825261020261091b565b61020a610d13565b50610213610d13565b508880885194856102368982019260608452518a608084015260a0830190610afe565b838c8301528360608301520395610255601f19978881018352826108dd565b519073f4e4fdca9d5d55e64525e314391996a15f7ec6005afa9061028161027a610d32565b8093610e20565b50815182019186818185019403126107ee5786810151908882116107f2570182603f820112156107ee57885192608084018481108a8211176107dc578a52839060a08301928184116107d857898101925b8484106107af575050505050878201519160608101519051908951936102f7856108ab565b84528088850152898401918252617a69461480156107a3575b8015610795575b1561061f57895160e081018181108b82111761060d578b5260ae81527f2d2d2d2d2d424547494e205055424c4943204b45592d2d2d2d2d0a4d46597745898201527f4159484b6f5a497a6a3043415159464b34454541416f445167414565306a786e8b8201527f424f6261496a37586a673654584c434d3147472f566859353635300a4f72532f60608201527f6a6763624275666f2f51446646764c2f69727a4976314a536d6847695663734360808201527f4843776f6c684458576367653776324973513d3d0a2d2d2d2d2d454e4420505560a08201526d212624a19025a2ac96969696968560911b60c082015261042593929161041f9161041a9190610df3565b610da7565b51610df3565b156105dc57865191878301838110888211176105ca578852600b83526a73637265656e5f6e616d6560a81b868401528151511561059857875194888601918683108984111761058757505087525183528383015284518084018481526080820193899391929190828901855b886002821061055557505050506104b190828596039081018352826108dd565b519073f4e4fdca9d5d55e64525e314391996a15f7ec6025afa916104dd6104d6610d32565b8094610e20565b5082518301958284880312610552578284015191821161055257508161050894959601920101610d62565b91610511610c52565b5061051a610c52565b50610547610526610c52565b92519384936105388561026092610b23565b80610220860152840190610afe565b906102408301520390f35b80fd5b809193959750610574600193959799603f198a82030187528751610afe565b950193019101908b959396949291610491565b634e487b7160e01b8c52604190528afd5b875162461bcd60e51b8152908101869052600d818601526c426f647920697320656d70747960981b6044820152606490fd5b634e487b7160e01b8b5260418252858bfd5b865162461bcd60e51b8152808301869052600c818601526b0aaa49840dad2e6dac2e8c6d60a31b6044820152606490fd5b634e487b7160e01b8e5260418752888efd5b8760014614801561078b575b8015610781575b8015610776575b801561076b575b8015610760575b8015610755575b801561074a575b801561073f575b156106e757610683918b5180938192632505a3bd60e01b8352848a8401528b830190610afe565b038173565dca92902ea0ca597b5e62df0b47886b6b7d4d5afa908c82156106dc576104259493926106ba92906106bf575b50610da7565b61041f565b6106d691508a3d8c116100e7576100d981836108dd565b386106b4565b8b51903d90823e3d90fd5b610709918b5180938192632505a3bd60e01b8352848a8401528b830190610afe565b038173c4e4dc291a5c4debe9ff5a3372f3fdd2e42bac865afa908c82156106dc576104259493926106ba92906106bf5750610da7565b5061e708461461065c565b5061a4ba4614610655565b5061a4b1461461064e565b506121054614610647565b506101e04614610640565b506101444614610639565b5060894614610632565b50600a461461062b565b5061079e610e4b565b610317565b50620499194614610310565b83518c81116107d4578b916107c985848094870101610d62565b8152019301926102d2565b8f80fd5b8d80fd5b634e487b7160e01b8d5260418652878dfd5b8a80fd5b8b80fd5b8880fd5b8980fd5b634e487b7160e01b8a5260418352848afd5b8780fd5b8580fd5b8380fd5b50503461013c578160031936011261013c5761084d9061083a61091b565b9051918291602083526020830190610afe565b0390f35b91905034610818576020366003190112610818576343e751d760e11b8252803590820152602081602481867376dc9aa45aa006a0f63942d8f9f21bd4537972a35af19081156100ee576100bc925083916100bf5750610c06565b6060810190811067ffffffffffffffff8211176108c757604052565b634e487b7160e01b600052604160045260246000fd5b90601f8019910116810190811067ffffffffffffffff8211176108c757604052565b67ffffffffffffffff81116108c757601f01601f191660200190565b60405190610180820182811067ffffffffffffffff8211176108c7576040526101518252706d656469615f66696c7465723d7472756560781b610160837f68747470733a2f2f6170692e782e636f6d2f312e312f6163636f756e742f736560208201527f7474696e67732e6a736f6e3f696e636c7564655f6578745f73686172696e675f60408201527f617564696f7370616365735f6c697374656e696e675f646174615f776974685f60608201527f666f6c6c6f776572733d7472756526696e636c7564655f6d656e74696f6e5f6660808201527f696c7465723d7472756526696e636c7564655f6e7366775f757365725f666c6160a08201527f673d7472756526696e636c7564655f6e7366775f61646d696e5f666c61673d7460c08201527f72756526696e636c7564655f72616e6b65645f74696d656c696e653d7472756560e08201527f26696e636c7564655f616c745f746578745f636f6d706f73653d7472756526656101008201527f78743d73736f436f6e6e656374696f6e7326696e636c7564655f636f756e74726101208201527f795f636f64653d7472756526696e636c7564655f6578745f646d5f6e7366775f6101408201520152565b60005b838110610aee5750506000910152565b8181015183820152602001610ade565b90602091610b1781518092818552858086019101610adb565b601f01601f1916010190565b80519063ffffffff60e01b9182815116845260209081810151828601836000915b60088310610bd2575050505060400151926002841015610bbc5760606080936102009561012088015283810151610140880152604081015161016088015201519160018060a01b03835116610180870152820151166101a085015260408101516101c085015260608101516101e08501520151910152565b634e487b7160e01b600052602160045260246000fd5b908060019285518152019301910190918490610b44565b90816020910312610c0157518015158103610c015790565b600080fd5b15610c0d57565b60405162461bcd60e51b815260206004820152601b60248201527f4661696c6564206368656174636f646520696e766f636174696f6e00000000006044820152606490fd5b6040908151608081019067ffffffffffffffff91818110838211176108c7578085528194610c7f826108ab565b600091828152815161010080820182811088821117610cff57845236823760a08501528260c08501528352816020840152818184015280519360a085019085821090821117610ceb57918160609493829352818652816020870152850152808385015260808401520152565b634e487b7160e01b83526041600452602483fd5b634e487b7160e01b86526041600452602486fd5b60405190610d20826108ab565b60606040838281528260208201520152565b3d15610d5d573d90610d43826108ff565b91610d5160405193846108dd565b82523d6000602084013e565b606090565b81601f82011215610c01578051610d78816108ff565b92610d8660405194856108dd565b81845260208284010111610c0157610da49160208085019101610adb565b90565b15610dae57565b60405162461bcd60e51b815260206004820152601960248201527f496e76616c6964206e6f74617279207075626c6963206b6579000000000000006044820152606490fd5b9081518151908181149384610e0a575b5050505090565b6020929394508201209201201438808080610e03565b909190610e495750805115610e3757805190602001fd5b604051630a12f52160e11b8152600490fd5b565b600080808073f4e4fdca9d5d55e64525e314391996a15f7ec61e5afa610e6f610d32565b90158015610e95575b610e8f5780602080610da493518301019101610be9565b50600090565b50805115610e7856fea2646970667358221220ed54308c5fccdc3859146286737b03ce1fe2f83b2c5dbf08f9c6659ee67f989d64736f6c63430008170033","linkReferences":{}},"methodIdentifiers":{"DATA_URL()":"9bb2bd7f","main((string),address)":"c822d5ef","proof()":"faf924cf","setBlock(uint256)":"87cea3ae","setChain(uint256,uint256)":"ffbc5638"},"id":77}